{
  "contractName": "Resume",
  "abi": [
    {
      "constant": true,
      "inputs": [],
      "name": "status",
      "outputs": [
        {
          "name": "",
          "type": "uint8"
        }
      ],
      "payable": false,
      "stateMutability": "view",
      "type": "function"
    },
    {
      "constant": true,
      "inputs": [
        {
          "name": "",
          "type": "uint256"
        }
      ],
      "name": "skills",
      "outputs": [
        {
          "name": "",
          "type": "string"
        }
      ],
      "payable": false,
      "stateMutability": "view",
      "type": "function"
    },
    {
      "constant": true,
      "inputs": [],
      "name": "profession",
      "outputs": [
        {
          "name": "index",
          "type": "uint256"
        },
        {
          "name": "role",
          "type": "uint8"
        },
        {
          "name": "title",
          "type": "string"
        },
        {
          "name": "employer_index",
          "type": "uint256"
        },
        {
          "name": "description",
          "type": "string"
        },
        {
          "name": "location_index",
          "type": "uint256"
        },
        {
          "name": "start_date",
          "type": "uint256"
        },
        {
          "name": "end_date",
          "type": "uint256"
        }
      ],
      "payable": false,
      "stateMutability": "view",
      "type": "function"
    },
    {
      "constant": true,
      "inputs": [],
      "name": "locale",
      "outputs": [
        {
          "name": "city",
          "type": "string"
        },
        {
          "name": "country",
          "type": "string"
        }
      ],
      "payable": false,
      "stateMutability": "view",
      "type": "function"
    },
    {
      "anonymous": false,
      "inputs": [
        {
          "indexed": false,
          "name": "title",
          "type": "string"
        },
        {
          "indexed": false,
          "name": "entityName",
          "type": "string"
        }
      ],
      "name": "EducationListed",
      "type": "event"
    },
    {
      "anonymous": false,
      "inputs": [
        {
          "indexed": false,
          "name": "title",
          "type": "string"
        },
        {
          "indexed": false,
          "name": "entityName",
          "type": "string"
        }
      ],
      "name": "PublicationListed",
      "type": "event"
    },
    {
      "anonymous": false,
      "inputs": [
        {
          "indexed": false,
          "name": "title",
          "type": "string"
        },
        {
          "indexed": false,
          "name": "entityName",
          "type": "string"
        }
      ],
      "name": "OccupationListed",
      "type": "event"
    },
    {
      "anonymous": false,
      "inputs": [
        {
          "indexed": false,
          "name": "title",
          "type": "string"
        },
        {
          "indexed": false,
          "name": "entityName",
          "type": "string"
        }
      ],
      "name": "CommunityListed",
      "type": "event"
    },
    {
      "anonymous": false,
      "inputs": [
        {
          "indexed": false,
          "name": "title",
          "type": "string"
        },
        {
          "indexed": false,
          "name": "entityName",
          "type": "string"
        }
      ],
      "name": "AwardListed",
      "type": "event"
    },
    {
      "anonymous": false,
      "inputs": [
        {
          "indexed": false,
          "name": "atIndex",
          "type": "uint256"
        },
        {
          "indexed": false,
          "name": "fields",
          "type": "string"
        }
      ],
      "name": "OccupationChanged",
      "type": "event"
    },
    {
      "anonymous": false,
      "inputs": [
        {
          "indexed": false,
          "name": "title",
          "type": "string"
        }
      ],
      "name": "OccupationRemoved",
      "type": "event"
    },
    {
      "anonymous": false,
      "inputs": [
        {
          "indexed": false,
          "name": "id",
          "type": "uint256"
        },
        {
          "indexed": false,
          "name": "title",
          "type": "string"
        }
      ],
      "name": "OccupationSet",
      "type": "event"
    },
    {
      "anonymous": false,
      "inputs": [
        {
          "indexed": false,
          "name": "atIndex",
          "type": "uint256"
        },
        {
          "indexed": false,
          "name": "name",
          "type": "string"
        }
      ],
      "name": "EntityCreated",
      "type": "event"
    },
    {
      "anonymous": false,
      "inputs": [
        {
          "indexed": false,
          "name": "skill",
          "type": "string"
        },
        {
          "indexed": false,
          "name": "index",
          "type": "uint256"
        }
      ],
      "name": "ListedSkill",
      "type": "event"
    },
    {
      "anonymous": false,
      "inputs": [
        {
          "indexed": false,
          "name": "atIndex",
          "type": "uint256"
        },
        {
          "indexed": false,
          "name": "location",
          "type": "string"
        }
      ],
      "name": "LocationListed",
      "type": "event"
    },
    {
      "constant": false,
      "inputs": [
        {
          "name": "newOwner",
          "type": "address"
        }
      ],
      "name": "setOwner",
      "outputs": [],
      "payable": false,
      "stateMutability": "nonpayable",
      "type": "function"
    },
    {
      "constant": true,
      "inputs": [],
      "name": "getOwner",
      "outputs": [
        {
          "name": "",
          "type": "address"
        }
      ],
      "payable": false,
      "stateMutability": "view",
      "type": "function"
    },
    {
      "constant": false,
      "inputs": [
        {
          "name": "newName",
          "type": "string"
        }
      ],
      "name": "setName",
      "outputs": [],
      "payable": true,
      "stateMutability": "payable",
      "type": "function"
    },
    {
      "constant": false,
      "inputs": [
        {
          "name": "city",
          "type": "string"
        },
        {
          "name": "country",
          "type": "string"
        }
      ],
      "name": "setLocation",
      "outputs": [],
      "payable": true,
      "stateMutability": "payable",
      "type": "function"
    },
    {
      "constant": false,
      "inputs": [
        {
          "name": "city",
          "type": "string"
        },
        {
          "name": "country",
          "type": "string"
        }
      ],
      "name": "addLocation",
      "outputs": [],
      "payable": true,
      "stateMutability": "payable",
      "type": "function"
    },
    {
      "constant": true,
      "inputs": [],
      "name": "getDetails",
      "outputs": [
        {
          "name": "",
          "type": "string"
        },
        {
          "name": "",
          "type": "string"
        }
      ],
      "payable": false,
      "stateMutability": "view",
      "type": "function"
    },
    {
      "constant": true,
      "inputs": [],
      "name": "getLocation",
      "outputs": [
        {
          "name": "",
          "type": "string"
        }
      ],
      "payable": false,
      "stateMutability": "view",
      "type": "function"
    },
    {
      "constant": true,
      "inputs": [
        {
          "name": "atIndex",
          "type": "uint256"
        }
      ],
      "name": "getLocationAtIndex",
      "outputs": [
        {
          "name": "",
          "type": "string"
        }
      ],
      "payable": false,
      "stateMutability": "view",
      "type": "function"
    },
    {
      "constant": false,
      "inputs": [
        {
          "name": "title",
          "type": "string"
        },
        {
          "name": "entityIndex",
          "type": "uint256"
        },
        {
          "name": "description",
          "type": "string"
        },
        {
          "name": "endDate",
          "type": "uint256"
        }
      ],
      "name": "addPublication",
      "outputs": [],
      "payable": true,
      "stateMutability": "payable",
      "type": "function"
    },
    {
      "constant": false,
      "inputs": [
        {
          "name": "title",
          "type": "string"
        },
        {
          "name": "entityIndex",
          "type": "uint256"
        },
        {
          "name": "description",
          "type": "string"
        },
        {
          "name": "locationIndex",
          "type": "uint256"
        },
        {
          "name": "startDate",
          "type": "uint256"
        },
        {
          "name": "endDate",
          "type": "uint256"
        }
      ],
      "name": "addEducation",
      "outputs": [],
      "payable": true,
      "stateMutability": "payable",
      "type": "function"
    },
    {
      "constant": false,
      "inputs": [
        {
          "name": "title",
          "type": "string"
        },
        {
          "name": "entityIndex",
          "type": "uint256"
        },
        {
          "name": "description",
          "type": "string"
        },
        {
          "name": "locationIndex",
          "type": "uint256"
        },
        {
          "name": "startDate",
          "type": "uint256"
        },
        {
          "name": "endDate",
          "type": "uint256"
        }
      ],
      "name": "addOccupation",
      "outputs": [],
      "payable": true,
      "stateMutability": "payable",
      "type": "function"
    },
    {
      "constant": false,
      "inputs": [
        {
          "name": "title",
          "type": "string"
        },
        {
          "name": "entityIndex",
          "type": "uint256"
        },
        {
          "name": "description",
          "type": "string"
        },
        {
          "name": "startDate",
          "type": "uint256"
        },
        {
          "name": "endDate",
          "type": "uint256"
        }
      ],
      "name": "addCommunity",
      "outputs": [],
      "payable": true,
      "stateMutability": "payable",
      "type": "function"
    },
    {
      "constant": false,
      "inputs": [
        {
          "name": "title",
          "type": "string"
        },
        {
          "name": "entityIndex",
          "type": "uint256"
        },
        {
          "name": "description",
          "type": "string"
        },
        {
          "name": "endDate",
          "type": "uint256"
        }
      ],
      "name": "addAward",
      "outputs": [],
      "payable": true,
      "stateMutability": "payable",
      "type": "function"
    },
    {
      "constant": false,
      "inputs": [
        {
          "name": "withIndex",
          "type": "uint256"
        }
      ],
      "name": "setOccupation",
      "outputs": [],
      "payable": true,
      "stateMutability": "payable",
      "type": "function"
    },
    {
      "constant": false,
      "inputs": [
        {
          "name": "atIndex",
          "type": "uint256"
        }
      ],
      "name": "updateOccupation",
      "outputs": [],
      "payable": true,
      "stateMutability": "payable",
      "type": "function"
    },
    {
      "constant": true,
      "inputs": [
        {
          "name": "atIndex",
          "type": "uint256"
        }
      ],
      "name": "getOccupation",
      "outputs": [
        {
          "name": "",
          "type": "uint8"
        },
        {
          "name": "",
          "type": "string"
        },
        {
          "name": "",
          "type": "string"
        },
        {
          "name": "",
          "type": "string"
        },
        {
          "name": "",
          "type": "string"
        },
        {
          "name": "",
          "type": "string"
        },
        {
          "name": "",
          "type": "uint256"
        },
        {
          "name": "",
          "type": "uint256"
        }
      ],
      "payable": false,
      "stateMutability": "view",
      "type": "function"
    },
    {
      "constant": true,
      "inputs": [],
      "name": "countOccupations",
      "outputs": [
        {
          "name": "",
          "type": "uint256"
        }
      ],
      "payable": false,
      "stateMutability": "view",
      "type": "function"
    },
    {
      "constant": false,
      "inputs": [
        {
          "name": "atIndex",
          "type": "uint256"
        }
      ],
      "name": "removeOccupation",
      "outputs": [],
      "payable": true,
      "stateMutability": "payable",
      "type": "function"
    },
    {
      "constant": false,
      "inputs": [
        {
          "name": "entityName",
          "type": "string"
        },
        {
          "name": "thumb",
          "type": "string"
        }
      ],
      "name": "addEntity",
      "outputs": [],
      "payable": true,
      "stateMutability": "payable",
      "type": "function"
    },
    {
      "constant": false,
      "inputs": [
        {
          "name": "withID",
          "type": "uint256"
        }
      ],
      "name": "updateEntity",
      "outputs": [],
      "payable": true,
      "stateMutability": "payable",
      "type": "function"
    },
    {
      "constant": false,
      "inputs": [
        {
          "name": "withID",
          "type": "uint256"
        }
      ],
      "name": "removeEntity",
      "outputs": [],
      "payable": true,
      "stateMutability": "payable",
      "type": "function"
    },
    {
      "constant": true,
      "inputs": [
        {
          "name": "atIndex",
          "type": "uint256"
        }
      ],
      "name": "getEntity",
      "outputs": [
        {
          "name": "",
          "type": "string"
        },
        {
          "name": "",
          "type": "string"
        }
      ],
      "payable": false,
      "stateMutability": "view",
      "type": "function"
    },
    {
      "constant": true,
      "inputs": [],
      "name": "countEntities",
      "outputs": [
        {
          "name": "",
          "type": "uint256"
        }
      ],
      "payable": false,
      "stateMutability": "view",
      "type": "function"
    },
    {
      "constant": false,
      "inputs": [
        {
          "name": "atIndex",
          "type": "uint256"
        },
        {
          "name": "startDate",
          "type": "uint256"
        },
        {
          "name": "endDate",
          "type": "uint256"
        }
      ],
      "name": "updateOccupationTimeline",
      "outputs": [],
      "payable": true,
      "stateMutability": "payable",
      "type": "function"
    },
    {
      "constant": false,
      "inputs": [
        {
          "name": "atIndex",
          "type": "uint256"
        },
        {
          "name": "skill",
          "type": "string"
        }
      ],
      "name": "addSkill",
      "outputs": [],
      "payable": true,
      "stateMutability": "payable",
      "type": "function"
    },
    {
      "constant": true,
      "inputs": [
        {
          "name": "atIndex",
          "type": "uint256"
        }
      ],
      "name": "getSkill",
      "outputs": [
        {
          "name": "",
          "type": "string"
        }
      ],
      "payable": false,
      "stateMutability": "view",
      "type": "function"
    },
    {
      "constant": false,
      "inputs": [
        {
          "name": "skill",
          "type": "string"
        }
      ],
      "name": "removeSkill",
      "outputs": [],
      "payable": true,
      "stateMutability": "payable",
      "type": "function"
    }
  ],
  "bytecode": "0x6080604052336000806101000a81548173ffffffffffffffffffffffffffffffffffffffff021916908373ffffffffffffffffffffffffffffffffffffffff16021790555034801561005057600080fd5b50614932806100606000396000f3fe6080604052600436106101d75760003560e01c8063aa9646f211610102578063e122007d11610095578063f87b1d7711610064578063f87b1d7714611739578063fbbf93a01461189f578063fe586c9a1461199b578063ff618b5314611aed576101d7565b8063e122007d146113d0578063ec7bb03b14611536578063ee3ee48014611632578063f7c342bb14611674576101d7565b8063c47f0027116100d1578063c47f002714611108578063cdd7a496146111c3578063ce2ce3fc146111ee578063cefb85aa1461127e576101d7565b8063aa9646f214610c86578063b3a2784214610e00578063bd037c9314610f20578063bd880fae14611054576101d7565b80635ac94e4a1161017a578063713673dd11610149578063713673dd14610a845780637a3aa95014610bd6578063893d20e814610c04578063a9ea7abf14610c5b576101d7565b80635ac94e4a146107f35780636042ab1c1461096d5780636d6d386b14610a285780636d767d1a14610a56576101d7565b806315b2d0f6116101b657806315b2d0f614610451578063200d2ed2146106d85780633a88c1091461071157806350d15fbe1461073f576101d7565b80621353b7146101dc57806311f68ef01461029057806313af403514610400575b600080fd5b3480156101e857600080fd5b50610215600480360360208110156101ff57600080fd5b8101908080359060200190929190505050611b1b565b6040518080602001828103825283818151815260200191508051906020019080838360005b8381101561025557808201518184015260208101905061023a565b50505050905090810190601f1680156102825780820380516001836020036101000a031916815260200191505b509250505060405180910390f35b6103fe600480360360a08110156102a657600080fd5b81019080803590602001906401000000008111156102c357600080fd5b8201836020820111156102d557600080fd5b803590602001918460018302840111640100000000831117156102f757600080fd5b91908080601f016020809104026020016040519081016040528093929190818152602001838380828437600081840152601f19601f820116905080830192505050505050509192919290803590602001909291908035906020019064010000000081111561036457600080fd5b82018360208201111561037657600080fd5b8035906020019184600183028401116401000000008311171561039857600080fd5b91908080601f016020809104026020016040519081016040528093929190818152602001838380828437600081840152601f19601f8201169050808301925050505050505091929192908035906020019092919080359060200190929190505050611e87565b005b34801561040c57600080fd5b5061044f6004803603602081101561042357600080fd5b81019080803573ffffffffffffffffffffffffffffffffffffffff1690602001909291905050506120df565b005b34801561045d57600080fd5b5061048a6004803603602081101561047457600080fd5b81019080803590602001909291905050506121d7565b6040518089600481111561049a57fe5b60ff168152602001806020018060200180602001806020018060200188815260200187815260200186810386528d818151815260200191508051906020019080838360005b838110156104fa5780820151818401526020810190506104df565b50505050905090810190601f1680156105275780820380516001836020036101000a031916815260200191505b5086810385528c818151815260200191508051906020019080838360005b83811015610560578082015181840152602081019050610545565b50505050905090810190601f16801561058d5780820380516001836020036101000a031916815260200191505b5086810384528b818151815260200191508051906020019080838360005b838110156105c65780820151818401526020810190506105ab565b50505050905090810190601f1680156105f35780820380516001836020036101000a031916815260200191505b5086810383528a818151815260200191508051906020019080838360005b8381101561062c578082015181840152602081019050610611565b50505050905090810190601f1680156106595780820380516001836020036101000a031916815260200191505b50868103825289818151815260200191508051906020019080838360005b83811015610692578082015181840152602081019050610677565b50505050905090810190601f1680156106bf5780820380516001836020036101000a031916815260200191505b509d505050505050505050505050505060405180910390f35b3480156106e457600080fd5b506106ed612691565b604051808260038111156106fd57fe5b60ff16815260200191505060405180910390f35b61073d6004803603602081101561072757600080fd5b81019080803590602001909291905050506126a4565b005b34801561074b57600080fd5b506107786004803603602081101561076257600080fd5b8101908080359060200190929190505050612722565b6040518080602001828103825283818151815260200191508051906020019080838360005b838110156107b857808201518184015260208101905061079d565b50505050905090810190601f1680156107e55780820380516001836020036101000a031916815260200191505b509250505060405180910390f35b61096b600480360360c081101561080957600080fd5b810190808035906020019064010000000081111561082657600080fd5b82018360208201111561083857600080fd5b8035906020019184600183028401116401000000008311171561085a57600080fd5b91908080601f016020809104026020016040519081016040528093929190818152602001838380828437600081840152601f19601f82011690508083019250505050505050919291929080359060200190929190803590602001906401000000008111156108c757600080fd5b8201836020820111156108d957600080fd5b803590602001918460018302840111640100000000831117156108fb57600080fd5b91908080601f016020809104026020016040519081016040528093929190818152602001838380828437600081840152601f19601f8201169050808301925050505050505091929192908035906020019092919080359060200190929190803590602001909291905050506127db565b005b610a266004803603602081101561098357600080fd5b81019080803590602001906401000000008111156109a057600080fd5b8201836020820111156109b257600080fd5b803590602001918460018302840111640100000000831117156109d457600080fd5b91908080601f016020809104026020016040519081016040528093929190818152602001838380828437600081840152601f19601f820116905080830192505050505050509192919290505050612a33565b005b610a5460048036036020811015610a3e57600080fd5b8101908080359060200190929190505050612b9a565b005b610a8260048036036020811015610a6c57600080fd5b8101908080359060200190929190505050612c18565b005b610bd460048036036040811015610a9a57600080fd5b8101908080359060200190640100000000811115610ab757600080fd5b820183602082011115610ac957600080fd5b80359060200191846001830284011164010000000083111715610aeb57600080fd5b91908080601f016020809104026020016040519081016040528093929190818152602001838380828437600081840152601f19601f82011690508083019250505050505050919291929080359060200190640100000000811115610b4e57600080fd5b820183602082011115610b6057600080fd5b80359060200191846001830284011164010000000083111715610b8257600080fd5b91908080601f016020809104026020016040519081016040528093929190818152602001838380828437600081840152601f19601f820116905080830192505050505050509192919290505050612c96565b005b610c0260048036036020811015610bec57600080fd5b8101908080359060200190929190505050612e43565b005b348015610c1057600080fd5b50610c19612ec1565b604051808273ffffffffffffffffffffffffffffffffffffffff1673ffffffffffffffffffffffffffffffffffffffff16815260200191505060405180910390f35b348015610c6757600080fd5b50610c70612eea565b6040518082815260200191505060405180910390f35b610dfe600480360360c0811015610c9c57600080fd5b8101908080359060200190640100000000811115610cb957600080fd5b820183602082011115610ccb57600080fd5b80359060200191846001830284011164010000000083111715610ced57600080fd5b91908080601f016020809104026020016040519081016040528093929190818152602001838380828437600081840152601f19601f8201169050808301925050505050505091929192908035906020019092919080359060200190640100000000811115610d5a57600080fd5b820183602082011115610d6c57600080fd5b80359060200191846001830284011164010000000083111715610d8e57600080fd5b91908080601f016020809104026020016040519081016040528093929190818152602001838380828437600081840152601f19601f820116905080830192505050505050509192919290803590602001909291908035906020019092919080359060200190929190505050612ef7565b005b348015610e0c57600080fd5b50610e3960048036036020811015610e2357600080fd5b810190808035906020019092919050505061314f565b604051808060200180602001838103835285818151815260200191508051906020019080838360005b83811015610e7d578082015181840152602081019050610e62565b50505050905090810190601f168015610eaa5780820380516001836020036101000a031916815260200191505b50838103825284818151815260200191508051906020019080838360005b83811015610ee3578082015181840152602081019050610ec8565b50505050905090810190601f168015610f105780820380516001836020036101000a031916815260200191505b5094505050505060405180910390f35b348015610f2c57600080fd5b50610f3561330a565b60405180898152602001886004811115610f4b57fe5b60ff1681526020018060200187815260200180602001868152602001858152602001848152602001838103835289818151815260200191508051906020019080838360005b83811015610fab578082015181840152602081019050610f90565b50505050905090810190601f168015610fd85780820380516001836020036101000a031916815260200191505b50838103825287818151815260200191508051906020019080838360005b83811015611011578082015181840152602081019050610ff6565b50505050905090810190601f16801561103e5780820380516001836020036101000a031916815260200191505b509a505050505050505050505060405180910390f35b34801561106057600080fd5b5061108d6004803603602081101561107757600080fd5b810190808035906020019092919050505061347d565b6040518080602001828103825283818151815260200191508051906020019080838360005b838110156110cd5780820151818401526020810190506110b2565b50505050905090810190601f1680156110fa5780820380516001836020036101000a031916815260200191505b509250505060405180910390f35b6111c16004803603602081101561111e57600080fd5b810190808035906020019064010000000081111561113b57600080fd5b82018360208201111561114d57600080fd5b8035906020019184600183028401116401000000008311171561116f57600080fd5b91908080601f016020809104026020016040519081016040528093929190818152602001838380828437600081840152601f19601f820116905080830192505050505050509192919290505050613556565b005b3480156111cf57600080fd5b506111d86135d9565b6040518082815260200191505060405180910390f35b3480156111fa57600080fd5b506112036135e6565b6040518080602001828103825283818151815260200191508051906020019080838360005b83811015611243578082015181840152602081019050611228565b50505050905090810190601f1680156112705780820380516001836020036101000a031916815260200191505b509250505060405180910390f35b6113ce6004803603604081101561129457600080fd5b81019080803590602001906401000000008111156112b157600080fd5b8201836020820111156112c357600080fd5b803590602001918460018302840111640100000000831117156112e557600080fd5b91908080601f016020809104026020016040519081016040528093929190818152602001838380828437600081840152601f19601f8201169050808301925050505050505091929192908035906020019064010000000081111561134857600080fd5b82018360208201111561135a57600080fd5b8035906020019184600183028401116401000000008311171561137c57600080fd5b91908080601f016020809104026020016040519081016040528093929190818152602001838380828437600081840152601f19601f82011690508083019250505050505050919291929050505061390c565b005b611534600480360360808110156113e657600080fd5b810190808035906020019064010000000081111561140357600080fd5b82018360208201111561141557600080fd5b8035906020019184600183028401116401000000008311171561143757600080fd5b91908080601f016020809104026020016040519081016040528093929190818152602001838380828437600081840152601f19601f82011690508083019250505050505050919291929080359060200190929190803590602001906401000000008111156114a457600080fd5b8201836020820111156114b657600080fd5b803590602001918460018302840111640100000000831117156114d857600080fd5b91908080601f016020809104026020016040519081016040528093929190818152602001838380828437600081840152601f19601f82011690508083019250505050505050919291929080359060200190929190505050613aae565b005b34801561154257600080fd5b5061154b613d05565b604051808060200180602001838103835285818151815260200191508051906020019080838360005b8381101561158f578082015181840152602081019050611574565b50505050905090810190601f1680156115bc5780820380516001836020036101000a031916815260200191505b50838103825284818151815260200191508051906020019080838360005b838110156115f55780820151818401526020810190506115da565b50505050905090810190601f1680156116225780820380516001836020036101000a031916815260200191505b5094505050505060405180910390f35b6116726004803603606081101561164857600080fd5b81019080803590602001909291908035906020019092919080359060200190929190505050613e47565b005b6117376004803603604081101561168a57600080fd5b8101908080359060200190929190803590602001906401000000008111156116b157600080fd5b8201836020820111156116c357600080fd5b803590602001918460018302840111640100000000831117156116e557600080fd5b91908080601f016020809104026020016040519081016040528093929190818152602001838380828437600081840152601f19601f820116905080830192505050505050509192919290505050613ec7565b005b61189d6004803603608081101561174f57600080fd5b810190808035906020019064010000000081111561176c57600080fd5b82018360208201111561177e57600080fd5b803590602001918460018302840111640100000000831117156117a057600080fd5b91908080601f016020809104026020016040519081016040528093929190818152602001838380828437600081840152601f19601f820116905080830192505050505050509192919290803590602001909291908035906020019064010000000081111561180d57600080fd5b82018360208201111561181f57600080fd5b8035906020019184600183028401116401000000008311171561184157600080fd5b91908080601f016020809104026020016040519081016040528093929190818152602001838380828437600081840152601f19601f82011690508083019250505050505050919291929080359060200190929190505050614055565b005b3480156118ab57600080fd5b506118b46142ac565b604051808060200180602001838103835285818151815260200191508051906020019080838360005b838110156118f85780820151818401526020810190506118dd565b50505050905090810190601f1680156119255780820380516001836020036101000a031916815260200191505b50838103825284818151815260200191508051906020019080838360005b8381101561195e578082015181840152602081019050611943565b50505050905090810190601f16801561198b5780820380516001836020036101000a031916815260200191505b5094505050505060405180910390f35b611aeb600480360360408110156119b157600080fd5b81019080803590602001906401000000008111156119ce57600080fd5b8201836020820111156119e057600080fd5b80359060200191846001830284011164010000000083111715611a0257600080fd5b91908080601f016020809104026020016040519081016040528093929190818152602001838380828437600081840152601f19601f82011690508083019250505050505050919291929080359060200190640100000000811115611a6557600080fd5b820183602082011115611a7757600080fd5b80359060200191846001830284011164010000000083111715611a9957600080fd5b91908080601f016020809104026020016040519081016040528093929190818152602001838380828437600081840152601f19601f820116905080830192505050505050509192919290505050614363565b005b611b1960048036036020811015611b0357600080fd5b8101908080359060200190929190505050614431565b005b6060611b2561467b565b60118381548110611b3257fe5b9060005260206000209060020201604051806040016040529081600082018054600181600116156101000203166002900480601f016020809104026020016040519081016040528092919081815260200182805460018160011615610100020316600290048015611be45780601f10611bb957610100808354040283529160200191611be4565b820191906000526020600020905b815481529060010190602001808311611bc757829003601f168201915b50505050508152602001600182018054600181600116156101000203166002900480601f016020809104026020016040519081016040528092919081815260200182805460018160011615610100020316600290048015611c865780601f10611c5b57610100808354040283529160200191611c86565b820191906000526020600020905b815481529060010190602001808311611c6957829003601f168201915b505050505081525050905060608160000151905060606040518060400160405280600281526020017f2c200000000000000000000000000000000000000000000000000000000000008152509050606083602001519050606081518351855101016040519080825280601f01601f191660200182016040528015611d195781602001600182028038833980820191505090505b509050600080600090505b8551811015611d9257858181518110611d3957fe5b602001015160f81c60f81b838380600101945081518110611d5657fe5b60200101907effffffffffffffffffffffffffffffffffffffffffffffffffffffffffffff1916908160001a9053508080600101915050611d24565b600090505b8451811015611e0557848181518110611dac57fe5b602001015160f81c60f81b838380600101945081518110611dc957fe5b60200101907effffffffffffffffffffffffffffffffffffffffffffffffffffffffffffff1916908160001a9053508080600101915050611d97565b600090505b8351811015611e7857838181518110611e1f57fe5b602001015160f81c60f81b838380600101945081518110611e3c57fe5b60200101907effffffffffffffffffffffffffffffffffffffffffffffffffffffffffffff1916908160001a9053508080600101915050611e0a565b82975050505050505050919050565b6000809054906101000a900473ffffffffffffffffffffffffffffffffffffffff168073ffffffffffffffffffffffffffffffffffffffff163373ffffffffffffffffffffffffffffffffffffffff1614611ee157600080fd5b8460008110158015611ef7575060108054905081105b611f0057600080fd5b606060108781548110611f0f57fe5b90600052602060002090600302016001018054600181600116156101000203166002900480601f016020809104026020016040519081016040528092919081815260200182805460018160011615610100020316600290048015611fb45780601f10611f8957610100808354040283529160200191611fb4565b820191906000526020600020905b815481529060010190602001808311611f9757829003601f168201915b50505050509050611fcc600389898960008a8a6144af565b7f69e5d6c0269eeb585a250f06432b1fe384b20484d985c1d72ff2a1196567274d8882604051808060200180602001838103835285818151815260200191508051906020019080838360005b83811015612033578082015181840152602081019050612018565b50505050905090810190601f1680156120605780820380516001836020036101000a031916815260200191505b50838103825284818151815260200191508051906020019080838360005b8381101561209957808201518184015260208101905061207e565b50505050905090810190601f1680156120c65780820380516001836020036101000a031916815260200191505b5094505050505060405180910390a15050505050505050565b6000809054906101000a900473ffffffffffffffffffffffffffffffffffffffff168073ffffffffffffffffffffffffffffffffffffffff163373ffffffffffffffffffffffffffffffffffffffff161461213957600080fd5b6000809054906101000a900473ffffffffffffffffffffffffffffffffffffffff1673ffffffffffffffffffffffffffffffffffffffff168273ffffffffffffffffffffffffffffffffffffffff16141561219357600080fd5b816000806101000a81548173ffffffffffffffffffffffffffffffffffffffff021916908373ffffffffffffffffffffffffffffffffffffffff1602179055505050565b6000606080606080606060008088600081101580156121fa5750600f8054905081105b61220357600080fd5b61220b614695565b600f8b8154811061221857fe5b906000526020600020906009020160405180610120016040529081600082015481526020016001820160009054906101000a900460ff16600481111561225a57fe5b600481111561226557fe5b8152602001600282018054600181600116156101000203166002900480601f0160208091040260200160405190810160405280929190818152602001828054600181600116156101000203166002900480156123025780601f106122d757610100808354040283529160200191612302565b820191906000526020600020905b8154815290600101906020018083116122e557829003601f168201915b5050505050815260200160038201548152602001600482018054600181600116156101000203166002900480601f0160208091040260200160405190810160405280929190818152602001828054600181600116156101000203166002900480156123ae5780601f10612383576101008083540402835291602001916123ae565b820191906000526020600020905b81548152906001019060200180831161239157829003601f168201915b5050505050815260200160058201548152602001600682015481526020016007820154815260200160088201805480602002602001604051908101604052809291908181526020016000905b828210156124b6578382906000526020600020018054600181600116156101000203166002900480601f0160208091040260200160405190810160405280929190818152602001828054600181600116156101000203166002900480156124a25780601f10612477576101008083540402835291602001916124a2565b820191906000526020600020905b81548152906001019060200180831161248557829003601f168201915b5050505050815260200190600101906123fa565b50505050815250509050606060108260600151815481106124d357fe5b90600052602060002090600302016001018054600181600116156101000203166002900480601f0160208091040260200160405190810160405280929190818152602001828054600181600116156101000203166002900480156125785780601f1061254d57610100808354040283529160200191612578565b820191906000526020600020905b81548152906001019060200180831161255b57829003601f168201915b505050505090506060601083606001518154811061259257fe5b90600052602060002090600302016002018054600181600116156101000203166002900480601f0160208091040260200160405190810160405280929190818152602001828054600181600116156101000203166002900480156126375780601f1061260c57610100808354040283529160200191612637565b820191906000526020600020905b81548152906001019060200180831161261a57829003601f168201915b50505050509050606061264d8460a00151611b1b565b90508360200151846040015184848760800151858960c001518a60e001518696508393509c509c509c509c509c509c509c509c505050505050919395975091939597565b600d60009054906101000a900460ff1681565b80600081101580156126ba5750600f8054905081105b6126c357600080fd5b6000809054906101000a900473ffffffffffffffffffffffffffffffffffffffff168073ffffffffffffffffffffffffffffffffffffffff163373ffffffffffffffffffffffffffffffffffffffff161461271d57600080fd5b505050565b600e818154811061272f57fe5b906000526020600020016000915090508054600181600116156101000203166002900480601f0160208091040260200160405190810160405280929190818152602001828054600181600116156101000203166002900480156127d35780601f106127a8576101008083540402835291602001916127d3565b820191906000526020600020905b8154815290600101906020018083116127b657829003601f168201915b505050505081565b6000809054906101000a900473ffffffffffffffffffffffffffffffffffffffff168073ffffffffffffffffffffffffffffffffffffffff163373ffffffffffffffffffffffffffffffffffffffff161461283557600080fd5b856000811015801561284b575060108054905081105b61285457600080fd5b60606010888154811061286357fe5b90600052602060002090600302016001018054600181600116156101000203166002900480601f0160208091040260200160405190810160405280929190818152602001828054600181600116156101000203166002900480156129085780601f106128dd57610100808354040283529160200191612908565b820191906000526020600020905b8154815290600101906020018083116128eb57829003601f168201915b5050505050905061291f60018a8a8a8a8a8a6144af565b7f73d27cf8672b55d7a27fc0ebecc2c0a6100941770edeeb33d105b8ac26c512c98982604051808060200180602001838103835285818151815260200191508051906020019080838360005b8381101561298657808201518184015260208101905061296b565b50505050905090810190601f1680156129b35780820380516001836020036101000a031916815260200191505b50838103825284818151815260200191508051906020019080838360005b838110156129ec5780820151818401526020810190506129d1565b50505050905090810190601f168015612a195780820380516001836020036101000a031916815260200191505b5094505050505060405180910390a1505050505050505050565b6000809054906101000a900473ffffffffffffffffffffffffffffffffffffffff168073ffffffffffffffffffffffffffffffffffffffff163373ffffffffffffffffffffffffffffffffffffffff1614612a8d57600080fd5b60006012836040518082805190602001908083835b60208310612ac55780518252602082019150602081019050602083039250612aa2565b6001836020036101000a038019825116818451168082178552505050505050905001915050908152602001604051809103902054905060008114612b0557fe5b600e8181548110612b1257fe5b906000526020600020016000612b2891906146ec565b6012836040518082805190602001908083835b60208310612b5e5780518252602082019150602081019050602083039250612b3b565b6001836020036101000a038019825116818451168082178552505050505050905001915050908152602001604051809103902060009055505050565b8060008110158015612bb0575060108054905081105b612bb957600080fd5b6000809054906101000a900473ffffffffffffffffffffffffffffffffffffffff168073ffffffffffffffffffffffffffffffffffffffff163373ffffffffffffffffffffffffffffffffffffffff1614612c1357600080fd5b505050565b8060008110158015612c2e5750600f8054905081105b612c3757600080fd5b6000809054906101000a900473ffffffffffffffffffffffffffffffffffffffff168073ffffffffffffffffffffffffffffffffffffffff163373ffffffffffffffffffffffffffffffffffffffff1614612c9157600080fd5b505050565b6000809054906101000a900473ffffffffffffffffffffffffffffffffffffffff168073ffffffffffffffffffffffffffffffffffffffff163373ffffffffffffffffffffffffffffffffffffffff1614612cf057600080fd5b60006010805490509050612d02614734565b604051806060016040528083815260200186815260200185815250905060108190806001815401808255809150509060018203906000526020600020906003020160009091929091909150600082015181600001556020820151816001019080519060200190612d73929190614755565b506040820151816002019080519060200190612d90929190614755565b505050507f0f0a8ca77f40d3beb3a5c3b9a9abdfbfe3786ef0f5508d39ff1251089ff6a5b98282602001516040518083815260200180602001828103825283818151815260200191508051906020019080838360005b83811015612e01578082015181840152602081019050612de6565b50505050905090810190601f168015612e2e5780820380516001836020036101000a031916815260200191505b50935050505060405180910390a15050505050565b8060008110158015612e595750600f8054905081105b612e6257600080fd5b6000809054906101000a900473ffffffffffffffffffffffffffffffffffffffff168073ffffffffffffffffffffffffffffffffffffffff163373ffffffffffffffffffffffffffffffffffffffff1614612ebc57600080fd5b505050565b60008060009054906101000a900473ffffffffffffffffffffffffffffffffffffffff16905090565b6000601080549050905090565b6000809054906101000a900473ffffffffffffffffffffffffffffffffffffffff168073ffffffffffffffffffffffffffffffffffffffff163373ffffffffffffffffffffffffffffffffffffffff1614612f5157600080fd5b8560008110158015612f67575060108054905081105b612f7057600080fd5b606060108881548110612f7f57fe5b90600052602060002090600302016001018054600181600116156101000203166002900480601f0160208091040260200160405190810160405280929190818152602001828054600181600116156101000203166002900480156130245780601f10612ff957610100808354040283529160200191613024565b820191906000526020600020905b81548152906001019060200180831161300757829003601f168201915b5050505050905061303b60008a8a8a8a8a8a6144af565b7ffe4a3dfb2502660cba58dc3f7334dbf8b950e589ebacbb0445057efb785e8b9e8982604051808060200180602001838103835285818151815260200191508051906020019080838360005b838110156130a2578082015181840152602081019050613087565b50505050905090810190601f1680156130cf5780820380516001836020036101000a031916815260200191505b50838103825284818151815260200191508051906020019080838360005b838110156131085780820151818401526020810190506130ed565b50505050905090810190601f1680156131355780820380516001836020036101000a031916815260200191505b5094505050505060405180910390a1505050505050505050565b6060808260008110158015613168575060108054905081105b61317157600080fd5b613179614734565b6010858154811061318657fe5b906000526020600020906003020160405180606001604052908160008201548152602001600182018054600181600116156101000203166002900480601f0160208091040260200160405190810160405280929190818152602001828054600181600116156101000203166002900480156132425780601f1061321757610100808354040283529160200191613242565b820191906000526020600020905b81548152906001019060200180831161322557829003601f168201915b50505050508152602001600282018054600181600116156101000203166002900480601f0160208091040260200160405190810160405280929190818152602001828054600181600116156101000203166002900480156132e45780601f106132b9576101008083540402835291602001916132e4565b820191906000526020600020905b8154815290600101906020018083116132c757829003601f168201915b505050505081525050905080602001518160400151819150809050935093505050915091565b60048060000154908060010160009054906101000a900460ff1690806002018054600181600116156101000203166002900480601f0160208091040260200160405190810160405280929190818152602001828054600181600116156101000203166002900480156133bd5780601f10613392576101008083540402835291602001916133bd565b820191906000526020600020905b8154815290600101906020018083116133a057829003601f168201915b505050505090806003015490806004018054600181600116156101000203166002900480601f0160208091040260200160405190810160405280929190818152602001828054600181600116156101000203166002900480156134615780601f1061343657610100808354040283529160200191613461565b820191906000526020600020905b81548152906001019060200180831161344457829003601f168201915b5050505050908060050154908060060154908060070154905088565b606081600081101580156134955750600e8054905081105b61349e57600080fd5b600e83815481106134ab57fe5b906000526020600020018054600181600116156101000203166002900480601f0160208091040260200160405190810160405280929190818152602001828054600181600116156101000203166002900480156135495780601f1061351e57610100808354040283529160200191613549565b820191906000526020600020905b81548152906001019060200180831161352c57829003601f168201915b5050505050915050919050565b6000809054906101000a900473ffffffffffffffffffffffffffffffffffffffff168073ffffffffffffffffffffffffffffffffffffffff163373ffffffffffffffffffffffffffffffffffffffff16146135b057600080fd5b60008251116135be57600080fd5b81600190805190602001906135d49291906147d5565b505050565b6000600f80549050905090565b60608060026000018054600181600116156101000203166002900480601f0160208091040260200160405190810160405280929190818152602001828054600181600116156101000203166002900480156136825780601f1061365757610100808354040283529160200191613682565b820191906000526020600020905b81548152906001019060200180831161366557829003601f168201915b5050505050905060606040518060400160405280600281526020017f2c200000000000000000000000000000000000000000000000000000000000008152509050606060026001018054600181600116156101000203166002900480601f01602080910402602001604051908101604052809291908181526020018280546001816001161561010002031660029004801561375e5780601f106137335761010080835404028352916020019161375e565b820191906000526020600020905b81548152906001019060200180831161374157829003601f168201915b50505050509050606081518351855101016040519080825280601f01601f1916602001820160405280156137a15781602001600182028038833980820191505090505b509050600080600090505b855181101561381a578581815181106137c157fe5b602001015160f81c60f81b8383806001019450815181106137de57fe5b60200101907effffffffffffffffffffffffffffffffffffffffffffffffffffffffffffff1916908160001a90535080806001019150506137ac565b600090505b845181101561388d5784818151811061383457fe5b602001015160f81c60f81b83838060010194508151811061385157fe5b60200101907effffffffffffffffffffffffffffffffffffffffffffffffffffffffffffff1916908160001a905350808060010191505061381f565b600090505b8351811015613900578381815181106138a757fe5b602001015160f81c60f81b8383806001019450815181106138c457fe5b60200101907effffffffffffffffffffffffffffffffffffffffffffffffffffffffffffff1916908160001a9053508080600101915050613892565b82965050505050505090565b6000809054906101000a900473ffffffffffffffffffffffffffffffffffffffff168073ffffffffffffffffffffffffffffffffffffffff163373ffffffffffffffffffffffffffffffffffffffff161461396657600080fd5b60008351118015613978575060008251115b61398157600080fd5b60116040518060400160405280858152602001848152509080600181540180825580915050906001820390600052602060002090600202016000909192909190915060008201518160000190805190602001906139df929190614755565b5060208201518160010190805190602001906139fc929190614755565b505050507f1a9d13975e05fcdd633f8e758f6379d22a2b9348a9da332b1e142d1f295f7666601180549050836040518083815260200180602001828103825283818151815260200191508051906020019080838360005b83811015613a6e578082015181840152602081019050613a53565b50505050905090810190601f168015613a9b5780820380516001836020036101000a031916815260200191505b50935050505060405180910390a1505050565b6000809054906101000a900473ffffffffffffffffffffffffffffffffffffffff168073ffffffffffffffffffffffffffffffffffffffff163373ffffffffffffffffffffffffffffffffffffffff1614613b0857600080fd5b8360008110158015613b1e575060108054905081105b613b2757600080fd5b606060108681548110613b3657fe5b90600052602060002090600302016001018054600181600116156101000203166002900480601f016020809104026020016040519081016040528092919081815260200182805460018160011615610100020316600290048015613bdb5780601f10613bb057610100808354040283529160200191613bdb565b820191906000526020600020905b815481529060010190602001808311613bbe57829003601f168201915b50505050509050613bf360048888886000898a6144af565b7f996711e7fbfd36e4f538cb265a1e2330c19e786b3b73621c1b39c8610c7bbd8f8782604051808060200180602001838103835285818151815260200191508051906020019080838360005b83811015613c5a578082015181840152602081019050613c3f565b50505050905090810190601f168015613c875780820380516001836020036101000a031916815260200191505b50838103825284818151815260200191508051906020019080838360005b83811015613cc0578082015181840152602081019050613ca5565b50505050905090810190601f168015613ced5780820380516001836020036101000a031916815260200191505b5094505050505060405180910390a150505050505050565b6002806000018054600181600116156101000203166002900480601f016020809104026020016040519081016040528092919081815260200182805460018160011615610100020316600290048015613d9f5780601f10613d7457610100808354040283529160200191613d9f565b820191906000526020600020905b815481529060010190602001808311613d8257829003601f168201915b505050505090806001018054600181600116156101000203166002900480601f016020809104026020016040519081016040528092919081815260200182805460018160011615610100020316600290048015613e3d5780601f10613e1257610100808354040283529160200191613e3d565b820191906000526020600020905b815481529060010190602001808311613e2057829003601f168201915b5050505050905082565b8260008110158015613e5d5750600f8054905081105b613e6657600080fd5b6000809054906101000a900473ffffffffffffffffffffffffffffffffffffffff168073ffffffffffffffffffffffffffffffffffffffff163373ffffffffffffffffffffffffffffffffffffffff1614613ec057600080fd5b5050505050565b8160008110158015613edd5750600f8054905081105b613ee657600080fd5b6000809054906101000a900473ffffffffffffffffffffffffffffffffffffffff168073ffffffffffffffffffffffffffffffffffffffff163373ffffffffffffffffffffffffffffffffffffffff1614613f4057600080fd5b6000600f8581548110613f4f57fe5b9060005260206000209060090201905080600801849080600181540180825580915050906001820390600052602060002001600090919290919091509080519060200190613f9e9291906147d5565b50507f2fbad007a1eb94ba3b709eecb3b46c43d13a9f3e19e1231b631be78fc369c8278460018360080180549050036040518080602001838152602001828103825284818151815260200191508051906020019080838360005b83811015614013578082015181840152602081019050613ff8565b50505050905090810190601f1680156140405780820380516001836020036101000a031916815260200191505b50935050505060405180910390a15050505050565b6000809054906101000a900473ffffffffffffffffffffffffffffffffffffffff168073ffffffffffffffffffffffffffffffffffffffff163373ffffffffffffffffffffffffffffffffffffffff16146140af57600080fd5b83600081101580156140c5575060108054905081105b6140ce57600080fd5b6060601086815481106140dd57fe5b90600052602060002090600302016001018054600181600116156101000203166002900480601f0160208091040260200160405190810160405280929190818152602001828054600181600116156101000203166002900480156141825780601f1061415757610100808354040283529160200191614182565b820191906000526020600020905b81548152906001019060200180831161416557829003601f168201915b5050505050905061419a60028888886000808a6144af565b7fd4ad1f88c8346685d1e0bc3bd7b7971ff1efa55c29da50b2ab302445b92ba3f68782604051808060200180602001838103835285818151815260200191508051906020019080838360005b838110156142015780820151818401526020810190506141e6565b50505050905090810190601f16801561422e5780820380516001836020036101000a031916815260200191505b50838103825284818151815260200191508051906020019080838360005b8381101561426757808201518184015260208101905061424c565b50505050905090810190601f1680156142945780820380516001836020036101000a031916815260200191505b5094505050505060405180910390a150505050505050565b60608060606142b96135e6565b9050600181818054600181600116156101000203166002900480601f0160208091040260200160405190810160405280929190818152602001828054600181600116156101000203166002900480156143535780601f1061432857610100808354040283529160200191614353565b820191906000526020600020905b81548152906001019060200180831161433657829003601f168201915b5050505050915092509250509091565b6000809054906101000a900473ffffffffffffffffffffffffffffffffffffffff168073ffffffffffffffffffffffffffffffffffffffff163373ffffffffffffffffffffffffffffffffffffffff16146143bd57600080fd5b600083511180156143cf575060008251115b6143d857600080fd5b6040518060400160405280848152602001838152506002600082015181600001908051906020019061440b929190614755565b506020820151816001019080519060200190614428929190614755565b50905050505050565b80600081101580156144475750600f8054905081105b61445057600080fd5b6000809054906101000a900473ffffffffffffffffffffffffffffffffffffffff168073ffffffffffffffffffffffffffffffffffffffff163373ffffffffffffffffffffffffffffffffffffffff16146144aa57600080fd5b505050565b6000809054906101000a900473ffffffffffffffffffffffffffffffffffffffff168073ffffffffffffffffffffffffffffffffffffffff163373ffffffffffffffffffffffffffffffffffffffff161461450957600080fd5b856000811015801561451f575060108054905081105b61452857600080fd5b60606000600f80549050905061453c614695565b6040518061012001604052808381526020018d600481111561455a57fe5b81526020018c81526020018b81526020018a8152602001898152602001888152602001878152602001848152509050600f81908060018154018082558091505090600182039060005260206000209060090201600090919290919091506000820151816000015560208201518160010160006101000a81548160ff021916908360048111156145e557fe5b02179055506040820151816002019080519060200190614606929190614755565b5060608201518160030155608082015181600401908051906020019061462d929190614755565b5060a0820151816005015560c0820151816006015560e08201518160070155610100820151816008019080519060200190614669929190614855565b50505050505050505050505050505050565b604051806040016040528060608152602001606081525090565b60405180610120016040528060008152602001600060048111156146b557fe5b8152602001606081526020016000815260200160608152602001600081526020016000815260200160008152602001606081525090565b50805460018160011615610100020316600290046000825580601f106147125750614731565b601f01602090049060005260206000209081019061473091906148b5565b5b50565b60405180606001604052806000815260200160608152602001606081525090565b828054600181600116156101000203166002900490600052602060002090601f016020900481019282601f1061479657805160ff19168380011785556147c4565b828001600101855582156147c4579182015b828111156147c35782518255916020019190600101906147a8565b5b5090506147d191906148b5565b5090565b828054600181600116156101000203166002900490600052602060002090601f016020900481019282601f1061481657805160ff1916838001178555614844565b82800160010185558215614844579182015b82811115614843578251825591602001919060010190614828565b5b50905061485191906148b5565b5090565b8280548282559060005260206000209081019282156148a4579160200282015b828111156148a3578251829080519060200190614893929190614755565b5091602001919060010190614875565b5b5090506148b191906148da565b5090565b6148d791905b808211156148d35760008160009055506001016148bb565b5090565b90565b61490391905b808211156148ff57600081816148f691906146ec565b506001016148e0565b5090565b9056fea165627a7a72305820e9eab30ad802b37fcf00394d6b862a8e6a42eda7b8fa55d5af227b8f092f41a80029",
  "source": "pragma solidity >=0.4.0 <0.7.0;\n\ncontract Resume {\n\n  address private owner = msg.sender;\n  string private name;\n  Location public locale;\n  Occupation public profession;\n  string constant seperator = \", \";\n  Availability public status;\n  string[] public skills;\n  Occupation[] experience;\n  Entity[] Entities;\n  Location[] locations;\n  \n  mapping(string => uint) availableSkills;\n\n  enum Availability {\n    Unavilable,\n    Unemployed,\n    Seeking,\n    Employed\n  }\n\n  enum Level {\n    Attendee,\n    Participant,\n    Certified,\n    License,\n    Diploma,\n    Bachelors,\n    Masters,\n    Doctorates\n  }\n\n  enum RoleType {\n    Professional,\n    Education,\n    Award,\n    Community,\n    Publication\n  }\n\n  struct Occupation {\n    uint index;\n    RoleType role;\n    string title;\n    uint employer_index;\n    string description;\n    uint location_index;\n    uint start_date;\n    uint end_date;\n    string[] skills;\n  }\n\n  struct Entity {\n    uint index;\n    string name;\n    string thumb;\n  }\n\n  struct Location {\n    string city;\n    string country;\n  }\n\n  event EducationListed(string title, string entityName);\n  event PublicationListed(string title, string entityName);\n  event OccupationListed(string title, string entityName);\n  event CommunityListed(string title, string entityName);\n  event AwardListed(string title, string entityName);\n  event OccupationChanged(uint atIndex, string fields);\n  event OccupationRemoved(string title);\n  event OccupationSet(uint id, string title);\n  event EntityCreated(uint atIndex, string name);\n  event ListedSkill(string skill, uint index);\n  event LocationListed(uint atIndex, string location);\n\n  modifier onlyBy(address account) {\n    // Check if caller address matches owner address\n    require(msg.sender == account);\n    _;\n  }\n\n  modifier whenOccupationExists(uint atIndex) {\n    // Check if the occupation exists at the specified index\n    require(atIndex >= 0 && atIndex < experience.length);\n    _;\n  }\n\n  modifier whenEntityExists(uint atIndex) {\n    // Check if the Entity exists within the range\n    require(atIndex >= 0 && atIndex < Entities.length);\n    _;\n  }\n\n  modifier whenSkillExists(uint atIndex) {\n    // Check skill index is within bounds\n    require(atIndex >= 0 && atIndex < skills.length);\n    _;\n  }\n\n  modifier whenUniqueSkill(string memory skill) {\n    // Check if the skill already listed\n    require(availableSkills[skill] == 0x0);\n    _;\n  }\n\n  function setOwner(address newOwner) public onlyBy(owner) {\n    require(newOwner != owner);\n    owner = newOwner;\n  }\n\n  function getOwner() public view returns (address) {\n    return owner;\n  }\n\n  function setName(string memory newName) public onlyBy(owner) payable {\n    require(bytes(newName).length > 0);\n    name = newName;\n  }\n\n  function setLocation(string memory city, string memory country) public onlyBy(owner) payable {\n    require(bytes(city).length > 0 && bytes(country).length > 0);\n    locale = Location(city, country);\n  }\n\n  function addLocation(string memory city, string memory country) public onlyBy(owner) payable {\n    require(bytes(city).length > 0 && bytes(country).length > 0);\n    locations.push(Location(city, country));\n    emit LocationListed(locations.length, country);\n  }\n\n  function getDetails() public view returns (string memory, string memory) {\n    string memory location = getLocation();\n    return (name, location);\n  }\n\n  function getLocation() public view returns (string memory) {\n    bytes memory city = bytes(locale.city);\n    bytes memory divider = bytes(seperator);\n    bytes memory country = bytes(locale.country);\n    bytes memory temp = new bytes(city.length + divider.length + country.length);\n\n    uint counter;\n    uint index;\n    for (index = 0; index < city.length; index++) {\n      temp[counter++] = city[index];\n    }\n    for (index = 0; index < divider.length; index++) {\n      temp[counter++] = divider[index];\n    }\n    for (index = 0; index < country.length; index++) {\n      temp[counter++] = country[index];\n    }\n\n    return string(temp);\n  }\n\n  function getLocationAtIndex(uint atIndex) public view returns (string memory) {\n    Location memory loc = locations[atIndex];\n    bytes memory city = bytes(loc.city);\n    bytes memory divider = bytes(seperator);\n    bytes memory country = bytes(loc.country);\n    bytes memory temp = new bytes(city.length + divider.length + country.length);\n\n    uint counter;\n    uint index;\n    for (index = 0; index < city.length; index++) {\n      temp[counter++] = city[index];\n    }\n    for (index = 0; index < divider.length; index++) {\n      temp[counter++] = divider[index];\n    }\n    for (index = 0; index < country.length; index++) {\n      temp[counter++] = country[index];\n    }\n\n    return string(temp);\n  }\n\n  function addPublication(string memory title, uint entityIndex, string memory description, uint endDate) public onlyBy(owner) whenEntityExists(entityIndex) payable {\n    string memory entityName = Entities[entityIndex].name;\n    addItem(RoleType.Publication, title, entityIndex, description, 0, endDate, endDate);\n    emit PublicationListed(title, entityName);\n  }\n\n  function addEducation(string memory title, uint entityIndex, string memory description,  uint locationIndex, uint startDate, uint endDate) public onlyBy(owner) whenEntityExists(entityIndex) payable {\n    string memory entityName = Entities[entityIndex].name;\n    addItem(RoleType.Education, title, entityIndex, description, locationIndex, startDate, endDate);\n    emit EducationListed(title, entityName);\n  }\n\n  function addOccupation(string memory title, uint entityIndex, string memory description,  uint locationIndex, uint startDate, uint endDate) public onlyBy(owner) whenEntityExists(entityIndex) payable {\n    string memory entityName = Entities[entityIndex].name;\n    addItem(RoleType.Professional, title, entityIndex, description, locationIndex, startDate, endDate);\n    emit OccupationListed(title, entityName);\n  }\n\n  function addCommunity(string memory title, uint entityIndex, string memory description,  uint startDate, uint endDate) public onlyBy(owner) whenEntityExists(entityIndex) payable {\n    string memory entityName = Entities[entityIndex].name;\n    addItem(RoleType.Community, title, entityIndex, description, 0, startDate, endDate);\n    emit CommunityListed(title, entityName);\n  }\n\n  function addAward(string memory title, uint entityIndex, string memory description,  uint endDate) public onlyBy(owner) whenEntityExists(entityIndex) payable {\n    string memory entityName = Entities[entityIndex].name;\n    addItem(RoleType.Award, title, entityIndex, description, 0, 0, endDate);\n    emit AwardListed(title, entityName);\n  }\n\n  function addItem(RoleType _type, string memory title, uint entityIndex, string memory description,  uint locationIndex, uint startDate, uint endDate) private onlyBy(owner) whenEntityExists(entityIndex) {\n    string[] memory skillList;\n    uint atIndex = experience.length;\n    \n    // Construct occupation object\n    Occupation memory job = Occupation(atIndex, _type, title, entityIndex, description, locationIndex, startDate, endDate, skillList);\n    // List occupation object\n    experience.push(job);\n  }\n\n  function setOccupation(uint withIndex) public whenOccupationExists(withIndex) payable onlyBy(owner) {\n    // Set the position to the occupation index\n  }\n\n  function updateOccupation(uint atIndex) public whenOccupationExists(atIndex) payable onlyBy(owner) {\n    // Fetch the existing occupation at index\n    // Set fields which have changed\n      // Capture change field name\n    // Update the occupation at index\n    // Notify of field changes\n  }\n\n  function getOccupation(uint atIndex) public whenOccupationExists(atIndex) view returns (RoleType, string memory, string memory, string memory, string memory, string memory, uint, uint) {\n    // Fetch the occupation matching at the specified index\n    // Fetch the occupations location\n      // Stringify location into the format \"CITY, COUNTRY\"\n    // Search and replace skill identifiers to skill names\n      // Stringify skills with delimiter\n    // Return tuple of occupation data\n      // (title, employer, thumb, description, locationString, startDate, endDate, skillCollection);\n    Occupation memory job = experience[atIndex];\n    //Entity memory org = Entities[job.employer_index];\n    //Location memory geo = locations[job.location_index];\n    string memory entityName = Entities[job.employer_index].name;\n    string memory orgThumb = Entities[job.employer_index].thumb;\n    string memory roleLocation = getLocationAtIndex(job.location_index);\n    return (job.role, job.title, entityName, orgThumb, job.description, roleLocation, job.start_date, job.end_date);\n  }\n\n  function countOccupations() public view returns (uint) {\n    return experience.length;\n  }\n\n  function removeOccupation(uint atIndex) public whenOccupationExists(atIndex) payable onlyBy(owner) {\n    // Removes the occupation at index\n    // Sets position to previous index when removed occupation is current\n  }\n\n  function addEntity(string memory entityName, string memory thumb) public payable onlyBy(owner)  {\n    // Capture the next available index\n    uint index = Entities.length;\n    // Initialize a new Entity\n    Entity memory org = Entity(index, entityName, thumb);\n    // Store Entity and notify\n    Entities.push(org);\n    emit EntityCreated(index, org.name);\n  }\n\n  function updateEntity(uint withID) public whenOccupationExists(withID) payable onlyBy(owner) {\n\n  }\n\n  function removeEntity(uint withID) public whenEntityExists(withID) payable onlyBy(owner) {\n\n  }\n\n  function getEntity(uint atIndex) public whenEntityExists(atIndex) view returns (string memory, string memory) {\n    Entity memory result = Entities[atIndex];\n    return (result.name, result.thumb);\n  }\n\n  function countEntities() public view returns (uint) {\n    return Entities.length;\n  }\n\n  function updateOccupationTimeline(uint atIndex, uint startDate, uint endDate) public whenOccupationExists(atIndex) payable onlyBy(owner) {\n    // Validate startDate exists\n    // Ensure the endDate is greater than startDate\n    // If no endDate, cast to null or undefined\n    // Update state\n  }\n\n  function addSkill(uint atIndex, string memory skill) public whenOccupationExists(atIndex) payable onlyBy(owner) {\n    // Store skill and reference\n    Occupation storage occupation = experience[atIndex];\n    occupation.skills.push(skill);\n    // Broadcast listing\n    emit ListedSkill(skill, occupation.skills.length - 1);\n  }\n\n  function getSkill(uint atIndex) public whenSkillExists(atIndex) view returns (string memory) {\n    // Fetch skill at index\n    return skills[atIndex];\n  }\n\n  function removeSkill(string memory skill) public payable onlyBy(owner) {\n    uint atIndex = availableSkills[skill];\n    assert(atIndex == 0x0);\n    // Clear the skill and reference\n    delete skills[atIndex];\n    delete availableSkills[skill];\n  }\n}",
  "sourcePath": "/Users/mitchpierias/Developer/dapp-academy/contracts/Resume.sol",
  "compiler": {
    "name": "solc",
    "version": "0.5.8+commit.23d335f2.Emscripten.clang"
  },
  "schemaVersion": "3.0.16",
  "updatedAt": "2019-12-23T12:35:50.604Z",
  "devdoc": {
    "methods": {}
  },
  "userdoc": {
    "methods": {}
  }
}