{
  "contractName": "Resume",
  "abi": [
    {
      "constant": true,
      "inputs": [],
      "name": "status",
      "outputs": [
        {
          "name": "",
          "type": "uint8"
        }
      ],
      "payable": false,
      "stateMutability": "view",
      "type": "function"
    },
    {
      "constant": true,
      "inputs": [
        {
          "name": "",
          "type": "uint256"
        }
      ],
      "name": "skills",
      "outputs": [
        {
          "name": "",
          "type": "string"
        }
      ],
      "payable": false,
      "stateMutability": "view",
      "type": "function"
    },
    {
      "constant": true,
      "inputs": [],
      "name": "profession",
      "outputs": [
        {
          "name": "index",
          "type": "uint256"
        },
        {
          "name": "role",
          "type": "uint8"
        },
        {
          "name": "title",
          "type": "string"
        },
        {
          "name": "employer_index",
          "type": "uint256"
        },
        {
          "name": "description",
          "type": "string"
        },
        {
          "name": "location_index",
          "type": "uint256"
        },
        {
          "name": "start_date",
          "type": "uint256"
        },
        {
          "name": "end_date",
          "type": "uint256"
        }
      ],
      "payable": false,
      "stateMutability": "view",
      "type": "function"
    },
    {
      "constant": true,
      "inputs": [],
      "name": "locale",
      "outputs": [
        {
          "name": "city",
          "type": "string"
        },
        {
          "name": "country",
          "type": "string"
        }
      ],
      "payable": false,
      "stateMutability": "view",
      "type": "function"
    },
    {
      "anonymous": false,
      "inputs": [
        {
          "indexed": false,
          "name": "atIndex",
          "type": "uint256"
        },
        {
          "indexed": false,
          "name": "title",
          "type": "string"
        },
        {
          "indexed": false,
          "name": "organisation",
          "type": "string"
        }
      ],
      "name": "EducationListed",
      "type": "event"
    },
    {
      "anonymous": false,
      "inputs": [
        {
          "indexed": false,
          "name": "atIndex",
          "type": "uint256"
        },
        {
          "indexed": false,
          "name": "title",
          "type": "string"
        },
        {
          "indexed": false,
          "name": "organisation",
          "type": "string"
        }
      ],
      "name": "OccupationListed",
      "type": "event"
    },
    {
      "anonymous": false,
      "inputs": [
        {
          "indexed": false,
          "name": "atIndex",
          "type": "uint256"
        },
        {
          "indexed": false,
          "name": "fields",
          "type": "string"
        }
      ],
      "name": "OccupationChanged",
      "type": "event"
    },
    {
      "anonymous": false,
      "inputs": [
        {
          "indexed": false,
          "name": "title",
          "type": "string"
        }
      ],
      "name": "OccupationRemoved",
      "type": "event"
    },
    {
      "anonymous": false,
      "inputs": [
        {
          "indexed": false,
          "name": "id",
          "type": "uint256"
        },
        {
          "indexed": false,
          "name": "title",
          "type": "string"
        }
      ],
      "name": "OccupationSet",
      "type": "event"
    },
    {
      "anonymous": false,
      "inputs": [
        {
          "indexed": false,
          "name": "atIndex",
          "type": "uint256"
        },
        {
          "indexed": false,
          "name": "name",
          "type": "string"
        }
      ],
      "name": "OrganizationCreated",
      "type": "event"
    },
    {
      "anonymous": false,
      "inputs": [
        {
          "indexed": false,
          "name": "skill",
          "type": "string"
        },
        {
          "indexed": false,
          "name": "index",
          "type": "uint256"
        }
      ],
      "name": "ListedSkill",
      "type": "event"
    },
    {
      "constant": false,
      "inputs": [
        {
          "name": "newOwner",
          "type": "address"
        }
      ],
      "name": "setOwner",
      "outputs": [],
      "payable": false,
      "stateMutability": "nonpayable",
      "type": "function"
    },
    {
      "constant": true,
      "inputs": [],
      "name": "getOwner",
      "outputs": [
        {
          "name": "",
          "type": "address"
        }
      ],
      "payable": false,
      "stateMutability": "view",
      "type": "function"
    },
    {
      "constant": false,
      "inputs": [
        {
          "name": "newName",
          "type": "string"
        }
      ],
      "name": "setName",
      "outputs": [],
      "payable": true,
      "stateMutability": "payable",
      "type": "function"
    },
    {
      "constant": true,
      "inputs": [],
      "name": "getName",
      "outputs": [
        {
          "name": "",
          "type": "string"
        }
      ],
      "payable": false,
      "stateMutability": "view",
      "type": "function"
    },
    {
      "constant": false,
      "inputs": [
        {
          "name": "city",
          "type": "string"
        },
        {
          "name": "country",
          "type": "string"
        }
      ],
      "name": "setLocation",
      "outputs": [],
      "payable": true,
      "stateMutability": "payable",
      "type": "function"
    },
    {
      "constant": true,
      "inputs": [],
      "name": "getLocation",
      "outputs": [
        {
          "name": "",
          "type": "string"
        }
      ],
      "payable": false,
      "stateMutability": "view",
      "type": "function"
    },
    {
      "constant": false,
      "inputs": [
        {
          "name": "title",
          "type": "string"
        },
        {
          "name": "employerIndex",
          "type": "uint256"
        },
        {
          "name": "description",
          "type": "string"
        },
        {
          "name": "locationIndex",
          "type": "uint256"
        },
        {
          "name": "startDate",
          "type": "uint256"
        },
        {
          "name": "endDate",
          "type": "uint256"
        }
      ],
      "name": "addEducation",
      "outputs": [],
      "payable": true,
      "stateMutability": "payable",
      "type": "function"
    },
    {
      "constant": false,
      "inputs": [
        {
          "name": "title",
          "type": "string"
        },
        {
          "name": "employerIndex",
          "type": "uint256"
        },
        {
          "name": "description",
          "type": "string"
        },
        {
          "name": "locationIndex",
          "type": "uint256"
        },
        {
          "name": "startDate",
          "type": "uint256"
        },
        {
          "name": "endDate",
          "type": "uint256"
        }
      ],
      "name": "addOccupation",
      "outputs": [],
      "payable": true,
      "stateMutability": "payable",
      "type": "function"
    },
    {
      "constant": false,
      "inputs": [
        {
          "name": "withIndex",
          "type": "uint256"
        }
      ],
      "name": "setOccupation",
      "outputs": [],
      "payable": true,
      "stateMutability": "payable",
      "type": "function"
    },
    {
      "constant": false,
      "inputs": [
        {
          "name": "atIndex",
          "type": "uint256"
        }
      ],
      "name": "updateOccupation",
      "outputs": [],
      "payable": true,
      "stateMutability": "payable",
      "type": "function"
    },
    {
      "constant": true,
      "inputs": [
        {
          "name": "atIndex",
          "type": "uint256"
        }
      ],
      "name": "getOccupation",
      "outputs": [
        {
          "name": "",
          "type": "string"
        },
        {
          "name": "",
          "type": "string"
        },
        {
          "name": "",
          "type": "string"
        },
        {
          "name": "",
          "type": "string"
        },
        {
          "name": "",
          "type": "string"
        },
        {
          "name": "",
          "type": "uint256"
        },
        {
          "name": "",
          "type": "uint256"
        }
      ],
      "payable": false,
      "stateMutability": "view",
      "type": "function"
    },
    {
      "constant": true,
      "inputs": [],
      "name": "countOccupations",
      "outputs": [
        {
          "name": "",
          "type": "uint256"
        }
      ],
      "payable": false,
      "stateMutability": "view",
      "type": "function"
    },
    {
      "constant": false,
      "inputs": [
        {
          "name": "atIndex",
          "type": "uint256"
        }
      ],
      "name": "removeOccupation",
      "outputs": [],
      "payable": true,
      "stateMutability": "payable",
      "type": "function"
    },
    {
      "constant": false,
      "inputs": [
        {
          "name": "orgName",
          "type": "string"
        },
        {
          "name": "thumb",
          "type": "string"
        }
      ],
      "name": "addOrganization",
      "outputs": [],
      "payable": true,
      "stateMutability": "payable",
      "type": "function"
    },
    {
      "constant": false,
      "inputs": [
        {
          "name": "withID",
          "type": "uint256"
        }
      ],
      "name": "updateOrganization",
      "outputs": [],
      "payable": true,
      "stateMutability": "payable",
      "type": "function"
    },
    {
      "constant": false,
      "inputs": [
        {
          "name": "withID",
          "type": "uint256"
        }
      ],
      "name": "removeOrganization",
      "outputs": [],
      "payable": true,
      "stateMutability": "payable",
      "type": "function"
    },
    {
      "constant": true,
      "inputs": [
        {
          "name": "atIndex",
          "type": "uint256"
        }
      ],
      "name": "getOrganization",
      "outputs": [
        {
          "name": "",
          "type": "string"
        },
        {
          "name": "",
          "type": "string"
        }
      ],
      "payable": false,
      "stateMutability": "view",
      "type": "function"
    },
    {
      "constant": true,
      "inputs": [],
      "name": "countOrganizations",
      "outputs": [
        {
          "name": "",
          "type": "uint256"
        }
      ],
      "payable": false,
      "stateMutability": "view",
      "type": "function"
    },
    {
      "constant": false,
      "inputs": [
        {
          "name": "atIndex",
          "type": "uint256"
        },
        {
          "name": "startDate",
          "type": "uint256"
        },
        {
          "name": "endDate",
          "type": "uint256"
        }
      ],
      "name": "updateOccupationTimeline",
      "outputs": [],
      "payable": true,
      "stateMutability": "payable",
      "type": "function"
    },
    {
      "constant": false,
      "inputs": [
        {
          "name": "atIndex",
          "type": "uint256"
        },
        {
          "name": "skill",
          "type": "string"
        }
      ],
      "name": "addSkill",
      "outputs": [],
      "payable": true,
      "stateMutability": "payable",
      "type": "function"
    },
    {
      "constant": true,
      "inputs": [
        {
          "name": "atIndex",
          "type": "uint256"
        }
      ],
      "name": "getSkill",
      "outputs": [
        {
          "name": "",
          "type": "string"
        }
      ],
      "payable": false,
      "stateMutability": "view",
      "type": "function"
    },
    {
      "constant": false,
      "inputs": [
        {
          "name": "skill",
          "type": "string"
        }
      ],
      "name": "removeSkill",
      "outputs": [],
      "payable": true,
      "stateMutability": "payable",
      "type": "function"
    }
  ],
  "bytecode": "0x6080604052336000806101000a81548173ffffffffffffffffffffffffffffffffffffffff021916908373ffffffffffffffffffffffffffffffffffffffff16021790555034801561005057600080fd5b506136b4806100606000396000f3fe6080604052600436106101815760003560e01c8063a35eab0d116100d1578063cdd7a4961161008a578063ee3ee48011610064578063ee3ee4801461117b578063f7c342bb146111bd578063fe586c9a14611282578063ff618b53146113d457610181565b8063cdd7a49614610fc4578063ce2ce3fc14610fef578063ec7bb03b1461107f57610181565b8063a35eab0d14610a27578063a9ed364214610a55578063aa9646f214610ba7578063bd037c9314610d21578063bd880fae14610e55578063c47f002714610f0957610181565b80633a88c1091161013e5780635ac94e4a116101185780635ac94e4a1461076d5780636042ab1c146108e75780637a3aa950146109a2578063893d20e8146109d057610181565b80633a88c1091461056b5780634526f6901461059957806350d15fbe146106b957610181565b806313af40351461018657806315b2d0f6146101d7578063178c801a1461044957806317d7de7c14610477578063200d2ed214610507578063379c31bf14610540575b600080fd5b34801561019257600080fd5b506101d5600480360360208110156101a957600080fd5b81019080803573ffffffffffffffffffffffffffffffffffffffff169060200190929190505050611402565b005b3480156101e357600080fd5b50610210600480360360208110156101fa57600080fd5b81019080803590602001909291905050506114fa565b60405180806020018060200180602001806020018060200188815260200187815260200186810386528d818151815260200191508051906020019080838360005b8381101561026c578082015181840152602081019050610251565b50505050905090810190601f1680156102995780820380516001836020036101000a031916815260200191505b5086810385528c818151815260200191508051906020019080838360005b838110156102d25780820151818401526020810190506102b7565b50505050905090810190601f1680156102ff5780820380516001836020036101000a031916815260200191505b5086810384528b818151815260200191508051906020019080838360005b8381101561033857808201518184015260208101905061031d565b50505050905090810190601f1680156103655780820380516001836020036101000a031916815260200191505b5086810383528a818151815260200191508051906020019080838360005b8381101561039e578082015181840152602081019050610383565b50505050905090810190601f1680156103cb5780820380516001836020036101000a031916815260200191505b50868103825289818151815260200191508051906020019080838360005b838110156104045780820151818401526020810190506103e9565b50505050905090810190601f1680156104315780820380516001836020036101000a031916815260200191505b509c5050505050505050505050505060405180910390f35b6104756004803603602081101561045f57600080fd5b81019080803590602001909291905050506119d4565b005b34801561048357600080fd5b5061048c611a52565b6040518080602001828103825283818151815260200191508051906020019080838360005b838110156104cc5780820151818401526020810190506104b1565b50505050905090810190601f1680156104f95780820380516001836020036101000a031916815260200191505b509250505060405180910390f35b34801561051357600080fd5b5061051c611af4565b6040518082600381111561052c57fe5b60ff16815260200191505060405180910390f35b34801561054c57600080fd5b50610555611b07565b6040518082815260200191505060405180910390f35b6105976004803603602081101561058157600080fd5b8101908080359060200190929190505050611b14565b005b3480156105a557600080fd5b506105d2600480360360208110156105bc57600080fd5b8101908080359060200190929190505050611b92565b604051808060200180602001838103835285818151815260200191508051906020019080838360005b838110156106165780820151818401526020810190506105fb565b50505050905090810190601f1680156106435780820380516001836020036101000a031916815260200191505b50838103825284818151815260200191508051906020019080838360005b8381101561067c578082015181840152602081019050610661565b50505050905090810190601f1680156106a95780820380516001836020036101000a031916815260200191505b5094505050505060405180910390f35b3480156106c557600080fd5b506106f2600480360360208110156106dc57600080fd5b8101908080359060200190929190505050611d4d565b6040518080602001828103825283818151815260200191508051906020019080838360005b83811015610732578082015181840152602081019050610717565b50505050905090810190601f16801561075f5780820380516001836020036101000a031916815260200191505b509250505060405180910390f35b6108e5600480360360c081101561078357600080fd5b81019080803590602001906401000000008111156107a057600080fd5b8201836020820111156107b257600080fd5b803590602001918460018302840111640100000000831117156107d457600080fd5b91908080601f016020809104026020016040519081016040528093929190818152602001838380828437600081840152601f19601f820116905080830192505050505050509192919290803590602001909291908035906020019064010000000081111561084157600080fd5b82018360208201111561085357600080fd5b8035906020019184600183028401116401000000008311171561087557600080fd5b91908080601f016020809104026020016040519081016040528093929190818152602001838380828437600081840152601f19601f820116905080830192505050505050509192919290803590602001909291908035906020019092919080359060200190929190505050611e06565b005b6109a0600480360360208110156108fd57600080fd5b810190808035906020019064010000000081111561091a57600080fd5b82018360208201111561092c57600080fd5b8035906020019184600183028401116401000000008311171561094e57600080fd5b91908080601f016020809104026020016040519081016040528093929190818152602001838380828437600081840152601f19601f8201169050808301925050505050505091929192905050506121a3565b005b6109ce600480360360208110156109b857600080fd5b810190808035906020019092919050505061230a565b005b3480156109dc57600080fd5b506109e5612388565b604051808273ffffffffffffffffffffffffffffffffffffffff1673ffffffffffffffffffffffffffffffffffffffff16815260200191505060405180910390f35b610a5360048036036020811015610a3d57600080fd5b81019080803590602001909291905050506123b1565b005b610ba560048036036040811015610a6b57600080fd5b8101908080359060200190640100000000811115610a8857600080fd5b820183602082011115610a9a57600080fd5b80359060200191846001830284011164010000000083111715610abc57600080fd5b91908080601f016020809104026020016040519081016040528093929190818152602001838380828437600081840152601f19601f82011690508083019250505050505050919291929080359060200190640100000000811115610b1f57600080fd5b820183602082011115610b3157600080fd5b80359060200191846001830284011164010000000083111715610b5357600080fd5b91908080601f016020809104026020016040519081016040528093929190818152602001838380828437600081840152601f19601f82011690508083019250505050505050919291929050505061242f565b005b610d1f600480360360c0811015610bbd57600080fd5b8101908080359060200190640100000000811115610bda57600080fd5b820183602082011115610bec57600080fd5b80359060200191846001830284011164010000000083111715610c0e57600080fd5b91908080601f016020809104026020016040519081016040528093929190818152602001838380828437600081840152601f19601f8201169050808301925050505050505091929192908035906020019092919080359060200190640100000000811115610c7b57600080fd5b820183602082011115610c8d57600080fd5b80359060200191846001830284011164010000000083111715610caf57600080fd5b91908080601f016020809104026020016040519081016040528093929190818152602001838380828437600081840152601f19601f8201169050808301925050505050505091929192908035906020019092919080359060200190929190803590602001909291905050506125dc565b005b348015610d2d57600080fd5b50610d36612979565b60405180898152602001886003811115610d4c57fe5b60ff1681526020018060200187815260200180602001868152602001858152602001848152602001838103835289818151815260200191508051906020019080838360005b83811015610dac578082015181840152602081019050610d91565b50505050905090810190601f168015610dd95780820380516001836020036101000a031916815260200191505b50838103825287818151815260200191508051906020019080838360005b83811015610e12578082015181840152602081019050610df7565b50505050905090810190601f168015610e3f5780820380516001836020036101000a031916815260200191505b509a505050505050505050505060405180910390f35b348015610e6157600080fd5b50610e8e60048036036020811015610e7857600080fd5b8101908080359060200190929190505050612aec565b6040518080602001828103825283818151815260200191508051906020019080838360005b83811015610ece578082015181840152602081019050610eb3565b50505050905090810190601f168015610efb5780820380516001836020036101000a031916815260200191505b509250505060405180910390f35b610fc260048036036020811015610f1f57600080fd5b8101908080359060200190640100000000811115610f3c57600080fd5b820183602082011115610f4e57600080fd5b80359060200191846001830284011164010000000083111715610f7057600080fd5b91908080601f016020809104026020016040519081016040528093929190818152602001838380828437600081840152601f19601f820116905080830192505050505050509192919290505050612bc5565b005b348015610fd057600080fd5b50610fd9612c48565b6040518082815260200191505060405180910390f35b348015610ffb57600080fd5b50611004612c55565b6040518080602001828103825283818151815260200191508051906020019080838360005b83811015611044578082015181840152602081019050611029565b50505050905090810190601f1680156110715780820380516001836020036101000a031916815260200191505b509250505060405180910390f35b34801561108b57600080fd5b50611094612f7b565b604051808060200180602001838103835285818151815260200191508051906020019080838360005b838110156110d85780820151818401526020810190506110bd565b50505050905090810190601f1680156111055780820380516001836020036101000a031916815260200191505b50838103825284818151815260200191508051906020019080838360005b8381101561113e578082015181840152602081019050611123565b50505050905090810190601f16801561116b5780820380516001836020036101000a031916815260200191505b5094505050505060405180910390f35b6111bb6004803603606081101561119157600080fd5b810190808035906020019092919080359060200190929190803590602001909291905050506130bd565b005b611280600480360360408110156111d357600080fd5b8101908080359060200190929190803590602001906401000000008111156111fa57600080fd5b82018360208201111561120c57600080fd5b8035906020019184600183028401116401000000008311171561122e57600080fd5b91908080601f016020809104026020016040519081016040528093929190818152602001838380828437600081840152601f19601f82011690508083019250505050505050919291929050505061313d565b005b6113d26004803603604081101561129857600080fd5b81019080803590602001906401000000008111156112b557600080fd5b8201836020820111156112c757600080fd5b803590602001918460018302840111640100000000831117156112e957600080fd5b91908080601f016020809104026020016040519081016040528093929190818152602001838380828437600081840152601f19601f8201169050808301925050505050505091929192908035906020019064010000000081111561134c57600080fd5b82018360208201111561135e57600080fd5b8035906020019184600183028401116401000000008311171561138057600080fd5b91908080601f016020809104026020016040519081016040528093929190818152602001838380828437600081840152601f19601f8201169050808301925050505050505091929192905050506132cb565b005b611400600480360360208110156113ea57600080fd5b8101908080359060200190929190505050613399565b005b6000809054906101000a900473ffffffffffffffffffffffffffffffffffffffff168073ffffffffffffffffffffffffffffffffffffffff163373ffffffffffffffffffffffffffffffffffffffff161461145c57600080fd5b6000809054906101000a900473ffffffffffffffffffffffffffffffffffffffff1673ffffffffffffffffffffffffffffffffffffffff168273ffffffffffffffffffffffffffffffffffffffff1614156114b657600080fd5b816000806101000a81548173ffffffffffffffffffffffffffffffffffffffff021916908373ffffffffffffffffffffffffffffffffffffffff1602179055505050565b6060806060806060600080876000811015801561151b5750600f8054905081105b61152457600080fd5b61152c613417565b600f8a8154811061153957fe5b906000526020600020906009020160405180610120016040529081600082015481526020016001820160009054906101000a900460ff16600381111561157b57fe5b600381111561158657fe5b8152602001600282018054600181600116156101000203166002900480601f0160208091040260200160405190810160405280929190818152602001828054600181600116156101000203166002900480156116235780601f106115f857610100808354040283529160200191611623565b820191906000526020600020905b81548152906001019060200180831161160657829003601f168201915b5050505050815260200160038201548152602001600482018054600181600116156101000203166002900480601f0160208091040260200160405190810160405280929190818152602001828054600181600116156101000203166002900480156116cf5780601f106116a4576101008083540402835291602001916116cf565b820191906000526020600020905b8154815290600101906020018083116116b257829003601f168201915b5050505050815260200160058201548152602001600682015481526020016007820154815260200160088201805480602002602001604051908101604052809291908181526020016000905b828210156117d7578382906000526020600020018054600181600116156101000203166002900480601f0160208091040260200160405190810160405280929190818152602001828054600181600116156101000203166002900480156117c35780601f10611798576101008083540402835291602001916117c3565b820191906000526020600020905b8154815290600101906020018083116117a657829003601f168201915b50505050508152602001906001019061171b565b50505050815250509050606060108260600151815481106117f457fe5b90600052602060002090600302016001018054600181600116156101000203166002900480601f0160208091040260200160405190810160405280929190818152602001828054600181600116156101000203166002900480156118995780601f1061186e57610100808354040283529160200191611899565b820191906000526020600020905b81548152906001019060200180831161187c57829003601f168201915b50505050509050606060108360600151815481106118b357fe5b90600052602060002090600302016002018054600181600116156101000203166002900480601f0160208091040260200160405190810160405280929190818152602001828054600181600116156101000203166002900480156119585780601f1061192d57610100808354040283529160200191611958565b820191906000526020600020905b81548152906001019060200180831161193b57829003601f168201915b5050505050905060606040518060400160405280601381526020017f4272697362616e652c204175737472616c6961000000000000000000000000008152509050836040015183838660800151848860c001518960e001518696508393509b509b509b509b509b509b509b505050505050919395979092949650565b80600081101580156119ea5750600f8054905081105b6119f357600080fd5b6000809054906101000a900473ffffffffffffffffffffffffffffffffffffffff168073ffffffffffffffffffffffffffffffffffffffff163373ffffffffffffffffffffffffffffffffffffffff1614611a4d57600080fd5b505050565b606060018054600181600116156101000203166002900480601f016020809104026020016040519081016040528092919081815260200182805460018160011615610100020316600290048015611aea5780601f10611abf57610100808354040283529160200191611aea565b820191906000526020600020905b815481529060010190602001808311611acd57829003601f168201915b5050505050905090565b600d60009054906101000a900460ff1681565b6000601080549050905090565b8060008110158015611b2a5750600f8054905081105b611b3357600080fd5b6000809054906101000a900473ffffffffffffffffffffffffffffffffffffffff168073ffffffffffffffffffffffffffffffffffffffff163373ffffffffffffffffffffffffffffffffffffffff1614611b8d57600080fd5b505050565b6060808260008110158015611bab575060108054905081105b611bb457600080fd5b611bbc61346e565b60108581548110611bc957fe5b906000526020600020906003020160405180606001604052908160008201548152602001600182018054600181600116156101000203166002900480601f016020809104026020016040519081016040528092919081815260200182805460018160011615610100020316600290048015611c855780601f10611c5a57610100808354040283529160200191611c85565b820191906000526020600020905b815481529060010190602001808311611c6857829003601f168201915b50505050508152602001600282018054600181600116156101000203166002900480601f016020809104026020016040519081016040528092919081815260200182805460018160011615610100020316600290048015611d275780601f10611cfc57610100808354040283529160200191611d27565b820191906000526020600020905b815481529060010190602001808311611d0a57829003601f168201915b505050505081525050905080602001518160400151819150809050935093505050915091565b600e8181548110611d5a57fe5b906000526020600020016000915090508054600181600116156101000203166002900480601f016020809104026020016040519081016040528092919081815260200182805460018160011615610100020316600290048015611dfe5780601f10611dd357610100808354040283529160200191611dfe565b820191906000526020600020905b815481529060010190602001808311611de157829003601f168201915b505050505081565b6000809054906101000a900473ffffffffffffffffffffffffffffffffffffffff168073ffffffffffffffffffffffffffffffffffffffff163373ffffffffffffffffffffffffffffffffffffffff1614611e6057600080fd5b8560008110158015611e76575060108054905081105b611e7f57600080fd5b60606000600f805490509050606060108a81548110611e9a57fe5b90600052602060002090600302016001018054600181600116156101000203166002900480601f016020809104026020016040519081016040528092919081815260200182805460018160011615610100020316600290048015611f3f5780601f10611f1457610100808354040283529160200191611f3f565b820191906000526020600020905b815481529060010190602001808311611f2257829003601f168201915b50505050509050611f4e613417565b60405180610120016040528084815260200160016003811115611f6d57fe5b81526020018d81526020018c81526020018b81526020018a8152602001898152602001888152602001858152509050600f81908060018154018082558091505090600182039060005260206000209060090201600090919290919091506000820151816000015560208201518160010160006101000a81548160ff02191690836003811115611ff857fe5b0217905550604082015181600201908051906020019061201992919061348f565b5060608201518160030155608082015181600401908051906020019061204092919061348f565b5060a0820151816005015560c0820151816006015560e0820151816007015561010082015181600801908051906020019061207c92919061350f565b505050507fe18d80f65fc8bc8a5ce44fb290ddff552e5f51d0120c567d37f1118f1f2dfe8d83826040015184604051808481526020018060200180602001838103835285818151815260200191508051906020019080838360005b838110156120f25780820151818401526020810190506120d7565b50505050905090810190601f16801561211f5780820380516001836020036101000a031916815260200191505b50838103825284818151815260200191508051906020019080838360005b8381101561215857808201518184015260208101905061213d565b50505050905090810190601f1680156121855780820380516001836020036101000a031916815260200191505b509550505050505060405180910390a1505050505050505050505050565b6000809054906101000a900473ffffffffffffffffffffffffffffffffffffffff168073ffffffffffffffffffffffffffffffffffffffff163373ffffffffffffffffffffffffffffffffffffffff16146121fd57600080fd5b60006012836040518082805190602001908083835b602083106122355780518252602082019150602081019050602083039250612212565b6001836020036101000a03801982511681845116808217855250505050505090500191505090815260200160405180910390205490506000811461227557fe5b600e818154811061228257fe5b906000526020600020016000612298919061356f565b6012836040518082805190602001908083835b602083106122ce57805182526020820191506020810190506020830392506122ab565b6001836020036101000a038019825116818451168082178552505050505050905001915050908152602001604051809103902060009055505050565b80600081101580156123205750600f8054905081105b61232957600080fd5b6000809054906101000a900473ffffffffffffffffffffffffffffffffffffffff168073ffffffffffffffffffffffffffffffffffffffff163373ffffffffffffffffffffffffffffffffffffffff161461238357600080fd5b505050565b60008060009054906101000a900473ffffffffffffffffffffffffffffffffffffffff16905090565b80600081101580156123c7575060108054905081105b6123d057600080fd5b6000809054906101000a900473ffffffffffffffffffffffffffffffffffffffff168073ffffffffffffffffffffffffffffffffffffffff163373ffffffffffffffffffffffffffffffffffffffff161461242a57600080fd5b505050565b6000809054906101000a900473ffffffffffffffffffffffffffffffffffffffff168073ffffffffffffffffffffffffffffffffffffffff163373ffffffffffffffffffffffffffffffffffffffff161461248957600080fd5b6000601080549050905061249b61346e565b60405180606001604052808381526020018681526020018581525090506010819080600181540180825580915050906001820390600052602060002090600302016000909192909190915060008201518160000155602082015181600101908051906020019061250c92919061348f565b50604082015181600201908051906020019061252992919061348f565b505050507fc80c020e707dc135a0cfab12e04e26a3ec7ed662ecaa0b12fd49d1dc05fc58538282602001516040518083815260200180602001828103825283818151815260200191508051906020019080838360005b8381101561259a57808201518184015260208101905061257f565b50505050905090810190601f1680156125c75780820380516001836020036101000a031916815260200191505b50935050505060405180910390a15050505050565b6000809054906101000a900473ffffffffffffffffffffffffffffffffffffffff168073ffffffffffffffffffffffffffffffffffffffff163373ffffffffffffffffffffffffffffffffffffffff161461263657600080fd5b856000811015801561264c575060108054905081105b61265557600080fd5b60606000600f805490509050606060108a8154811061267057fe5b90600052602060002090600302016001018054600181600116156101000203166002900480601f0160208091040260200160405190810160405280929190818152602001828054600181600116156101000203166002900480156127155780601f106126ea57610100808354040283529160200191612715565b820191906000526020600020905b8154815290600101906020018083116126f857829003601f168201915b50505050509050612724613417565b6040518061012001604052808481526020016000600381111561274357fe5b81526020018d81526020018c81526020018b81526020018a8152602001898152602001888152602001858152509050600f81908060018154018082558091505090600182039060005260206000209060090201600090919290919091506000820151816000015560208201518160010160006101000a81548160ff021916908360038111156127ce57fe5b021790555060408201518160020190805190602001906127ef92919061348f565b5060608201518160030155608082015181600401908051906020019061281692919061348f565b5060a0820151816005015560c0820151816006015560e0820151816007015561010082015181600801908051906020019061285292919061350f565b505050507fe18d80f65fc8bc8a5ce44fb290ddff552e5f51d0120c567d37f1118f1f2dfe8d83826040015184604051808481526020018060200180602001838103835285818151815260200191508051906020019080838360005b838110156128c85780820151818401526020810190506128ad565b50505050905090810190601f1680156128f55780820380516001836020036101000a031916815260200191505b50838103825284818151815260200191508051906020019080838360005b8381101561292e578082015181840152602081019050612913565b50505050905090810190601f16801561295b5780820380516001836020036101000a031916815260200191505b509550505050505060405180910390a1505050505050505050505050565b60048060000154908060010160009054906101000a900460ff1690806002018054600181600116156101000203166002900480601f016020809104026020016040519081016040528092919081815260200182805460018160011615610100020316600290048015612a2c5780601f10612a0157610100808354040283529160200191612a2c565b820191906000526020600020905b815481529060010190602001808311612a0f57829003601f168201915b505050505090806003015490806004018054600181600116156101000203166002900480601f016020809104026020016040519081016040528092919081815260200182805460018160011615610100020316600290048015612ad05780601f10612aa557610100808354040283529160200191612ad0565b820191906000526020600020905b815481529060010190602001808311612ab357829003601f168201915b5050505050908060050154908060060154908060070154905088565b60608160008110158015612b045750600e8054905081105b612b0d57600080fd5b600e8381548110612b1a57fe5b906000526020600020018054600181600116156101000203166002900480601f016020809104026020016040519081016040528092919081815260200182805460018160011615610100020316600290048015612bb85780601f10612b8d57610100808354040283529160200191612bb8565b820191906000526020600020905b815481529060010190602001808311612b9b57829003601f168201915b5050505050915050919050565b6000809054906101000a900473ffffffffffffffffffffffffffffffffffffffff168073ffffffffffffffffffffffffffffffffffffffff163373ffffffffffffffffffffffffffffffffffffffff1614612c1f57600080fd5b6000825111612c2d57600080fd5b8160019080519060200190612c439291906135b7565b505050565b6000600f80549050905090565b60608060026000018054600181600116156101000203166002900480601f016020809104026020016040519081016040528092919081815260200182805460018160011615610100020316600290048015612cf15780601f10612cc657610100808354040283529160200191612cf1565b820191906000526020600020905b815481529060010190602001808311612cd457829003601f168201915b5050505050905060606040518060400160405280600281526020017f2c200000000000000000000000000000000000000000000000000000000000008152509050606060026001018054600181600116156101000203166002900480601f016020809104026020016040519081016040528092919081815260200182805460018160011615610100020316600290048015612dcd5780601f10612da257610100808354040283529160200191612dcd565b820191906000526020600020905b815481529060010190602001808311612db057829003601f168201915b50505050509050606081518351855101016040519080825280601f01601f191660200182016040528015612e105781602001600182028038833980820191505090505b509050600080600090505b8551811015612e8957858181518110612e3057fe5b602001015160f81c60f81b838380600101945081518110612e4d57fe5b60200101907effffffffffffffffffffffffffffffffffffffffffffffffffffffffffffff1916908160001a9053508080600101915050612e1b565b600090505b8451811015612efc57848181518110612ea357fe5b602001015160f81c60f81b838380600101945081518110612ec057fe5b60200101907effffffffffffffffffffffffffffffffffffffffffffffffffffffffffffff1916908160001a9053508080600101915050612e8e565b600090505b8351811015612f6f57838181518110612f1657fe5b602001015160f81c60f81b838380600101945081518110612f3357fe5b60200101907effffffffffffffffffffffffffffffffffffffffffffffffffffffffffffff1916908160001a9053508080600101915050612f01565b82965050505050505090565b6002806000018054600181600116156101000203166002900480601f0160208091040260200160405190810160405280929190818152602001828054600181600116156101000203166002900480156130155780601f10612fea57610100808354040283529160200191613015565b820191906000526020600020905b815481529060010190602001808311612ff857829003601f168201915b505050505090806001018054600181600116156101000203166002900480601f0160208091040260200160405190810160405280929190818152602001828054600181600116156101000203166002900480156130b35780601f10613088576101008083540402835291602001916130b3565b820191906000526020600020905b81548152906001019060200180831161309657829003601f168201915b5050505050905082565b82600081101580156130d35750600f8054905081105b6130dc57600080fd5b6000809054906101000a900473ffffffffffffffffffffffffffffffffffffffff168073ffffffffffffffffffffffffffffffffffffffff163373ffffffffffffffffffffffffffffffffffffffff161461313657600080fd5b5050505050565b81600081101580156131535750600f8054905081105b61315c57600080fd5b6000809054906101000a900473ffffffffffffffffffffffffffffffffffffffff168073ffffffffffffffffffffffffffffffffffffffff163373ffffffffffffffffffffffffffffffffffffffff16146131b657600080fd5b6000600f85815481106131c557fe5b90600052602060002090600902019050806008018490806001815401808255809150509060018203906000526020600020016000909192909190915090805190602001906132149291906135b7565b50507f2fbad007a1eb94ba3b709eecb3b46c43d13a9f3e19e1231b631be78fc369c8278460018360080180549050036040518080602001838152602001828103825284818151815260200191508051906020019080838360005b8381101561328957808201518184015260208101905061326e565b50505050905090810190601f1680156132b65780820380516001836020036101000a031916815260200191505b50935050505060405180910390a15050505050565b6000809054906101000a900473ffffffffffffffffffffffffffffffffffffffff168073ffffffffffffffffffffffffffffffffffffffff163373ffffffffffffffffffffffffffffffffffffffff161461332557600080fd5b60008351118015613337575060008251115b61334057600080fd5b6040518060400160405280848152602001838152506002600082015181600001908051906020019061337392919061348f565b50602082015181600101908051906020019061339092919061348f565b50905050505050565b80600081101580156133af5750600f8054905081105b6133b857600080fd5b6000809054906101000a900473ffffffffffffffffffffffffffffffffffffffff168073ffffffffffffffffffffffffffffffffffffffff163373ffffffffffffffffffffffffffffffffffffffff161461341257600080fd5b505050565b604051806101200160405280600081526020016000600381111561343757fe5b8152602001606081526020016000815260200160608152602001600081526020016000815260200160008152602001606081525090565b60405180606001604052806000815260200160608152602001606081525090565b828054600181600116156101000203166002900490600052602060002090601f016020900481019282601f106134d057805160ff19168380011785556134fe565b828001600101855582156134fe579182015b828111156134fd5782518255916020019190600101906134e2565b5b50905061350b9190613637565b5090565b82805482825590600052602060002090810192821561355e579160200282015b8281111561355d57825182908051906020019061354d92919061348f565b509160200191906001019061352f565b5b50905061356b919061365c565b5090565b50805460018160011615610100020316600290046000825580601f1061359557506135b4565b601f0160209004906000526020600020908101906135b39190613637565b5b50565b828054600181600116156101000203166002900490600052602060002090601f016020900481019282601f106135f857805160ff1916838001178555613626565b82800160010185558215613626579182015b8281111561362557825182559160200191906001019061360a565b5b5090506136339190613637565b5090565b61365991905b8082111561365557600081600090555060010161363d565b5090565b90565b61368591905b808211156136815760008181613678919061356f565b50600101613662565b5090565b9056fea165627a7a72305820b252cdb83eed9d3b9b1fdc2424cae21b4b94dcad68e7c627df0c552ea9f902890029",
  "source": "pragma solidity >=0.4.0 <0.7.0;\n\ncontract Resume {\n\n  address private owner = msg.sender;\n  string private name;\n  Location public locale;\n  Occupation public profession;\n  string constant seperator = \", \";\n  Availability public status;\n  string[] public skills;\n  Occupation[] experience;\n  Organization[] organizations;\n  Location[] locations;\n  \n  mapping(string => uint) availableSkills;\n\n  enum Availability {\n    Unavilable,\n    Unemployed,\n    Seeking,\n    Employed\n  }\n\n  enum Level {\n    Attendee,\n    Participant,\n    Certified,\n    License,\n    Diploma,\n    Bachelors,\n    Masters,\n    Doctorates\n  }\n\n  enum RoleType {\n    Professional,\n    Education,\n    Award,\n    Publication\n  }\n\n  struct Occupation {\n    uint index;\n    RoleType role;\n    string title;\n    uint employer_index;\n    string description;\n    uint location_index;\n    uint start_date;\n    uint end_date;\n    string[] skills;\n  }\n\n  struct Organization {\n    uint index;\n    string name;\n    string thumb;\n  }\n\n  struct Location {\n    string city;\n    string country;\n  }\n\n  event EducationListed(uint atIndex, string title, string organisation);\n  event OccupationListed(uint atIndex, string title, string organisation);\n  event OccupationChanged(uint atIndex, string fields);\n  event OccupationRemoved(string title);\n  event OccupationSet(uint id, string title);\n  event OrganizationCreated(uint atIndex, string name);\n  event ListedSkill(string skill, uint index);\n\n  modifier onlyBy(address account) {\n    // Check if caller address matches owner address\n    require(msg.sender == account);\n    _;\n  }\n\n  modifier whenOccupationExists(uint atIndex) {\n    // Check if the occupation exists at the specified index\n    require(atIndex >= 0 && atIndex < experience.length);\n    _;\n  }\n\n  modifier whenOrganizationExists(uint atIndex) {\n    // Check if the organization exists within the range\n    require(atIndex >= 0 && atIndex < organizations.length);\n    _;\n  }\n\n  modifier whenSkillExists(uint atIndex) {\n    // Check skill index is within bounds\n    require(atIndex >= 0 && atIndex < skills.length);\n    _;\n  }\n\n  modifier whenUniqueSkill(string memory skill) {\n    // Check if the skill already listed\n    require(availableSkills[skill] == 0x0);\n    _;\n  }\n\n  function setOwner(address newOwner) public onlyBy(owner) {\n    require(newOwner != owner);\n    owner = newOwner;\n  }\n\n  function getOwner() public view returns (address) {\n    return owner;\n  }\n\n  function setName(string memory newName) public onlyBy(owner) payable {\n    require(bytes(newName).length > 0);\n    name = newName;\n  }\n\n  function getName() public view returns (string memory) {\n    return name;\n  }\n\n  function setLocation(string memory city, string memory country) public onlyBy(owner) payable {\n    require(bytes(city).length > 0 && bytes(country).length > 0);\n    locale = Location(city, country);\n  }\n\n  function getLocation() public view returns (string memory) {\n    bytes memory city = bytes(locale.city);\n    bytes memory divider = bytes(seperator);\n    bytes memory country = bytes(locale.country);\n    bytes memory temp = new bytes(city.length + divider.length + country.length);\n\n    uint counter;\n    uint index;\n    for (index = 0; index < city.length; index++) {\n      temp[counter++] = city[index];\n    }\n    for (index = 0; index < divider.length; index++) {\n      temp[counter++] = divider[index];\n    }\n    for (index = 0; index < country.length; index++) {\n      temp[counter++] = country[index];\n    }\n\n    return string(temp);\n  }\n\n  function addEducation(string memory title, uint employerIndex, string memory description,  uint locationIndex, uint startDate, uint endDate) public onlyBy(owner) whenOrganizationExists(employerIndex) payable {\n    // Validate occupation data\n    // Create skill list\n    string[] memory skillList;\n    uint atIndex = experience.length;\n    string memory orgName = organizations[employerIndex].name;\n    // Construct occupation object\n    Occupation memory job = Occupation(atIndex, RoleType.Education, title, employerIndex, description, locationIndex, startDate, endDate, skillList);\n    // List occupation object\n    experience.push(job);\n    // Notify occupation listing\n    emit OccupationListed(atIndex, job.title, orgName);\n  }\n\n  function addOccupation(string memory title, uint employerIndex, string memory description,  uint locationIndex, uint startDate, uint endDate) public onlyBy(owner) whenOrganizationExists(employerIndex) payable {\n    // Validate occupation data\n    // Create skill list\n    string[] memory skillList;\n    uint atIndex = experience.length;\n    string memory orgName = organizations[employerIndex].name;\n    // Construct occupation object\n    Occupation memory job = Occupation(atIndex, RoleType.Professional, title, employerIndex, description, locationIndex, startDate, endDate, skillList);\n    // List occupation object\n    experience.push(job);\n    // Notify occupation listing\n    emit OccupationListed(atIndex, job.title, orgName);\n  }\n\n  function setOccupation(uint withIndex) public whenOccupationExists(withIndex) payable onlyBy(owner) {\n    // Set the position to the occupation index\n  }\n\n  function updateOccupation(uint atIndex) public whenOccupationExists(atIndex) payable onlyBy(owner) {\n    // Fetch the existing occupation at index\n    // Set fields which have changed\n      // Capture change field name\n    // Update the occupation at index\n    // Notify of field changes\n  }\n\n  function getOccupation(uint atIndex) public whenOccupationExists(atIndex) view returns (string memory, string memory, string memory, string memory, string memory, uint, uint) {\n    // Fetch the occupation matching at the specified index\n    // Fetch the occupations location\n      // Stringify location into the format \"CITY, COUNTRY\"\n    // Search and replace skill identifiers to skill names\n      // Stringify skills with delimiter\n    // Return tuple of occupation data\n      // (title, employer, thumb, description, locationString, startDate, endDate, skillCollection);\n    Occupation memory job = experience[atIndex];\n    //Organization memory org = organizations[job.employer_index];\n    //Location memory geo = locations[job.location_index];\n    string memory orgName = organizations[job.employer_index].name;\n    string memory orgThumb = organizations[job.employer_index].thumb;\n    string memory roleLocation = \"Brisbane, Australia\";\n    return (job.title, orgName, orgThumb, job.description, roleLocation, job.start_date, job.end_date);\n  }\n\n  function countOccupations() public view returns (uint) {\n    return experience.length;\n  }\n\n  function removeOccupation(uint atIndex) public whenOccupationExists(atIndex) payable onlyBy(owner) {\n    // Removes the occupation at index\n    // Sets position to previous index when removed occupation is current\n  }\n\n  function addOrganization(string memory orgName, string memory thumb) public payable onlyBy(owner)  {\n    // Capture the next available index\n    uint index = organizations.length;\n    // Initialize a new organization\n    Organization memory org = Organization(index, orgName, thumb);\n    // Store organization and notify\n    organizations.push(org);\n    emit OrganizationCreated(index, org.name);\n  }\n\n  function updateOrganization(uint withID) public whenOccupationExists(withID) payable onlyBy(owner) {\n\n  }\n\n  function removeOrganization(uint withID) public whenOrganizationExists(withID) payable onlyBy(owner) {\n\n  }\n\n  function getOrganization(uint atIndex) public whenOrganizationExists(atIndex) view returns (string memory, string memory) {\n    Organization memory org = organizations[atIndex];\n    return (org.name, org.thumb);\n  }\n\n  function countOrganizations() public view returns (uint) {\n    return organizations.length;\n  }\n\n  function updateOccupationTimeline(uint atIndex, uint startDate, uint endDate) public whenOccupationExists(atIndex) payable onlyBy(owner) {\n    // Validate startDate exists\n    // Ensure the endDate is greater than startDate\n    // If no endDate, cast to null or undefined\n    // Update state\n  }\n\n  function addSkill(uint atIndex, string memory skill) public whenOccupationExists(atIndex) payable onlyBy(owner) {\n    // Store skill and reference\n    Occupation storage occupation = experience[atIndex];\n    occupation.skills.push(skill);\n    // Broadcast listing\n    emit ListedSkill(skill, occupation.skills.length - 1);\n  }\n\n  function getSkill(uint atIndex) public whenSkillExists(atIndex) view returns (string memory) {\n    // Fetch skill at index\n    return skills[atIndex];\n  }\n\n  function removeSkill(string memory skill) public payable onlyBy(owner) {\n    uint atIndex = availableSkills[skill];\n    assert(atIndex == 0x0);\n    // Clear the skill and reference\n    delete skills[atIndex];\n    delete availableSkills[skill];\n  }\n}",
  "sourcePath": "/Users/mitchpierias/Developer/dapp-academy/contracts/Resume.sol",
  "compiler": {
    "name": "solc",
    "version": "0.5.8+commit.23d335f2.Emscripten.clang"
  },
  "schemaVersion": "3.0.16",
  "updatedAt": "2019-12-17T12:27:33.948Z",
  "devdoc": {
    "methods": {}
  },
  "userdoc": {
    "methods": {}
  }
}