{
  "contractName": "Resume",
  "abi": [
    {
      "constant": true,
      "inputs": [],
      "name": "status",
      "outputs": [
        {
          "name": "",
          "type": "uint8"
        }
      ],
      "payable": false,
      "stateMutability": "view",
      "type": "function"
    },
    {
      "constant": true,
      "inputs": [
        {
          "name": "",
          "type": "uint256"
        }
      ],
      "name": "skills",
      "outputs": [
        {
          "name": "",
          "type": "string"
        }
      ],
      "payable": false,
      "stateMutability": "view",
      "type": "function"
    },
    {
      "constant": true,
      "inputs": [],
      "name": "profession",
      "outputs": [
        {
          "name": "index",
          "type": "uint256"
        },
        {
          "name": "role",
          "type": "string"
        },
        {
          "name": "employer_index",
          "type": "uint256"
        },
        {
          "name": "description",
          "type": "string"
        },
        {
          "name": "location_index",
          "type": "uint256"
        },
        {
          "name": "start_date",
          "type": "uint256"
        },
        {
          "name": "end_date",
          "type": "uint256"
        }
      ],
      "payable": false,
      "stateMutability": "view",
      "type": "function"
    },
    {
      "constant": true,
      "inputs": [],
      "name": "locale",
      "outputs": [
        {
          "name": "city",
          "type": "string"
        },
        {
          "name": "country",
          "type": "string"
        }
      ],
      "payable": false,
      "stateMutability": "view",
      "type": "function"
    },
    {
      "anonymous": false,
      "inputs": [
        {
          "indexed": false,
          "name": "atIndex",
          "type": "uint256"
        },
        {
          "indexed": false,
          "name": "title",
          "type": "string"
        },
        {
          "indexed": false,
          "name": "organisation",
          "type": "string"
        }
      ],
      "name": "OccupationListed",
      "type": "event"
    },
    {
      "anonymous": false,
      "inputs": [
        {
          "indexed": false,
          "name": "atIndex",
          "type": "uint256"
        },
        {
          "indexed": false,
          "name": "fields",
          "type": "string"
        }
      ],
      "name": "OccupationChanged",
      "type": "event"
    },
    {
      "anonymous": false,
      "inputs": [
        {
          "indexed": false,
          "name": "title",
          "type": "string"
        }
      ],
      "name": "OccupationRemoved",
      "type": "event"
    },
    {
      "anonymous": false,
      "inputs": [
        {
          "indexed": false,
          "name": "id",
          "type": "uint256"
        },
        {
          "indexed": false,
          "name": "role",
          "type": "string"
        }
      ],
      "name": "OccupationSet",
      "type": "event"
    },
    {
      "anonymous": false,
      "inputs": [
        {
          "indexed": false,
          "name": "atIndex",
          "type": "uint256"
        },
        {
          "indexed": false,
          "name": "name",
          "type": "string"
        }
      ],
      "name": "OrganizationCreated",
      "type": "event"
    },
    {
      "constant": false,
      "inputs": [
        {
          "name": "newOwner",
          "type": "address"
        }
      ],
      "name": "setOwner",
      "outputs": [],
      "payable": false,
      "stateMutability": "nonpayable",
      "type": "function"
    },
    {
      "constant": true,
      "inputs": [],
      "name": "getOwner",
      "outputs": [
        {
          "name": "",
          "type": "address"
        }
      ],
      "payable": false,
      "stateMutability": "view",
      "type": "function"
    },
    {
      "constant": false,
      "inputs": [
        {
          "name": "newName",
          "type": "string"
        }
      ],
      "name": "setName",
      "outputs": [],
      "payable": true,
      "stateMutability": "payable",
      "type": "function"
    },
    {
      "constant": true,
      "inputs": [],
      "name": "getName",
      "outputs": [
        {
          "name": "",
          "type": "string"
        }
      ],
      "payable": false,
      "stateMutability": "view",
      "type": "function"
    },
    {
      "constant": false,
      "inputs": [
        {
          "name": "city",
          "type": "string"
        },
        {
          "name": "country",
          "type": "string"
        }
      ],
      "name": "setLocation",
      "outputs": [],
      "payable": true,
      "stateMutability": "payable",
      "type": "function"
    },
    {
      "constant": true,
      "inputs": [],
      "name": "getLocation",
      "outputs": [
        {
          "name": "",
          "type": "string"
        }
      ],
      "payable": false,
      "stateMutability": "view",
      "type": "function"
    },
    {
      "constant": false,
      "inputs": [
        {
          "name": "role",
          "type": "string"
        },
        {
          "name": "employerIndex",
          "type": "uint256"
        },
        {
          "name": "description",
          "type": "string"
        },
        {
          "name": "locationIndex",
          "type": "uint256"
        },
        {
          "name": "startDate",
          "type": "uint256"
        },
        {
          "name": "endDate",
          "type": "uint256"
        }
      ],
      "name": "addOccupation",
      "outputs": [],
      "payable": true,
      "stateMutability": "payable",
      "type": "function"
    },
    {
      "constant": false,
      "inputs": [
        {
          "name": "withIndex",
          "type": "uint256"
        }
      ],
      "name": "setOccupation",
      "outputs": [],
      "payable": true,
      "stateMutability": "payable",
      "type": "function"
    },
    {
      "constant": false,
      "inputs": [
        {
          "name": "atIndex",
          "type": "uint256"
        }
      ],
      "name": "updateOccupation",
      "outputs": [],
      "payable": true,
      "stateMutability": "payable",
      "type": "function"
    },
    {
      "constant": true,
      "inputs": [
        {
          "name": "atIndex",
          "type": "uint256"
        }
      ],
      "name": "getOccupation",
      "outputs": [
        {
          "name": "",
          "type": "string"
        },
        {
          "name": "",
          "type": "string"
        },
        {
          "name": "",
          "type": "string"
        },
        {
          "name": "",
          "type": "string"
        },
        {
          "name": "",
          "type": "string"
        },
        {
          "name": "",
          "type": "uint256"
        },
        {
          "name": "",
          "type": "uint256"
        }
      ],
      "payable": false,
      "stateMutability": "view",
      "type": "function"
    },
    {
      "constant": true,
      "inputs": [],
      "name": "countOccupations",
      "outputs": [
        {
          "name": "",
          "type": "uint256"
        }
      ],
      "payable": false,
      "stateMutability": "view",
      "type": "function"
    },
    {
      "constant": false,
      "inputs": [
        {
          "name": "atIndex",
          "type": "uint256"
        }
      ],
      "name": "removeOccupation",
      "outputs": [],
      "payable": true,
      "stateMutability": "payable",
      "type": "function"
    },
    {
      "constant": false,
      "inputs": [
        {
          "name": "orgName",
          "type": "string"
        },
        {
          "name": "thumb",
          "type": "string"
        }
      ],
      "name": "addOrganization",
      "outputs": [],
      "payable": true,
      "stateMutability": "payable",
      "type": "function"
    },
    {
      "constant": false,
      "inputs": [
        {
          "name": "withID",
          "type": "uint256"
        }
      ],
      "name": "updateOrganization",
      "outputs": [],
      "payable": true,
      "stateMutability": "payable",
      "type": "function"
    },
    {
      "constant": false,
      "inputs": [
        {
          "name": "withID",
          "type": "uint256"
        }
      ],
      "name": "removeOrganization",
      "outputs": [],
      "payable": true,
      "stateMutability": "payable",
      "type": "function"
    },
    {
      "constant": true,
      "inputs": [
        {
          "name": "atIndex",
          "type": "uint256"
        }
      ],
      "name": "getOrganization",
      "outputs": [
        {
          "name": "",
          "type": "string"
        },
        {
          "name": "",
          "type": "string"
        }
      ],
      "payable": false,
      "stateMutability": "view",
      "type": "function"
    },
    {
      "constant": true,
      "inputs": [],
      "name": "countOrganizations",
      "outputs": [
        {
          "name": "",
          "type": "uint256"
        }
      ],
      "payable": false,
      "stateMutability": "view",
      "type": "function"
    },
    {
      "constant": false,
      "inputs": [
        {
          "name": "atIndex",
          "type": "uint256"
        },
        {
          "name": "startDate",
          "type": "uint256"
        },
        {
          "name": "endDate",
          "type": "uint256"
        }
      ],
      "name": "updateOccupationTimeline",
      "outputs": [],
      "payable": true,
      "stateMutability": "payable",
      "type": "function"
    }
  ],
  "bytecode": "0x6080604052336000806101000a81548173ffffffffffffffffffffffffffffffffffffffff021916908373ffffffffffffffffffffffffffffffffffffffff16021790555034801561005057600080fd5b50612aac806100606000396000f3fe6080604052600436106101355760003560e01c8063a35eab0d116100ab578063cdd7a4961161006f578063cdd7a49614610c7a578063ce2ce3fc14610ca5578063ec7bb03b14610d35578063ee3ee48014610e31578063fe586c9a14610e73578063ff618b5314610fc557610135565b8063a35eab0d146107a6578063a9ed3642146107d4578063aa9646f214610926578063bd037c9314610aa0578063c47f002714610bbf57610135565b8063379c31bf116100fd578063379c31bf146104f45780633a88c1091461051f5780634526f6901461054d57806350d15fbe1461066d5780637a3aa95014610721578063893d20e81461074f57610135565b806313af40351461013a57806315b2d0f61461018b578063178c801a146103fd57806317d7de7c1461042b578063200d2ed2146104bb575b600080fd5b34801561014657600080fd5b506101896004803603602081101561015d57600080fd5b81019080803573ffffffffffffffffffffffffffffffffffffffff169060200190929190505050610ff3565b005b34801561019757600080fd5b506101c4600480360360208110156101ae57600080fd5b81019080803590602001909291905050506110eb565b60405180806020018060200180602001806020018060200188815260200187815260200186810386528d818151815260200191508051906020019080838360005b83811015610220578082015181840152602081019050610205565b50505050905090810190601f16801561024d5780820380516001836020036101000a031916815260200191505b5086810385528c818151815260200191508051906020019080838360005b8381101561028657808201518184015260208101905061026b565b50505050905090810190601f1680156102b35780820380516001836020036101000a031916815260200191505b5086810384528b818151815260200191508051906020019080838360005b838110156102ec5780820151818401526020810190506102d1565b50505050905090810190601f1680156103195780820380516001836020036101000a031916815260200191505b5086810383528a818151815260200191508051906020019080838360005b83811015610352578082015181840152602081019050610337565b50505050905090810190601f16801561037f5780820380516001836020036101000a031916815260200191505b50868103825289818151815260200191508051906020019080838360005b838110156103b857808201518184015260208101905061039d565b50505050905090810190601f1680156103e55780820380516001836020036101000a031916815260200191505b509c5050505050505050505050505060405180910390f35b6104296004803603602081101561041357600080fd5b8101908080359060200190929190505050611598565b005b34801561043757600080fd5b50610440611616565b6040518080602001828103825283818151815260200191508051906020019080838360005b83811015610480578082015181840152602081019050610465565b50505050905090810190601f1680156104ad5780820380516001836020036101000a031916815260200191505b509250505060405180910390f35b3480156104c757600080fd5b506104d06116b8565b604051808260038111156104e057fe5b60ff16815260200191505060405180910390f35b34801561050057600080fd5b506105096116cb565b6040518082815260200191505060405180910390f35b61054b6004803603602081101561053557600080fd5b81019080803590602001909291905050506116d8565b005b34801561055957600080fd5b506105866004803603602081101561057057600080fd5b8101908080359060200190929190505050611756565b604051808060200180602001838103835285818151815260200191508051906020019080838360005b838110156105ca5780820151818401526020810190506105af565b50505050905090810190601f1680156105f75780820380516001836020036101000a031916815260200191505b50838103825284818151815260200191508051906020019080838360005b83811015610630578082015181840152602081019050610615565b50505050905090810190601f16801561065d5780820380516001836020036101000a031916815260200191505b5094505050505060405180910390f35b34801561067957600080fd5b506106a66004803603602081101561069057600080fd5b8101908080359060200190929190505050611911565b6040518080602001828103825283818151815260200191508051906020019080838360005b838110156106e65780820151818401526020810190506106cb565b50505050905090810190601f1680156107135780820380516001836020036101000a031916815260200191505b509250505060405180910390f35b61074d6004803603602081101561073757600080fd5b81019080803590602001909291905050506119ca565b005b34801561075b57600080fd5b50610764611a48565b604051808273ffffffffffffffffffffffffffffffffffffffff1673ffffffffffffffffffffffffffffffffffffffff16815260200191505060405180910390f35b6107d2600480360360208110156107bc57600080fd5b8101908080359060200190929190505050611a71565b005b610924600480360360408110156107ea57600080fd5b810190808035906020019064010000000081111561080757600080fd5b82018360208201111561081957600080fd5b8035906020019184600183028401116401000000008311171561083b57600080fd5b91908080601f016020809104026020016040519081016040528093929190818152602001838380828437600081840152601f19601f8201169050808301925050505050505091929192908035906020019064010000000081111561089e57600080fd5b8201836020820111156108b057600080fd5b803590602001918460018302840111640100000000831117156108d257600080fd5b91908080601f016020809104026020016040519081016040528093929190818152602001838380828437600081840152601f19601f820116905080830192505050505050509192919290505050611aef565b005b610a9e600480360360c081101561093c57600080fd5b810190808035906020019064010000000081111561095957600080fd5b82018360208201111561096b57600080fd5b8035906020019184600183028401116401000000008311171561098d57600080fd5b91908080601f016020809104026020016040519081016040528093929190818152602001838380828437600081840152601f19601f82011690508083019250505050505050919291929080359060200190929190803590602001906401000000008111156109fa57600080fd5b820183602082011115610a0c57600080fd5b80359060200191846001830284011164010000000083111715610a2e57600080fd5b91908080601f016020809104026020016040519081016040528093929190818152602001838380828437600081840152601f19601f820116905080830192505050505050509192919290803590602001909291908035906020019092919080359060200190929190505050611c9c565b005b348015610aac57600080fd5b50610ab5611ffd565b604051808881526020018060200187815260200180602001868152602001858152602001848152602001838103835289818151815260200191508051906020019080838360005b83811015610b17578082015181840152602081019050610afc565b50505050905090810190601f168015610b445780820380516001836020036101000a031916815260200191505b50838103825287818151815260200191508051906020019080838360005b83811015610b7d578082015181840152602081019050610b62565b50505050905090810190601f168015610baa5780820380516001836020036101000a031916815260200191505b50995050505050505050505060405180910390f35b610c7860048036036020811015610bd557600080fd5b8101908080359060200190640100000000811115610bf257600080fd5b820183602082011115610c0457600080fd5b80359060200191846001830284011164010000000083111715610c2657600080fd5b91908080601f016020809104026020016040519081016040528093929190818152602001838380828437600081840152601f19601f82011690508083019250505050505050919291929050505061215d565b005b348015610c8657600080fd5b50610c8f6121e0565b6040518082815260200191505060405180910390f35b348015610cb157600080fd5b50610cba6121ed565b6040518080602001828103825283818151815260200191508051906020019080838360005b83811015610cfa578082015181840152602081019050610cdf565b50505050905090810190601f168015610d275780820380516001836020036101000a031916815260200191505b509250505060405180910390f35b348015610d4157600080fd5b50610d4a612513565b604051808060200180602001838103835285818151815260200191508051906020019080838360005b83811015610d8e578082015181840152602081019050610d73565b50505050905090810190601f168015610dbb5780820380516001836020036101000a031916815260200191505b50838103825284818151815260200191508051906020019080838360005b83811015610df4578082015181840152602081019050610dd9565b50505050905090810190601f168015610e215780820380516001836020036101000a031916815260200191505b5094505050505060405180910390f35b610e7160048036036060811015610e4757600080fd5b81019080803590602001909291908035906020019092919080359060200190929190505050612655565b005b610fc360048036036040811015610e8957600080fd5b8101908080359060200190640100000000811115610ea657600080fd5b820183602082011115610eb857600080fd5b80359060200191846001830284011164010000000083111715610eda57600080fd5b91908080601f016020809104026020016040519081016040528093929190818152602001838380828437600081840152601f19601f82011690508083019250505050505050919291929080359060200190640100000000811115610f3d57600080fd5b820183602082011115610f4f57600080fd5b80359060200191846001830284011164010000000083111715610f7157600080fd5b91908080601f016020809104026020016040519081016040528093929190818152602001838380828437600081840152601f19601f8201169050808301925050505050505091929192905050506126d5565b005b610ff160048036036020811015610fdb57600080fd5b81019080803590602001909291905050506127a3565b005b6000809054906101000a900473ffffffffffffffffffffffffffffffffffffffff168073ffffffffffffffffffffffffffffffffffffffff163373ffffffffffffffffffffffffffffffffffffffff161461104d57600080fd5b6000809054906101000a900473ffffffffffffffffffffffffffffffffffffffff1673ffffffffffffffffffffffffffffffffffffffff168273ffffffffffffffffffffffffffffffffffffffff1614156110a757600080fd5b816000806101000a81548173ffffffffffffffffffffffffffffffffffffffff021916908373ffffffffffffffffffffffffffffffffffffffff1602179055505050565b6060806060806060600080876000811015801561110c5750600e8054905081105b61111557600080fd5b61111d612821565b600e8a8154811061112a57fe5b90600052602060002090600802016040518061010001604052908160008201548152602001600182018054600181600116156101000203166002900480601f0160208091040260200160405190810160405280929190818152602001828054600181600116156101000203166002900480156111e75780601f106111bc576101008083540402835291602001916111e7565b820191906000526020600020905b8154815290600101906020018083116111ca57829003601f168201915b5050505050815260200160028201548152602001600382018054600181600116156101000203166002900480601f0160208091040260200160405190810160405280929190818152602001828054600181600116156101000203166002900480156112935780601f1061126857610100808354040283529160200191611293565b820191906000526020600020905b81548152906001019060200180831161127657829003601f168201915b5050505050815260200160048201548152602001600582015481526020016006820154815260200160078201805480602002602001604051908101604052809291908181526020016000905b8282101561139b578382906000526020600020018054600181600116156101000203166002900480601f0160208091040260200160405190810160405280929190818152602001828054600181600116156101000203166002900480156113875780601f1061135c57610100808354040283529160200191611387565b820191906000526020600020905b81548152906001019060200180831161136a57829003601f168201915b5050505050815260200190600101906112df565b505050508152505090506060600f8260400151815481106113b857fe5b90600052602060002090600302016001018054600181600116156101000203166002900480601f01602080910402602001604051908101604052809291908181526020018280546001816001161561010002031660029004801561145d5780601f106114325761010080835404028352916020019161145d565b820191906000526020600020905b81548152906001019060200180831161144057829003601f168201915b505050505090506060600f83604001518154811061147757fe5b90600052602060002090600302016002018054600181600116156101000203166002900480601f01602080910402602001604051908101604052809291908181526020018280546001816001161561010002031660029004801561151c5780601f106114f15761010080835404028352916020019161151c565b820191906000526020600020905b8154815290600101906020018083116114ff57829003601f168201915b5050505050905060606040518060400160405280601381526020017f4272697362616e652c204175737472616c6961000000000000000000000000008152509050836020015183838660600151848860a001518960c001518696508393509b509b509b509b509b509b509b505050505050919395979092949650565b80600081101580156115ae5750600e8054905081105b6115b757600080fd5b6000809054906101000a900473ffffffffffffffffffffffffffffffffffffffff168073ffffffffffffffffffffffffffffffffffffffff163373ffffffffffffffffffffffffffffffffffffffff161461161157600080fd5b505050565b606060018054600181600116156101000203166002900480601f0160208091040260200160405190810160405280929190818152602001828054600181600116156101000203166002900480156116ae5780601f10611683576101008083540402835291602001916116ae565b820191906000526020600020905b81548152906001019060200180831161169157829003601f168201915b5050505050905090565b600c60009054906101000a900460ff1681565b6000600f80549050905090565b80600081101580156116ee5750600e8054905081105b6116f757600080fd5b6000809054906101000a900473ffffffffffffffffffffffffffffffffffffffff168073ffffffffffffffffffffffffffffffffffffffff163373ffffffffffffffffffffffffffffffffffffffff161461175157600080fd5b505050565b606080826000811015801561176f5750600f8054905081105b61177857600080fd5b611780612866565b600f858154811061178d57fe5b906000526020600020906003020160405180606001604052908160008201548152602001600182018054600181600116156101000203166002900480601f0160208091040260200160405190810160405280929190818152602001828054600181600116156101000203166002900480156118495780601f1061181e57610100808354040283529160200191611849565b820191906000526020600020905b81548152906001019060200180831161182c57829003601f168201915b50505050508152602001600282018054600181600116156101000203166002900480601f0160208091040260200160405190810160405280929190818152602001828054600181600116156101000203166002900480156118eb5780601f106118c0576101008083540402835291602001916118eb565b820191906000526020600020905b8154815290600101906020018083116118ce57829003601f168201915b505050505081525050905080602001518160400151819150809050935093505050915091565b600d818154811061191e57fe5b906000526020600020016000915090508054600181600116156101000203166002900480601f0160208091040260200160405190810160405280929190818152602001828054600181600116156101000203166002900480156119c25780601f10611997576101008083540402835291602001916119c2565b820191906000526020600020905b8154815290600101906020018083116119a557829003601f168201915b505050505081565b80600081101580156119e05750600e8054905081105b6119e957600080fd5b6000809054906101000a900473ffffffffffffffffffffffffffffffffffffffff168073ffffffffffffffffffffffffffffffffffffffff163373ffffffffffffffffffffffffffffffffffffffff1614611a4357600080fd5b505050565b60008060009054906101000a900473ffffffffffffffffffffffffffffffffffffffff16905090565b8060008110158015611a875750600f8054905081105b611a9057600080fd5b6000809054906101000a900473ffffffffffffffffffffffffffffffffffffffff168073ffffffffffffffffffffffffffffffffffffffff163373ffffffffffffffffffffffffffffffffffffffff1614611aea57600080fd5b505050565b6000809054906101000a900473ffffffffffffffffffffffffffffffffffffffff168073ffffffffffffffffffffffffffffffffffffffff163373ffffffffffffffffffffffffffffffffffffffff1614611b4957600080fd5b6000600f805490509050611b5b612866565b6040518060600160405280838152602001868152602001858152509050600f8190806001815401808255809150509060018203906000526020600020906003020160009091929091909150600082015181600001556020820151816001019080519060200190611bcc929190612887565b506040820151816002019080519060200190611be9929190612887565b505050507fc80c020e707dc135a0cfab12e04e26a3ec7ed662ecaa0b12fd49d1dc05fc58538282602001516040518083815260200180602001828103825283818151815260200191508051906020019080838360005b83811015611c5a578082015181840152602081019050611c3f565b50505050905090810190601f168015611c875780820380516001836020036101000a031916815260200191505b50935050505060405180910390a15050505050565b6000809054906101000a900473ffffffffffffffffffffffffffffffffffffffff168073ffffffffffffffffffffffffffffffffffffffff163373ffffffffffffffffffffffffffffffffffffffff1614611cf657600080fd5b8560008110158015611d0c5750600f8054905081105b611d1557600080fd5b60606000600e8054905090506060600f8a81548110611d3057fe5b90600052602060002090600302016001018054600181600116156101000203166002900480601f016020809104026020016040519081016040528092919081815260200182805460018160011615610100020316600290048015611dd55780601f10611daa57610100808354040283529160200191611dd5565b820191906000526020600020905b815481529060010190602001808311611db857829003601f168201915b50505050509050611de4612821565b6040518061010001604052808481526020018d81526020018c81526020018b81526020018a8152602001898152602001888152602001858152509050600e8190806001815401808255809150509060018203906000526020600020906008020160009091929091909150600082015181600001556020820151816001019080519060200190611e74929190612887565b50604082015181600201556060820151816003019080519060200190611e9b929190612887565b506080820151816004015560a0820151816005015560c0820151816006015560e0820151816007019080519060200190611ed6929190612907565b505050507fe18d80f65fc8bc8a5ce44fb290ddff552e5f51d0120c567d37f1118f1f2dfe8d83826020015184604051808481526020018060200180602001838103835285818151815260200191508051906020019080838360005b83811015611f4c578082015181840152602081019050611f31565b50505050905090810190601f168015611f795780820380516001836020036101000a031916815260200191505b50838103825284818151815260200191508051906020019080838360005b83811015611fb2578082015181840152602081019050611f97565b50505050905090810190601f168015611fdf5780820380516001836020036101000a031916815260200191505b509550505050505060405180910390a1505050505050505050505050565b6004806000015490806001018054600181600116156101000203166002900480601f01602080910402602001604051908101604052809291908181526020018280546001816001161561010002031660029004801561209d5780601f106120725761010080835404028352916020019161209d565b820191906000526020600020905b81548152906001019060200180831161208057829003601f168201915b505050505090806002015490806003018054600181600116156101000203166002900480601f0160208091040260200160405190810160405280929190818152602001828054600181600116156101000203166002900480156121415780601f1061211657610100808354040283529160200191612141565b820191906000526020600020905b81548152906001019060200180831161212457829003601f168201915b5050505050908060040154908060050154908060060154905087565b6000809054906101000a900473ffffffffffffffffffffffffffffffffffffffff168073ffffffffffffffffffffffffffffffffffffffff163373ffffffffffffffffffffffffffffffffffffffff16146121b757600080fd5b60008251116121c557600080fd5b81600190805190602001906121db929190612967565b505050565b6000600e80549050905090565b60608060026000018054600181600116156101000203166002900480601f0160208091040260200160405190810160405280929190818152602001828054600181600116156101000203166002900480156122895780601f1061225e57610100808354040283529160200191612289565b820191906000526020600020905b81548152906001019060200180831161226c57829003601f168201915b5050505050905060606040518060400160405280600281526020017f2c200000000000000000000000000000000000000000000000000000000000008152509050606060026001018054600181600116156101000203166002900480601f0160208091040260200160405190810160405280929190818152602001828054600181600116156101000203166002900480156123655780601f1061233a57610100808354040283529160200191612365565b820191906000526020600020905b81548152906001019060200180831161234857829003601f168201915b50505050509050606081518351855101016040519080825280601f01601f1916602001820160405280156123a85781602001600182028038833980820191505090505b509050600080600090505b8551811015612421578581815181106123c857fe5b602001015160f81c60f81b8383806001019450815181106123e557fe5b60200101907effffffffffffffffffffffffffffffffffffffffffffffffffffffffffffff1916908160001a90535080806001019150506123b3565b600090505b84518110156124945784818151811061243b57fe5b602001015160f81c60f81b83838060010194508151811061245857fe5b60200101907effffffffffffffffffffffffffffffffffffffffffffffffffffffffffffff1916908160001a9053508080600101915050612426565b600090505b8351811015612507578381815181106124ae57fe5b602001015160f81c60f81b8383806001019450815181106124cb57fe5b60200101907effffffffffffffffffffffffffffffffffffffffffffffffffffffffffffff1916908160001a9053508080600101915050612499565b82965050505050505090565b6002806000018054600181600116156101000203166002900480601f0160208091040260200160405190810160405280929190818152602001828054600181600116156101000203166002900480156125ad5780601f10612582576101008083540402835291602001916125ad565b820191906000526020600020905b81548152906001019060200180831161259057829003601f168201915b505050505090806001018054600181600116156101000203166002900480601f01602080910402602001604051908101604052809291908181526020018280546001816001161561010002031660029004801561264b5780601f106126205761010080835404028352916020019161264b565b820191906000526020600020905b81548152906001019060200180831161262e57829003601f168201915b5050505050905082565b826000811015801561266b5750600e8054905081105b61267457600080fd5b6000809054906101000a900473ffffffffffffffffffffffffffffffffffffffff168073ffffffffffffffffffffffffffffffffffffffff163373ffffffffffffffffffffffffffffffffffffffff16146126ce57600080fd5b5050505050565b6000809054906101000a900473ffffffffffffffffffffffffffffffffffffffff168073ffffffffffffffffffffffffffffffffffffffff163373ffffffffffffffffffffffffffffffffffffffff161461272f57600080fd5b60008351118015612741575060008251115b61274a57600080fd5b6040518060400160405280848152602001838152506002600082015181600001908051906020019061277d929190612887565b50602082015181600101908051906020019061279a929190612887565b50905050505050565b80600081101580156127b95750600e8054905081105b6127c257600080fd5b6000809054906101000a900473ffffffffffffffffffffffffffffffffffffffff168073ffffffffffffffffffffffffffffffffffffffff163373ffffffffffffffffffffffffffffffffffffffff161461281c57600080fd5b505050565b60405180610100016040528060008152602001606081526020016000815260200160608152602001600081526020016000815260200160008152602001606081525090565b60405180606001604052806000815260200160608152602001606081525090565b828054600181600116156101000203166002900490600052602060002090601f016020900481019282601f106128c857805160ff19168380011785556128f6565b828001600101855582156128f6579182015b828111156128f55782518255916020019190600101906128da565b5b50905061290391906129e7565b5090565b828054828255906000526020600020908101928215612956579160200282015b82811115612955578251829080519060200190612945929190612887565b5091602001919060010190612927565b5b5090506129639190612a0c565b5090565b828054600181600116156101000203166002900490600052602060002090601f016020900481019282601f106129a857805160ff19168380011785556129d6565b828001600101855582156129d6579182015b828111156129d55782518255916020019190600101906129ba565b5b5090506129e391906129e7565b5090565b612a0991905b80821115612a055760008160009055506001016129ed565b5090565b90565b612a3591905b80821115612a315760008181612a289190612a38565b50600101612a12565b5090565b90565b50805460018160011615610100020316600290046000825580601f10612a5e5750612a7d565b601f016020900490600052602060002090810190612a7c91906129e7565b5b5056fea165627a7a7230582083af195b0ae7af72682a33afdfe71042a7a63f64374f0a49b681094a4ee0083f0029",
  "source": "pragma solidity >=0.4.0 <0.7.0;\n\ncontract Resume {\n\n  address private owner = msg.sender;\n  string private name;\n  Location public locale;\n  Occupation public profession;\n  string constant seperator = \", \";\n  Availability public status;\n  string[] public skills;\n  Occupation[] experience;\n  Organization[] organizations;\n  Location[] locations;\n  \n  mapping(string => uint) availableSkills;\n\n  enum Availability {\n    Unavilable,\n    Unemployed,\n    Seeking,\n    Employed\n  }\n\n  enum Level {\n    Attendee,\n    Participant,\n    Certified,\n    License,\n    Diploma,\n    Bachelors,\n    Masters,\n    Doctorates\n  }\n\n  struct Occupation {\n    uint index;\n    string role;\n    uint employer_index;\n    string description;\n    uint location_index;\n    uint start_date;\n    uint end_date;\n    string[] skills;\n  }\n\n  struct Organization {\n    uint index;\n    string name;\n    string thumb;\n  }\n\n  struct Location {\n    string city;\n    string country;\n  }\n\n  event OccupationListed(uint atIndex, string title, string organisation);\n  event OccupationChanged(uint atIndex, string fields);\n  event OccupationRemoved(string title);\n  event OccupationSet(uint id, string role);\n  event OrganizationCreated(uint atIndex, string name);\n\n  modifier onlyBy(address account) {\n    // Check if caller address matches owner address\n    require(msg.sender == account);\n    _;\n  }\n\n  modifier whenOccupationExists(uint atIndex) {\n    // Check if the occupation exists at the specified index\n    require(atIndex >= 0 && atIndex < experience.length);\n    _;\n  }\n\n  modifier whenOrganizationExists(uint atIndex) {\n    // Check if the organization exists within the range\n    require(atIndex >= 0 && atIndex < organizations.length);\n    _;\n  }\n\n  function setOwner(address newOwner) public onlyBy(owner) {\n    require(newOwner != owner);\n    owner = newOwner;\n  }\n\n  function getOwner() public view returns (address) {\n    return owner;\n  }\n\n  function setName(string memory newName) public onlyBy(owner) payable {\n    require(bytes(newName).length > 0);\n    name = newName;\n  }\n\n  function getName() public view returns (string memory) {\n    return name;\n  }\n\n  function setLocation(string memory city, string memory country) public onlyBy(owner) payable {\n    require(bytes(city).length > 0 && bytes(country).length > 0);\n    locale = Location(city, country);\n  }\n\n  function getLocation() public view returns (string memory) {\n    bytes memory city = bytes(locale.city);\n    bytes memory divider = bytes(seperator);\n    bytes memory country = bytes(locale.country);\n    bytes memory temp = new bytes(city.length + divider.length + country.length);\n\n    uint counter;\n    uint index;\n    for (index = 0; index < city.length; index++) {\n      temp[counter++] = city[index];\n    }\n    for (index = 0; index < divider.length; index++) {\n      temp[counter++] = divider[index];\n    }\n    for (index = 0; index < country.length; index++) {\n      temp[counter++] = country[index];\n    }\n\n    return string(temp);\n  }\n\n  function addOccupation(string memory role, uint employerIndex, string memory description,  uint locationIndex, uint startDate, uint endDate) public onlyBy(owner) whenOrganizationExists(employerIndex) payable {\n    // Validate occupation data\n    // Create skill list\n    string[] memory skillList;\n    uint atIndex = experience.length;\n    string memory orgName = organizations[employerIndex].name;\n    // Construct occupation object\n    Occupation memory job = Occupation(atIndex, role, employerIndex, description, locationIndex, startDate, endDate, skillList);\n    // List occupation object\n    experience.push(job);\n    // Notify occupation listing\n    emit OccupationListed(atIndex, job.role, orgName);\n  }\n\n  function setOccupation(uint withIndex) public whenOccupationExists(withIndex) payable onlyBy(owner) {\n    // Set the position to the occupation index\n  }\n\n  function updateOccupation(uint atIndex) public whenOccupationExists(atIndex) payable onlyBy(owner) {\n    // Fetch the existing occupation at index\n    // Set fields which have changed\n      // Capture change field name\n    // Update the occupation at index\n    // Notify of field changes\n  }\n\n  function getOccupation(uint atIndex) public whenOccupationExists(atIndex) view returns (string memory, string memory, string memory, string memory, string memory, uint, uint) {\n    // Fetch the occupation matching at the specified index\n    // Fetch the occupations location\n      // Stringify location into the format \"CITY, COUNTRY\"\n    // Search and replace skill identifiers to skill names\n      // Stringify skills with delimiter\n    // Return tuple of occupation data\n      // (role, employer, thumb, description, locationString, startDate, endDate, skillCollection);\n    Occupation memory job = experience[atIndex];\n    //Organization memory org = organizations[job.employer_index];\n    //Location memory geo = locations[job.location_index];\n    string memory orgName = organizations[job.employer_index].name;\n    string memory orgThumb = organizations[job.employer_index].thumb;\n    string memory roleLocation = \"Brisbane, Australia\";\n    return (job.role, orgName, orgThumb, job.description, roleLocation, job.start_date, job.end_date);\n  }\n\n  function countOccupations() public view returns (uint) {\n    return experience.length;\n  }\n\n  function removeOccupation(uint atIndex) public whenOccupationExists(atIndex) payable onlyBy(owner) {\n    // Removes the occupation at index\n    // Sets position to previous index when removed occupation is current\n  }\n\n  function addOrganization(string memory orgName, string memory thumb) public payable onlyBy(owner)  {\n    // Capture the next available index\n    uint index = organizations.length;\n    // Initialize a new organization\n    Organization memory org = Organization(index, orgName, thumb);\n    // Store organization and notify\n    organizations.push(org);\n    emit OrganizationCreated(index, org.name);\n  }\n\n  function updateOrganization(uint withID) public whenOccupationExists(withID) payable onlyBy(owner) {\n\n  }\n\n  function removeOrganization(uint withID) public whenOrganizationExists(withID) payable onlyBy(owner) {\n\n  }\n\n  function getOrganization(uint atIndex) public whenOrganizationExists(atIndex) view returns (string memory, string memory) {\n    Organization memory org = organizations[atIndex];\n    return (org.name, org.thumb);\n  }\n\n  function countOrganizations() public view returns (uint) {\n    return organizations.length;\n  }\n\n  function updateOccupationTimeline(uint atIndex, uint startDate, uint endDate) public whenOccupationExists(atIndex) payable onlyBy(owner) {\n    // Validate startDate exists\n    // Ensure the endDate is greater than startDate\n    // If no endDate, cast to null or undefined\n    // Update state\n  }\n}",
  "sourcePath": "/Users/mitch/Developer/dapp-academy/contracts/Resume.sol",
  "compiler": {
    "name": "solc",
    "version": "0.5.8+commit.23d335f2.Emscripten.clang"
  },
  "schemaVersion": "3.0.16",
  "updatedAt": "2019-11-15T14:16:55.030Z",
  "devdoc": {
    "methods": {}
  },
  "userdoc": {
    "methods": {}
  }
}