{
  "contractName": "Resume",
  "abi": [
    {
      "constant": true,
      "inputs": [],
      "name": "profession",
      "outputs": [
        {
          "name": "index",
          "type": "uint256"
        },
        {
          "name": "role",
          "type": "uint8"
        },
        {
          "name": "title",
          "type": "string"
        },
        {
          "name": "employer_index",
          "type": "uint256"
        },
        {
          "name": "description",
          "type": "string"
        },
        {
          "name": "location_index",
          "type": "uint256"
        },
        {
          "name": "start_date",
          "type": "uint256"
        },
        {
          "name": "end_date",
          "type": "uint256"
        },
        {
          "name": "skills",
          "type": "string"
        }
      ],
      "payable": false,
      "stateMutability": "view",
      "type": "function"
    },
    {
      "constant": true,
      "inputs": [],
      "name": "locale",
      "outputs": [
        {
          "name": "city",
          "type": "string"
        },
        {
          "name": "country",
          "type": "string"
        }
      ],
      "payable": false,
      "stateMutability": "view",
      "type": "function"
    },
    {
      "anonymous": false,
      "inputs": [
        {
          "indexed": false,
          "name": "role",
          "type": "uint8"
        },
        {
          "indexed": false,
          "name": "title",
          "type": "string"
        },
        {
          "indexed": false,
          "name": "entityName",
          "type": "string"
        }
      ],
      "name": "RoleListed",
      "type": "event"
    },
    {
      "anonymous": false,
      "inputs": [
        {
          "indexed": false,
          "name": "atIndex",
          "type": "uint256"
        },
        {
          "indexed": false,
          "name": "fields",
          "type": "string"
        }
      ],
      "name": "OccupationChanged",
      "type": "event"
    },
    {
      "anonymous": false,
      "inputs": [
        {
          "indexed": false,
          "name": "title",
          "type": "string"
        }
      ],
      "name": "OccupationRemoved",
      "type": "event"
    },
    {
      "anonymous": false,
      "inputs": [
        {
          "indexed": false,
          "name": "id",
          "type": "uint256"
        },
        {
          "indexed": false,
          "name": "title",
          "type": "string"
        }
      ],
      "name": "OccupationSet",
      "type": "event"
    },
    {
      "anonymous": false,
      "inputs": [
        {
          "indexed": false,
          "name": "atIndex",
          "type": "uint256"
        },
        {
          "indexed": false,
          "name": "name",
          "type": "string"
        }
      ],
      "name": "EntityCreated",
      "type": "event"
    },
    {
      "anonymous": false,
      "inputs": [
        {
          "indexed": false,
          "name": "skill",
          "type": "string"
        },
        {
          "indexed": false,
          "name": "index",
          "type": "uint256"
        }
      ],
      "name": "ListedSkill",
      "type": "event"
    },
    {
      "anonymous": false,
      "inputs": [
        {
          "indexed": false,
          "name": "atIndex",
          "type": "uint256"
        },
        {
          "indexed": false,
          "name": "location",
          "type": "string"
        }
      ],
      "name": "LocationListed",
      "type": "event"
    },
    {
      "anonymous": false,
      "inputs": [
        {
          "indexed": false,
          "name": "atIndex",
          "type": "uint256"
        },
        {
          "indexed": false,
          "name": "label",
          "type": "string"
        },
        {
          "indexed": false,
          "name": "url",
          "type": "string"
        }
      ],
      "name": "LinkCreated",
      "type": "event"
    },
    {
      "constant": false,
      "inputs": [
        {
          "name": "newOwner",
          "type": "address"
        }
      ],
      "name": "setOwner",
      "outputs": [],
      "payable": false,
      "stateMutability": "nonpayable",
      "type": "function"
    },
    {
      "constant": true,
      "inputs": [],
      "name": "getOwner",
      "outputs": [
        {
          "name": "",
          "type": "address"
        }
      ],
      "payable": false,
      "stateMutability": "view",
      "type": "function"
    },
    {
      "constant": false,
      "inputs": [
        {
          "name": "newName",
          "type": "string"
        }
      ],
      "name": "setName",
      "outputs": [],
      "payable": true,
      "stateMutability": "payable",
      "type": "function"
    },
    {
      "constant": false,
      "inputs": [
        {
          "name": "city",
          "type": "string"
        },
        {
          "name": "country",
          "type": "string"
        }
      ],
      "name": "setLocation",
      "outputs": [],
      "payable": true,
      "stateMutability": "payable",
      "type": "function"
    },
    {
      "constant": false,
      "inputs": [
        {
          "name": "city",
          "type": "string"
        },
        {
          "name": "country",
          "type": "string"
        }
      ],
      "name": "addLocation",
      "outputs": [],
      "payable": true,
      "stateMutability": "payable",
      "type": "function"
    },
    {
      "constant": true,
      "inputs": [],
      "name": "getDetails",
      "outputs": [
        {
          "name": "",
          "type": "string"
        },
        {
          "name": "",
          "type": "string"
        }
      ],
      "payable": false,
      "stateMutability": "view",
      "type": "function"
    },
    {
      "constant": true,
      "inputs": [],
      "name": "getLocation",
      "outputs": [
        {
          "name": "",
          "type": "string"
        }
      ],
      "payable": false,
      "stateMutability": "view",
      "type": "function"
    },
    {
      "constant": true,
      "inputs": [
        {
          "name": "atIndex",
          "type": "uint256"
        }
      ],
      "name": "getLocationAtIndex",
      "outputs": [
        {
          "name": "",
          "type": "string"
        }
      ],
      "payable": false,
      "stateMutability": "view",
      "type": "function"
    },
    {
      "constant": false,
      "inputs": [
        {
          "name": "title",
          "type": "string"
        },
        {
          "name": "entityIndex",
          "type": "uint256"
        },
        {
          "name": "description",
          "type": "string"
        },
        {
          "name": "endDate",
          "type": "uint256"
        }
      ],
      "name": "addPublication",
      "outputs": [],
      "payable": true,
      "stateMutability": "payable",
      "type": "function"
    },
    {
      "constant": false,
      "inputs": [
        {
          "name": "title",
          "type": "string"
        },
        {
          "name": "entityIndex",
          "type": "uint256"
        },
        {
          "name": "description",
          "type": "string"
        },
        {
          "name": "locationIndex",
          "type": "uint256"
        },
        {
          "name": "startDate",
          "type": "uint256"
        },
        {
          "name": "endDate",
          "type": "uint256"
        }
      ],
      "name": "addEducation",
      "outputs": [],
      "payable": true,
      "stateMutability": "payable",
      "type": "function"
    },
    {
      "constant": false,
      "inputs": [
        {
          "name": "title",
          "type": "string"
        },
        {
          "name": "entityIndex",
          "type": "uint256"
        },
        {
          "name": "description",
          "type": "string"
        },
        {
          "name": "locationIndex",
          "type": "uint256"
        },
        {
          "name": "startDate",
          "type": "uint256"
        },
        {
          "name": "endDate",
          "type": "uint256"
        },
        {
          "name": "skills",
          "type": "string"
        }
      ],
      "name": "addOccupation",
      "outputs": [],
      "payable": true,
      "stateMutability": "payable",
      "type": "function"
    },
    {
      "constant": false,
      "inputs": [
        {
          "name": "title",
          "type": "string"
        },
        {
          "name": "entityIndex",
          "type": "uint256"
        },
        {
          "name": "description",
          "type": "string"
        },
        {
          "name": "startDate",
          "type": "uint256"
        },
        {
          "name": "endDate",
          "type": "uint256"
        }
      ],
      "name": "addCommunity",
      "outputs": [],
      "payable": true,
      "stateMutability": "payable",
      "type": "function"
    },
    {
      "constant": false,
      "inputs": [
        {
          "name": "title",
          "type": "string"
        },
        {
          "name": "entityIndex",
          "type": "uint256"
        },
        {
          "name": "description",
          "type": "string"
        },
        {
          "name": "endDate",
          "type": "uint256"
        }
      ],
      "name": "addAward",
      "outputs": [],
      "payable": true,
      "stateMutability": "payable",
      "type": "function"
    },
    {
      "constant": false,
      "inputs": [
        {
          "name": "typeIndex",
          "type": "uint8"
        },
        {
          "name": "title",
          "type": "string"
        },
        {
          "name": "entityIndex",
          "type": "uint256"
        },
        {
          "name": "description",
          "type": "string"
        },
        {
          "name": "locationIndex",
          "type": "uint256"
        },
        {
          "name": "startDate",
          "type": "uint256"
        },
        {
          "name": "endDate",
          "type": "uint256"
        },
        {
          "name": "skills",
          "type": "string"
        }
      ],
      "name": "addRole",
      "outputs": [],
      "payable": false,
      "stateMutability": "nonpayable",
      "type": "function"
    },
    {
      "constant": false,
      "inputs": [
        {
          "name": "atIndex",
          "type": "uint256"
        }
      ],
      "name": "updateRole",
      "outputs": [],
      "payable": true,
      "stateMutability": "payable",
      "type": "function"
    },
    {
      "constant": true,
      "inputs": [
        {
          "name": "atIndex",
          "type": "uint256"
        }
      ],
      "name": "getRole",
      "outputs": [
        {
          "name": "",
          "type": "uint8"
        },
        {
          "name": "",
          "type": "string"
        },
        {
          "name": "",
          "type": "string"
        },
        {
          "name": "",
          "type": "string"
        },
        {
          "name": "",
          "type": "string"
        },
        {
          "name": "",
          "type": "string"
        },
        {
          "name": "",
          "type": "uint256"
        },
        {
          "name": "",
          "type": "uint256"
        },
        {
          "name": "",
          "type": "string"
        }
      ],
      "payable": false,
      "stateMutability": "view",
      "type": "function"
    },
    {
      "constant": true,
      "inputs": [],
      "name": "countRoles",
      "outputs": [
        {
          "name": "",
          "type": "uint256"
        }
      ],
      "payable": false,
      "stateMutability": "view",
      "type": "function"
    },
    {
      "constant": false,
      "inputs": [
        {
          "name": "atIndex",
          "type": "uint256"
        }
      ],
      "name": "removeRole",
      "outputs": [],
      "payable": true,
      "stateMutability": "payable",
      "type": "function"
    },
    {
      "constant": false,
      "inputs": [
        {
          "name": "entityName",
          "type": "string"
        },
        {
          "name": "thumb",
          "type": "string"
        }
      ],
      "name": "addEntity",
      "outputs": [],
      "payable": true,
      "stateMutability": "payable",
      "type": "function"
    },
    {
      "constant": false,
      "inputs": [
        {
          "name": "withID",
          "type": "uint256"
        }
      ],
      "name": "updateEntity",
      "outputs": [],
      "payable": true,
      "stateMutability": "payable",
      "type": "function"
    },
    {
      "constant": false,
      "inputs": [
        {
          "name": "withID",
          "type": "uint256"
        }
      ],
      "name": "removeEntity",
      "outputs": [],
      "payable": true,
      "stateMutability": "payable",
      "type": "function"
    },
    {
      "constant": true,
      "inputs": [
        {
          "name": "atIndex",
          "type": "uint256"
        }
      ],
      "name": "getEntity",
      "outputs": [
        {
          "name": "",
          "type": "string"
        },
        {
          "name": "",
          "type": "string"
        }
      ],
      "payable": false,
      "stateMutability": "view",
      "type": "function"
    },
    {
      "constant": true,
      "inputs": [],
      "name": "countEntities",
      "outputs": [
        {
          "name": "",
          "type": "uint256"
        }
      ],
      "payable": false,
      "stateMutability": "view",
      "type": "function"
    },
    {
      "constant": false,
      "inputs": [
        {
          "name": "label",
          "type": "string"
        },
        {
          "name": "url",
          "type": "string"
        }
      ],
      "name": "addLink",
      "outputs": [],
      "payable": true,
      "stateMutability": "payable",
      "type": "function"
    },
    {
      "constant": true,
      "inputs": [],
      "name": "countLinks",
      "outputs": [
        {
          "name": "",
          "type": "uint256"
        }
      ],
      "payable": false,
      "stateMutability": "view",
      "type": "function"
    },
    {
      "constant": true,
      "inputs": [
        {
          "name": "atIndex",
          "type": "uint256"
        }
      ],
      "name": "getLink",
      "outputs": [
        {
          "name": "",
          "type": "string"
        },
        {
          "name": "",
          "type": "string"
        }
      ],
      "payable": false,
      "stateMutability": "view",
      "type": "function"
    }
  ],
  "bytecode": "0x6080604052336000806101000a81548173ffffffffffffffffffffffffffffffffffffffff021916908373ffffffffffffffffffffffffffffffffffffffff16021790555034801561005057600080fd5b50614a76806100606000396000f3fe6080604052600436106101b65760003560e01c8063b3a27842116100ec578063e837471f1161008a578063f87b1d7711610064578063f87b1d77146119bf578063fabf49fc14611b25578063fbbf93a014611b53578063fe586c9a14611c4f576101b6565b8063e837471f1461186d578063ec7bb03b14611898578063edf0b43014611994576101b6565b8063ce2ce3fc116100c6578063ce2ce3fc146112f9578063cefb85aa14611389578063df1829de146114db578063e122007d14611707576101b6565b8063b3a2784214610f7e578063bd037c931461109e578063c47f00271461123e576101b6565b80635ac94e4a11610159578063713673dd11610133578063713673dd14610d7c578063893d20e814610ece5780639269182114610f25578063a9ea7abf14610f53576101b6565b80635ac94e4a14610ba65780636d6d386b14610d205780636d767d1a14610d4e576101b6565b806313af40351161019557806313af4035146105315780632addde3214610582578063393b6df3146107935780635312fdc2146108b3576101b6565b80621353b7146101bb5780630fec9efa1461026f57806311f68ef0146103c1575b600080fd5b3480156101c757600080fd5b506101f4600480360360208110156101de57600080fd5b8101908080359060200190929190505050611da1565b6040518080602001828103825283818151815260200191508051906020019080838360005b83811015610234578082015181840152602081019050610219565b50505050905090810190601f1680156102615780820380516001836020036101000a031916815260200191505b509250505060405180910390f35b6103bf6004803603604081101561028557600080fd5b81019080803590602001906401000000008111156102a257600080fd5b8201836020820111156102b457600080fd5b803590602001918460018302840111640100000000831117156102d657600080fd5b91908080601f016020809104026020016040519081016040528093929190818152602001838380828437600081840152601f19601f8201169050808301925050505050505091929192908035906020019064010000000081111561033957600080fd5b82018360208201111561034b57600080fd5b8035906020019184600183028401116401000000008311171561036d57600080fd5b91908080601f016020809104026020016040519081016040528093929190818152602001838380828437600081840152601f19601f82011690508083019250505050505050919291929050505061210d565b005b61052f600480360360a08110156103d757600080fd5b81019080803590602001906401000000008111156103f457600080fd5b82018360208201111561040657600080fd5b8035906020019184600183028401116401000000008311171561042857600080fd5b91908080601f016020809104026020016040519081016040528093929190818152602001838380828437600081840152601f19601f820116905080830192505050505050509192919290803590602001909291908035906020019064010000000081111561049557600080fd5b8201836020820111156104a757600080fd5b803590602001918460018302840111640100000000831117156104c957600080fd5b91908080601f016020809104026020016040519081016040528093929190818152602001838380828437600081840152601f19601f8201169050808301925050505050505091929192908035906020019092919080359060200190929190505050612313565b005b34801561053d57600080fd5b506105806004803603602081101561055457600080fd5b81019080803573ffffffffffffffffffffffffffffffffffffffff169060200190929190505050612592565b005b610791600480360360e081101561059857600080fd5b81019080803590602001906401000000008111156105b557600080fd5b8201836020820111156105c757600080fd5b803590602001918460018302840111640100000000831117156105e957600080fd5b91908080601f016020809104026020016040519081016040528093929190818152602001838380828437600081840152601f19601f820116905080830192505050505050509192919290803590602001909291908035906020019064010000000081111561065657600080fd5b82018360208201111561066857600080fd5b8035906020019184600183028401116401000000008311171561068a57600080fd5b91908080601f016020809104026020016040519081016040528093929190818152602001838380828437600081840152601f19601f8201169050808301925050505050505091929192908035906020019092919080359060200190929190803590602001909291908035906020019064010000000081111561070b57600080fd5b82018360208201111561071d57600080fd5b8035906020019184600183028401116401000000008311171561073f57600080fd5b91908080601f016020809104026020016040519081016040528093929190818152602001838380828437600081840152601f19601f82011690508083019250505050505050919291929050505061268a565b005b34801561079f57600080fd5b506107cc600480360360208110156107b657600080fd5b81019080803590602001909291905050506128fb565b604051808060200180602001838103835285818151815260200191508051906020019080838360005b838110156108105780820151818401526020810190506107f5565b50505050905090810190601f16801561083d5780820380516001836020036101000a031916815260200191505b50838103825284818151815260200191508051906020019080838360005b8381101561087657808201518184015260208101905061085b565b50505050905090810190601f1680156108a35780820380516001836020036101000a031916815260200191505b5094505050505060405180910390f35b3480156108bf57600080fd5b506108ec600480360360208110156108d657600080fd5b8101908080359060200190929190505050612aac565b604051808a60048111156108fc57fe5b60ff16815260200180602001806020018060200180602001806020018981526020018881526020018060200187810387528f818151815260200191508051906020019080838360005b83811015610960578082015181840152602081019050610945565b50505050905090810190601f16801561098d5780820380516001836020036101000a031916815260200191505b5087810386528e818151815260200191508051906020019080838360005b838110156109c65780820151818401526020810190506109ab565b50505050905090810190601f1680156109f35780820380516001836020036101000a031916815260200191505b5087810385528d818151815260200191508051906020019080838360005b83811015610a2c578082015181840152602081019050610a11565b50505050905090810190601f168015610a595780820380516001836020036101000a031916815260200191505b5087810384528c818151815260200191508051906020019080838360005b83811015610a92578082015181840152602081019050610a77565b50505050905090810190601f168015610abf5780820380516001836020036101000a031916815260200191505b5087810383528b818151815260200191508051906020019080838360005b83811015610af8578082015181840152602081019050610add565b50505050905090810190601f168015610b255780820380516001836020036101000a031916815260200191505b50878103825288818151815260200191508051906020019080838360005b83811015610b5e578082015181840152602081019050610b43565b50505050905090810190601f168015610b8b5780820380516001836020036101000a031916815260200191505b509f5050505050505050505050505050505060405180910390f35b610d1e600480360360c0811015610bbc57600080fd5b8101908080359060200190640100000000811115610bd957600080fd5b820183602082011115610beb57600080fd5b80359060200191846001830284011164010000000083111715610c0d57600080fd5b91908080601f016020809104026020016040519081016040528093929190818152602001838380828437600081840152601f19601f8201169050808301925050505050505091929192908035906020019092919080359060200190640100000000811115610c7a57600080fd5b820183602082011115610c8c57600080fd5b80359060200191846001830284011164010000000083111715610cae57600080fd5b91908080601f016020809104026020016040519081016040528093929190818152602001838380828437600081840152601f19601f820116905080830192505050505050509192919290803590602001909291908035906020019092919080359060200190929190505050612f2e565b005b610d4c60048036036020811015610d3657600080fd5b81019080803590602001909291905050506131ad565b005b610d7a60048036036020811015610d6457600080fd5b810190808035906020019092919050505061322b565b005b610ecc60048036036040811015610d9257600080fd5b8101908080359060200190640100000000811115610daf57600080fd5b820183602082011115610dc157600080fd5b80359060200191846001830284011164010000000083111715610de357600080fd5b91908080601f016020809104026020016040519081016040528093929190818152602001838380828437600081840152601f19601f82011690508083019250505050505050919291929080359060200190640100000000811115610e4657600080fd5b820183602082011115610e5857600080fd5b80359060200191846001830284011164010000000083111715610e7a57600080fd5b91908080601f016020809104026020016040519081016040528093929190818152602001838380828437600081840152601f19601f8201169050808301925050505050505091929192905050506132a9565b005b348015610eda57600080fd5b50610ee3613456565b604051808273ffffffffffffffffffffffffffffffffffffffff1673ffffffffffffffffffffffffffffffffffffffff16815260200191505060405180910390f35b610f5160048036036020811015610f3b57600080fd5b810190808035906020019092919050505061347f565b005b348015610f5f57600080fd5b50610f686134fd565b6040518082815260200191505060405180910390f35b348015610f8a57600080fd5b50610fb760048036036020811015610fa157600080fd5b810190808035906020019092919050505061350a565b604051808060200180602001838103835285818151815260200191508051906020019080838360005b83811015610ffb578082015181840152602081019050610fe0565b50505050905090810190601f1680156110285780820380516001836020036101000a031916815260200191505b50838103825284818151815260200191508051906020019080838360005b83811015611061578082015181840152602081019050611046565b50505050905090810190601f16801561108e5780820380516001836020036101000a031916815260200191505b5094505050505060405180910390f35b3480156110aa57600080fd5b506110b36136c5565b604051808a81526020018960048111156110c957fe5b60ff16815260200180602001888152602001806020018781526020018681526020018581526020018060200184810384528b818151815260200191508051906020019080838360005b8381101561112d578082015181840152602081019050611112565b50505050905090810190601f16801561115a5780820380516001836020036101000a031916815260200191505b50848103835289818151815260200191508051906020019080838360005b83811015611193578082015181840152602081019050611178565b50505050905090810190601f1680156111c05780820380516001836020036101000a031916815260200191505b50848103825285818151815260200191508051906020019080838360005b838110156111f95780820151818401526020810190506111de565b50505050905090810190601f1680156112265780820380516001836020036101000a031916815260200191505b509c5050505050505050505050505060405180910390f35b6112f76004803603602081101561125457600080fd5b810190808035906020019064010000000081111561127157600080fd5b82018360208201111561128357600080fd5b803590602001918460018302840111640100000000831117156112a557600080fd5b91908080601f016020809104026020016040519081016040528093929190818152602001838380828437600081840152601f19601f8201169050808301925050505050505091929192905050506138d6565b005b34801561130557600080fd5b5061130e613959565b6040518080602001828103825283818151815260200191508051906020019080838360005b8381101561134e578082015181840152602081019050611333565b50505050905090810190601f16801561137b5780820380516001836020036101000a031916815260200191505b509250505060405180910390f35b6114d96004803603604081101561139f57600080fd5b81019080803590602001906401000000008111156113bc57600080fd5b8201836020820111156113ce57600080fd5b803590602001918460018302840111640100000000831117156113f057600080fd5b91908080601f016020809104026020016040519081016040528093929190818152602001838380828437600081840152601f19601f8201169050808301925050505050505091929192908035906020019064010000000081111561145357600080fd5b82018360208201111561146557600080fd5b8035906020019184600183028401116401000000008311171561148757600080fd5b91908080601f016020809104026020016040519081016040528093929190818152602001838380828437600081840152601f19601f820116905080830192505050505050509192919290505050613cb2565b005b3480156114e757600080fd5b5061170560048036036101008110156114ff57600080fd5b81019080803560ff1690602001909291908035906020019064010000000081111561152957600080fd5b82018360208201111561153b57600080fd5b8035906020019184600183028401116401000000008311171561155d57600080fd5b91908080601f016020809104026020016040519081016040528093929190818152602001838380828437600081840152601f19601f82011690508083019250505050505050919291929080359060200190929190803590602001906401000000008111156115ca57600080fd5b8201836020820111156115dc57600080fd5b803590602001918460018302840111640100000000831117156115fe57600080fd5b91908080601f016020809104026020016040519081016040528093929190818152602001838380828437600081840152601f19601f8201169050808301925050505050505091929192908035906020019092919080359060200190929190803590602001909291908035906020019064010000000081111561167f57600080fd5b82018360208201111561169157600080fd5b803590602001918460018302840111640100000000831117156116b357600080fd5b91908080601f016020809104026020016040519081016040528093929190818152602001838380828437600081840152601f19601f820116905080830192505050505050509192919290505050613e54565b005b61186b6004803603608081101561171d57600080fd5b810190808035906020019064010000000081111561173a57600080fd5b82018360208201111561174c57600080fd5b8035906020019184600183028401116401000000008311171561176e57600080fd5b91908080601f016020809104026020016040519081016040528093929190818152602001838380828437600081840152601f19601f82011690508083019250505050505050919291929080359060200190929190803590602001906401000000008111156117db57600080fd5b8201836020820111156117ed57600080fd5b8035906020019184600183028401116401000000008311171561180f57600080fd5b91908080601f016020809104026020016040519081016040528093929190818152602001838380828437600081840152601f19601f8201169050808301925050505050505091929192908035906020019092919050505061401e565b005b34801561187957600080fd5b5061188261429c565b6040518082815260200191505060405180910390f35b3480156118a457600080fd5b506118ad6142a9565b604051808060200180602001838103835285818151815260200191508051906020019080838360005b838110156118f15780820151818401526020810190506118d6565b50505050905090810190601f16801561191e5780820380516001836020036101000a031916815260200191505b50838103825284818151815260200191508051906020019080838360005b8381101561195757808201518184015260208101905061193c565b50505050905090810190601f1680156119845780820380516001836020036101000a031916815260200191505b5094505050505060405180910390f35b3480156119a057600080fd5b506119a96143eb565b6040518082815260200191505060405180910390f35b611b23600480360360808110156119d557600080fd5b81019080803590602001906401000000008111156119f257600080fd5b820183602082011115611a0457600080fd5b80359060200191846001830284011164010000000083111715611a2657600080fd5b91908080601f016020809104026020016040519081016040528093929190818152602001838380828437600081840152601f19601f8201169050808301925050505050505091929192908035906020019092919080359060200190640100000000811115611a9357600080fd5b820183602082011115611aa557600080fd5b80359060200191846001830284011164010000000083111715611ac757600080fd5b91908080601f016020809104026020016040519081016040528093929190818152602001838380828437600081840152601f19601f820116905080830192505050505050509192919290803590602001909291905050506143f8565b005b611b5160048036036020811015611b3b57600080fd5b8101908080359060200190929190505050614676565b005b348015611b5f57600080fd5b50611b686146f4565b604051808060200180602001838103835285818151815260200191508051906020019080838360005b83811015611bac578082015181840152602081019050611b91565b50505050905090810190601f168015611bd95780820380516001836020036101000a031916815260200191505b50838103825284818151815260200191508051906020019080838360005b83811015611c12578082015181840152602081019050611bf7565b50505050905090810190601f168015611c3f5780820380516001836020036101000a031916815260200191505b5094505050505060405180910390f35b611d9f60048036036040811015611c6557600080fd5b8101908080359060200190640100000000811115611c8257600080fd5b820183602082011115611c9457600080fd5b80359060200191846001830284011164010000000083111715611cb657600080fd5b91908080601f016020809104026020016040519081016040528093929190818152602001838380828437600081840152601f19601f82011690508083019250505050505050919291929080359060200190640100000000811115611d1957600080fd5b820183602082011115611d2b57600080fd5b80359060200191846001830284011164010000000083111715611d4d57600080fd5b91908080601f016020809104026020016040519081016040528093929190818152602001838380828437600081840152601f19601f8201169050808301925050505050505091929192905050506147ab565b005b6060611dab614879565b600f8381548110611db857fe5b9060005260206000209060020201604051806040016040529081600082018054600181600116156101000203166002900480601f016020809104026020016040519081016040528092919081815260200182805460018160011615610100020316600290048015611e6a5780601f10611e3f57610100808354040283529160200191611e6a565b820191906000526020600020905b815481529060010190602001808311611e4d57829003601f168201915b50505050508152602001600182018054600181600116156101000203166002900480601f016020809104026020016040519081016040528092919081815260200182805460018160011615610100020316600290048015611f0c5780601f10611ee157610100808354040283529160200191611f0c565b820191906000526020600020905b815481529060010190602001808311611eef57829003601f168201915b505050505081525050905060608160000151905060606040518060400160405280600281526020017f2c200000000000000000000000000000000000000000000000000000000000008152509050606083602001519050606081518351855101016040519080825280601f01601f191660200182016040528015611f9f5781602001600182028038833980820191505090505b509050600080600090505b855181101561201857858181518110611fbf57fe5b602001015160f81c60f81b838380600101945081518110611fdc57fe5b60200101907effffffffffffffffffffffffffffffffffffffffffffffffffffffffffffff1916908160001a9053508080600101915050611faa565b600090505b845181101561208b5784818151811061203257fe5b602001015160f81c60f81b83838060010194508151811061204f57fe5b60200101907effffffffffffffffffffffffffffffffffffffffffffffffffffffffffffff1916908160001a905350808060010191505061201d565b600090505b83518110156120fe578381815181106120a557fe5b602001015160f81c60f81b8383806001019450815181106120c257fe5b60200101907effffffffffffffffffffffffffffffffffffffffffffffffffffffffffffff1916908160001a9053508080600101915050612090565b82975050505050505050919050565b6000809054906101000a900473ffffffffffffffffffffffffffffffffffffffff168073ffffffffffffffffffffffffffffffffffffffff163373ffffffffffffffffffffffffffffffffffffffff161461216757600080fd5b60006010805490509050612179614893565b60405180604001604052808681526020018581525090506010819080600181540180825580915050906001820390600052602060002090600202016000909192909190915060008201518160000190805190602001906121da9291906148ad565b5060208201518160010190805190602001906121f79291906148ad565b505050507f7c5cbbb9286aa8efb5c1fbd8d161a63084c6f32a1a4e1b9a28bd4869182552b2828686604051808481526020018060200180602001838103835285818151815260200191508051906020019080838360005b8381101561226957808201518184015260208101905061224e565b50505050905090810190601f1680156122965780820380516001836020036101000a031916815260200191505b50838103825284818151815260200191508051906020019080838360005b838110156122cf5780820151818401526020810190506122b4565b50505050905090810190601f1680156122fc5780820380516001836020036101000a031916815260200191505b509550505050505060405180910390a15050505050565b6000809054906101000a900473ffffffffffffffffffffffffffffffffffffffff168073ffffffffffffffffffffffffffffffffffffffff163373ffffffffffffffffffffffffffffffffffffffff161461236d57600080fd5b84600081101580156123835750600e8054905081105b61238c57600080fd5b6060600e878154811061239b57fe5b90600052602060002090600302016001018054600181600116156101000203166002900480601f0160208091040260200160405190810160405280929190818152602001828054600181600116156101000203166002900480156124405780601f1061241557610100808354040283529160200191612440565b820191906000526020600020905b81548152906001019060200180831161242357829003601f168201915b50505050509050612468600389898960008a8a60405180602001604052806000815250613e54565b7fd8c23aa87a7cd91b337270cc22a0e1bc74750702964a7793a3100b327b9d7116600389836040518084600481111561249d57fe5b60ff1681526020018060200180602001838103835285818151815260200191508051906020019080838360005b838110156124e55780820151818401526020810190506124ca565b50505050905090810190601f1680156125125780820380516001836020036101000a031916815260200191505b50838103825284818151815260200191508051906020019080838360005b8381101561254b578082015181840152602081019050612530565b50505050905090810190601f1680156125785780820380516001836020036101000a031916815260200191505b509550505050505060405180910390a15050505050505050565b6000809054906101000a900473ffffffffffffffffffffffffffffffffffffffff168073ffffffffffffffffffffffffffffffffffffffff163373ffffffffffffffffffffffffffffffffffffffff16146125ec57600080fd5b6000809054906101000a900473ffffffffffffffffffffffffffffffffffffffff1673ffffffffffffffffffffffffffffffffffffffff168273ffffffffffffffffffffffffffffffffffffffff16141561264657600080fd5b816000806101000a81548173ffffffffffffffffffffffffffffffffffffffff021916908373ffffffffffffffffffffffffffffffffffffffff1602179055505050565b6000809054906101000a900473ffffffffffffffffffffffffffffffffffffffff168073ffffffffffffffffffffffffffffffffffffffff163373ffffffffffffffffffffffffffffffffffffffff16146126e457600080fd5b86600081101580156126fa5750600e8054905081105b61270357600080fd5b6060600e898154811061271257fe5b90600052602060002090600302016001018054600181600116156101000203166002900480601f0160208091040260200160405190810160405280929190818152602001828054600181600116156101000203166002900480156127b75780601f1061278c576101008083540402835291602001916127b7565b820191906000526020600020905b81548152906001019060200180831161279a57829003601f168201915b505050505090506127cf60008b8b8b8b8b8b8b613e54565b7fd8c23aa87a7cd91b337270cc22a0e1bc74750702964a7793a3100b327b9d711660008b836040518084600481111561280457fe5b60ff1681526020018060200180602001838103835285818151815260200191508051906020019080838360005b8381101561284c578082015181840152602081019050612831565b50505050905090810190601f1680156128795780820380516001836020036101000a031916815260200191505b50838103825284818151815260200191508051906020019080838360005b838110156128b2578082015181840152602081019050612897565b50505050905090810190601f1680156128df5780820380516001836020036101000a031916815260200191505b509550505050505060405180910390a150505050505050505050565b6060808260008110158015612914575060108054905081105b61291d57600080fd5b612925614893565b6010858154811061293257fe5b9060005260206000209060020201604051806040016040529081600082018054600181600116156101000203166002900480601f0160208091040260200160405190810160405280929190818152602001828054600181600116156101000203166002900480156129e45780601f106129b9576101008083540402835291602001916129e4565b820191906000526020600020905b8154815290600101906020018083116129c757829003601f168201915b50505050508152602001600182018054600181600116156101000203166002900480601f016020809104026020016040519081016040528092919081815260200182805460018160011615610100020316600290048015612a865780601f10612a5b57610100808354040283529160200191612a86565b820191906000526020600020905b815481529060010190602001808311612a6957829003601f168201915b505050505081525050905080600001518160200151819150809050935093505050915091565b6000606080606080606060008060608960008110158015612ad15750600d8054905081105b612ada57600080fd5b612ae261492d565b600d8c81548110612aef57fe5b906000526020600020906009020160405180610120016040529081600082015481526020016001820160009054906101000a900460ff166004811115612b3157fe5b6004811115612b3c57fe5b8152602001600282018054600181600116156101000203166002900480601f016020809104026020016040519081016040528092919081815260200182805460018160011615610100020316600290048015612bd95780601f10612bae57610100808354040283529160200191612bd9565b820191906000526020600020905b815481529060010190602001808311612bbc57829003601f168201915b5050505050815260200160038201548152602001600482018054600181600116156101000203166002900480601f016020809104026020016040519081016040528092919081815260200182805460018160011615610100020316600290048015612c855780601f10612c5a57610100808354040283529160200191612c85565b820191906000526020600020905b815481529060010190602001808311612c6857829003601f168201915b50505050508152602001600582015481526020016006820154815260200160078201548152602001600882018054600181600116156101000203166002900480601f016020809104026020016040519081016040528092919081815260200182805460018160011615610100020316600290048015612d455780601f10612d1a57610100808354040283529160200191612d45565b820191906000526020600020905b815481529060010190602001808311612d2857829003601f168201915b50505050508152505090506060600e826060015181548110612d6357fe5b90600052602060002090600302016001018054600181600116156101000203166002900480601f016020809104026020016040519081016040528092919081815260200182805460018160011615610100020316600290048015612e085780601f10612ddd57610100808354040283529160200191612e08565b820191906000526020600020905b815481529060010190602001808311612deb57829003601f168201915b505050505090506060600e836060015181548110612e2257fe5b90600052602060002090600302016002018054600181600116156101000203166002900480601f016020809104026020016040519081016040528092919081815260200182805460018160011615610100020316600290048015612ec75780601f10612e9c57610100808354040283529160200191612ec7565b820191906000526020600020905b815481529060010190602001808311612eaa57829003601f168201915b505050505090506060612edd8460a00151611da1565b90508360200151846040015184848760800151858960c001518a60e001518b61010001518797508494508090509d509d509d509d509d509d509d509d509d5050505050509193959799909294969850565b6000809054906101000a900473ffffffffffffffffffffffffffffffffffffffff168073ffffffffffffffffffffffffffffffffffffffff163373ffffffffffffffffffffffffffffffffffffffff1614612f8857600080fd5b8560008110158015612f9e5750600e8054905081105b612fa757600080fd5b6060600e8881548110612fb657fe5b90600052602060002090600302016001018054600181600116156101000203166002900480601f01602080910402602001604051908101604052809291908181526020018280546001816001161561010002031660029004801561305b5780601f106130305761010080835404028352916020019161305b565b820191906000526020600020905b81548152906001019060200180831161303e57829003601f168201915b5050505050905061308260018a8a8a8a8a8a60405180602001604052806000815250613e54565b7fd8c23aa87a7cd91b337270cc22a0e1bc74750702964a7793a3100b327b9d711660018a83604051808460048111156130b757fe5b60ff1681526020018060200180602001838103835285818151815260200191508051906020019080838360005b838110156130ff5780820151818401526020810190506130e4565b50505050905090810190601f16801561312c5780820380516001836020036101000a031916815260200191505b50838103825284818151815260200191508051906020019080838360005b8381101561316557808201518184015260208101905061314a565b50505050905090810190601f1680156131925780820380516001836020036101000a031916815260200191505b509550505050505060405180910390a1505050505050505050565b80600081101580156131c35750600e8054905081105b6131cc57600080fd5b6000809054906101000a900473ffffffffffffffffffffffffffffffffffffffff168073ffffffffffffffffffffffffffffffffffffffff163373ffffffffffffffffffffffffffffffffffffffff161461322657600080fd5b505050565b80600081101580156132415750600d8054905081105b61324a57600080fd5b6000809054906101000a900473ffffffffffffffffffffffffffffffffffffffff168073ffffffffffffffffffffffffffffffffffffffff163373ffffffffffffffffffffffffffffffffffffffff16146132a457600080fd5b505050565b6000809054906101000a900473ffffffffffffffffffffffffffffffffffffffff168073ffffffffffffffffffffffffffffffffffffffff163373ffffffffffffffffffffffffffffffffffffffff161461330357600080fd5b6000600e805490509050613315614984565b6040518060600160405280838152602001868152602001858152509050600e81908060018154018082558091505090600182039060005260206000209060030201600090919290919091506000820151816000015560208201518160010190805190602001906133869291906148ad565b5060408201518160020190805190602001906133a39291906148ad565b505050507f0f0a8ca77f40d3beb3a5c3b9a9abdfbfe3786ef0f5508d39ff1251089ff6a5b98282602001516040518083815260200180602001828103825283818151815260200191508051906020019080838360005b838110156134145780820151818401526020810190506133f9565b50505050905090810190601f1680156134415780820380516001836020036101000a031916815260200191505b50935050505060405180910390a15050505050565b60008060009054906101000a900473ffffffffffffffffffffffffffffffffffffffff16905090565b80600081101580156134955750600d8054905081105b61349e57600080fd5b6000809054906101000a900473ffffffffffffffffffffffffffffffffffffffff168073ffffffffffffffffffffffffffffffffffffffff163373ffffffffffffffffffffffffffffffffffffffff16146134f857600080fd5b505050565b6000600e80549050905090565b60608082600081101580156135235750600e8054905081105b61352c57600080fd5b613534614984565b600e858154811061354157fe5b906000526020600020906003020160405180606001604052908160008201548152602001600182018054600181600116156101000203166002900480601f0160208091040260200160405190810160405280929190818152602001828054600181600116156101000203166002900480156135fd5780601f106135d2576101008083540402835291602001916135fd565b820191906000526020600020905b8154815290600101906020018083116135e057829003601f168201915b50505050508152602001600282018054600181600116156101000203166002900480601f01602080910402602001604051908101604052809291908181526020018280546001816001161561010002031660029004801561369f5780601f106136745761010080835404028352916020019161369f565b820191906000526020600020905b81548152906001019060200180831161368257829003601f168201915b505050505081525050905080602001518160400151819150809050935093505050915091565b60048060000154908060010160009054906101000a900460ff1690806002018054600181600116156101000203166002900480601f0160208091040260200160405190810160405280929190818152602001828054600181600116156101000203166002900480156137785780601f1061374d57610100808354040283529160200191613778565b820191906000526020600020905b81548152906001019060200180831161375b57829003601f168201915b505050505090806003015490806004018054600181600116156101000203166002900480601f01602080910402602001604051908101604052809291908181526020018280546001816001161561010002031660029004801561381c5780601f106137f15761010080835404028352916020019161381c565b820191906000526020600020905b8154815290600101906020018083116137ff57829003601f168201915b505050505090806005015490806006015490806007015490806008018054600181600116156101000203166002900480601f0160208091040260200160405190810160405280929190818152602001828054600181600116156101000203166002900480156138cc5780601f106138a1576101008083540402835291602001916138cc565b820191906000526020600020905b8154815290600101906020018083116138af57829003601f168201915b5050505050905089565b6000809054906101000a900473ffffffffffffffffffffffffffffffffffffffff168073ffffffffffffffffffffffffffffffffffffffff163373ffffffffffffffffffffffffffffffffffffffff161461393057600080fd5b600082511161393e57600080fd5b81600190805190602001906139549291906149a5565b505050565b60608060026000018054600181600116156101000203166002900480601f0160208091040260200160405190810160405280929190818152602001828054600181600116156101000203166002900480156139f55780601f106139ca576101008083540402835291602001916139f5565b820191906000526020600020905b8154815290600101906020018083116139d857829003601f168201915b5050505050905060606040518060400160405280600281526020017f2c200000000000000000000000000000000000000000000000000000000000008152509050606060026001018054600181600116156101000203166002900480601f016020809104026020016040519081016040528092919081815260200182805460018160011615610100020316600290048015613ad15780601f10613aa657610100808354040283529160200191613ad1565b820191906000526020600020905b815481529060010190602001808311613ab457829003601f168201915b50505050509050606081518351855101016040519080825280601f01601f191660200182016040528015613b145781602001600182028038833980820191505090505b50905060008451148015613b29575060008251145b15613b495760405180602001604052806000815250945050505050613caf565b600080600090505b8551811015613bbf57858181518110613b6657fe5b602001015160f81c60f81b838380600101945081518110613b8357fe5b60200101907effffffffffffffffffffffffffffffffffffffffffffffffffffffffffffff1916908160001a9053508080600101915050613b51565b600090505b8451811015613c3257848181518110613bd957fe5b602001015160f81c60f81b838380600101945081518110613bf657fe5b60200101907effffffffffffffffffffffffffffffffffffffffffffffffffffffffffffff1916908160001a9053508080600101915050613bc4565b600090505b8351811015613ca557838181518110613c4c57fe5b602001015160f81c60f81b838380600101945081518110613c6957fe5b60200101907effffffffffffffffffffffffffffffffffffffffffffffffffffffffffffff1916908160001a9053508080600101915050613c37565b8296505050505050505b90565b6000809054906101000a900473ffffffffffffffffffffffffffffffffffffffff168073ffffffffffffffffffffffffffffffffffffffff163373ffffffffffffffffffffffffffffffffffffffff1614613d0c57600080fd5b60008351118015613d1e575060008251115b613d2757600080fd5b600f604051806040016040528085815260200184815250908060018154018082558091505090600182039060005260206000209060020201600090919290919091506000820151816000019080519060200190613d859291906148ad565b506020820151816001019080519060200190613da29291906148ad565b505050507f1a9d13975e05fcdd633f8e758f6379d22a2b9348a9da332b1e142d1f295f7666600f80549050836040518083815260200180602001828103825283818151815260200191508051906020019080838360005b83811015613e14578082015181840152602081019050613df9565b50505050905090810190601f168015613e415780820380516001836020036101000a031916815260200191505b50935050505060405180910390a1505050565b6000809054906101000a900473ffffffffffffffffffffffffffffffffffffffff168073ffffffffffffffffffffffffffffffffffffffff163373ffffffffffffffffffffffffffffffffffffffff1614613eae57600080fd5b8660008110158015613ec45750600e8054905081105b613ecd57600080fd5b6000600d805490509050613edf61492d565b6040518061012001604052808381526020018d6004811115613efd57fe5b81526020018c81526020018b81526020018a8152602001898152602001888152602001878152602001868152509050600d81908060018154018082558091505090600182039060005260206000209060090201600090919290919091506000820151816000015560208201518160010160006101000a81548160ff02191690836004811115613f8857fe5b02179055506040820151816002019080519060200190613fa99291906148ad565b50606082015181600301556080820151816004019080519060200190613fd09291906148ad565b5060a0820151816005015560c0820151816006015560e0820151816007015561010082015181600801908051906020019061400c9291906148ad565b50505050505050505050505050505050565b6000809054906101000a900473ffffffffffffffffffffffffffffffffffffffff168073ffffffffffffffffffffffffffffffffffffffff163373ffffffffffffffffffffffffffffffffffffffff161461407857600080fd5b836000811015801561408e5750600e8054905081105b61409757600080fd5b6060600e86815481106140a657fe5b90600052602060002090600302016001018054600181600116156101000203166002900480601f01602080910402602001604051908101604052809291908181526020018280546001816001161561010002031660029004801561414b5780601f106141205761010080835404028352916020019161414b565b820191906000526020600020905b81548152906001019060200180831161412e57829003601f168201915b5050505050905061417360048888886000898a60405180602001604052806000815250613e54565b7fd8c23aa87a7cd91b337270cc22a0e1bc74750702964a7793a3100b327b9d711660048883604051808460048111156141a857fe5b60ff1681526020018060200180602001838103835285818151815260200191508051906020019080838360005b838110156141f05780820151818401526020810190506141d5565b50505050905090810190601f16801561421d5780820380516001836020036101000a031916815260200191505b50838103825284818151815260200191508051906020019080838360005b8381101561425657808201518184015260208101905061423b565b50505050905090810190601f1680156142835780820380516001836020036101000a031916815260200191505b509550505050505060405180910390a150505050505050565b6000600d80549050905090565b6002806000018054600181600116156101000203166002900480601f0160208091040260200160405190810160405280929190818152602001828054600181600116156101000203166002900480156143435780601f1061431857610100808354040283529160200191614343565b820191906000526020600020905b81548152906001019060200180831161432657829003601f168201915b505050505090806001018054600181600116156101000203166002900480601f0160208091040260200160405190810160405280929190818152602001828054600181600116156101000203166002900480156143e15780601f106143b6576101008083540402835291602001916143e1565b820191906000526020600020905b8154815290600101906020018083116143c457829003601f168201915b5050505050905082565b6000601080549050905090565b6000809054906101000a900473ffffffffffffffffffffffffffffffffffffffff168073ffffffffffffffffffffffffffffffffffffffff163373ffffffffffffffffffffffffffffffffffffffff161461445257600080fd5b83600081101580156144685750600e8054905081105b61447157600080fd5b6060600e868154811061448057fe5b90600052602060002090600302016001018054600181600116156101000203166002900480601f0160208091040260200160405190810160405280929190818152602001828054600181600116156101000203166002900480156145255780601f106144fa57610100808354040283529160200191614525565b820191906000526020600020905b81548152906001019060200180831161450857829003601f168201915b5050505050905061454d60028888886000808a60405180602001604052806000815250613e54565b7fd8c23aa87a7cd91b337270cc22a0e1bc74750702964a7793a3100b327b9d7116600288836040518084600481111561458257fe5b60ff1681526020018060200180602001838103835285818151815260200191508051906020019080838360005b838110156145ca5780820151818401526020810190506145af565b50505050905090810190601f1680156145f75780820380516001836020036101000a031916815260200191505b50838103825284818151815260200191508051906020019080838360005b83811015614630578082015181840152602081019050614615565b50505050905090810190601f16801561465d5780820380516001836020036101000a031916815260200191505b509550505050505060405180910390a150505050505050565b806000811015801561468c5750600d8054905081105b61469557600080fd5b6000809054906101000a900473ffffffffffffffffffffffffffffffffffffffff168073ffffffffffffffffffffffffffffffffffffffff163373ffffffffffffffffffffffffffffffffffffffff16146146ef57600080fd5b505050565b6060806060614701613959565b9050600181818054600181600116156101000203166002900480601f01602080910402602001604051908101604052809291908181526020018280546001816001161561010002031660029004801561479b5780601f106147705761010080835404028352916020019161479b565b820191906000526020600020905b81548152906001019060200180831161477e57829003601f168201915b5050505050915092509250509091565b6000809054906101000a900473ffffffffffffffffffffffffffffffffffffffff168073ffffffffffffffffffffffffffffffffffffffff163373ffffffffffffffffffffffffffffffffffffffff161461480557600080fd5b60008351118015614817575060008251115b61482057600080fd5b604051806040016040528084815260200183815250600260008201518160000190805190602001906148539291906148ad565b5060208201518160010190805190602001906148709291906148ad565b50905050505050565b604051806040016040528060608152602001606081525090565b604051806040016040528060608152602001606081525090565b828054600181600116156101000203166002900490600052602060002090601f016020900481019282601f106148ee57805160ff191683800117855561491c565b8280016001018555821561491c579182015b8281111561491b578251825591602001919060010190614900565b5b5090506149299190614a25565b5090565b604051806101200160405280600081526020016000600481111561494d57fe5b8152602001606081526020016000815260200160608152602001600081526020016000815260200160008152602001606081525090565b60405180606001604052806000815260200160608152602001606081525090565b828054600181600116156101000203166002900490600052602060002090601f016020900481019282601f106149e657805160ff1916838001178555614a14565b82800160010185558215614a14579182015b82811115614a135782518255916020019190600101906149f8565b5b509050614a219190614a25565b5090565b614a4791905b80821115614a43576000816000905550600101614a2b565b5090565b9056fea165627a7a72305820408f87536201d00a966e083e40ee91374a0b3f99d11c7ce54e5fb4233771db2d0029",
  "source": "pragma solidity >=0.4.0 <0.7.0;\n\ncontract Resume {\n\n  address private owner = msg.sender;\n  string private name;\n  Location public locale;\n  Role public profession;\n  string constant seperator = \", \";\n  Role[] experience;\n  Entity[] entities;\n  Location[] locations;\n  Link[] links;\n\n  enum RoleType {\n    Occupation,\n    Education,\n    Award,\n    Community,\n    Publication\n  }\n\n  struct Role {\n    uint index;\n    RoleType role;\n    string title;\n    uint employer_index;\n    string description;\n    uint location_index;\n    uint start_date;\n    uint end_date;\n    string skills;\n  }\n\n  struct Entity {\n    uint index;\n    string name;\n    string thumb;\n  }\n\n  struct Location {\n    string city;\n    string country;\n  }\n  \n  struct Link {\n    string label;\n    string url;\n  }\n\n  event RoleListed(RoleType role, string title, string entityName);\n  event OccupationChanged(uint atIndex, string fields);\n  event OccupationRemoved(string title);\n  event OccupationSet(uint id, string title);\n  event EntityCreated(uint atIndex, string name);\n  event ListedSkill(string skill, uint index);\n  event LocationListed(uint atIndex, string location);\n  event LinkCreated(uint atIndex, string label, string url);\n\n  modifier onlyBy(address account) {\n    // Check if caller address matches owner address\n    require(msg.sender == account);\n    _;\n  }\n\n  modifier whenRoleExists(uint atIndex) {\n    // Check if the occupation exists at the specified index\n    require(atIndex >= 0 && atIndex < experience.length);\n    _;\n  }\n\n  modifier whenEntityExists(uint atIndex) {\n    // Check if the Entity exists within the range\n    require(atIndex >= 0 && atIndex < entities.length);\n    _;\n  }\n\n  modifier whenLinkExists(uint atIndex) {\n    // Check if the skill already listed\n    require(atIndex >= 0 && atIndex < links.length);\n    _;\n  }\n\n  function setOwner(address newOwner) public onlyBy(owner) {\n    require(newOwner != owner);\n    owner = newOwner;\n  }\n\n  function getOwner() public view returns (address) {\n    return owner;\n  }\n\n  function setName(string memory newName) public onlyBy(owner) payable {\n    require(bytes(newName).length > 0);\n    name = newName;\n  }\n\n  function setLocation(string memory city, string memory country) public onlyBy(owner) payable {\n    require(bytes(city).length > 0 && bytes(country).length > 0);\n    locale = Location(city, country);\n  }\n\n  function addLocation(string memory city, string memory country) public onlyBy(owner) payable {\n    require(bytes(city).length > 0 && bytes(country).length > 0);\n    locations.push(Location(city, country));\n    emit LocationListed(locations.length, country);\n  }\n\n  function getDetails() public view returns (string memory, string memory) {\n    string memory location = getLocation();\n    return (name, location);\n  }\n\n  function getLocation() public view returns (string memory) {\n    bytes memory city = bytes(locale.city);\n    bytes memory divider = bytes(seperator);\n    bytes memory country = bytes(locale.country);\n    bytes memory temp = new bytes(city.length + divider.length + country.length);\n\n    if (city.length == 0 && country.length == 0) {\n      return '';\n    }\n\n    uint counter;\n    uint index;\n    for (index = 0; index < city.length; index++) {\n      temp[counter++] = city[index];\n    }\n    for (index = 0; index < divider.length; index++) {\n      temp[counter++] = divider[index];\n    }\n    for (index = 0; index < country.length; index++) {\n      temp[counter++] = country[index];\n    }\n\n    return string(temp);\n  }\n\n  function getLocationAtIndex(uint atIndex) public view returns (string memory) {\n    Location memory loc = locations[atIndex];\n    bytes memory city = bytes(loc.city);\n    bytes memory divider = bytes(seperator);\n    bytes memory country = bytes(loc.country);\n    bytes memory temp = new bytes(city.length + divider.length + country.length);\n\n    uint counter;\n    uint index;\n    for (index = 0; index < city.length; index++) {\n      temp[counter++] = city[index];\n    }\n    for (index = 0; index < divider.length; index++) {\n      temp[counter++] = divider[index];\n    }\n    for (index = 0; index < country.length; index++) {\n      temp[counter++] = country[index];\n    }\n\n    return string(temp);\n  }\n\n  function addPublication(string memory title, uint entityIndex, string memory description, uint endDate) public onlyBy(owner) whenEntityExists(entityIndex) payable {\n    string memory entityName = entities[entityIndex].name;\n    addRole(RoleType.Publication, title, entityIndex, description, 0, endDate, endDate, '');\n    emit RoleListed(RoleType.Publication, title, entityName);\n  }\n\n  function addEducation(string memory title, uint entityIndex, string memory description,  uint locationIndex, uint startDate, uint endDate) public onlyBy(owner) whenEntityExists(entityIndex) payable {\n    string memory entityName = entities[entityIndex].name;\n    addRole(RoleType.Education, title, entityIndex, description, locationIndex, startDate, endDate, '');\n    emit RoleListed(RoleType.Education, title, entityName);\n  }\n\n  function addOccupation(string memory title, uint entityIndex, string memory description,  uint locationIndex, uint startDate, uint endDate, string memory skills) public onlyBy(owner) whenEntityExists(entityIndex) payable {\n    string memory entityName = entities[entityIndex].name;\n    addRole(RoleType.Occupation, title, entityIndex, description, locationIndex, startDate, endDate, skills);\n    emit RoleListed(RoleType.Occupation, title, entityName);\n  }\n\n  function addCommunity(string memory title, uint entityIndex, string memory description,  uint startDate, uint endDate) public onlyBy(owner) whenEntityExists(entityIndex) payable {\n    string memory entityName = entities[entityIndex].name;\n    addRole(RoleType.Community, title, entityIndex, description, 0, startDate, endDate, '');\n    emit RoleListed(RoleType.Community, title, entityName);\n  }\n\n  function addAward(string memory title, uint entityIndex, string memory description,  uint endDate) public onlyBy(owner) whenEntityExists(entityIndex) payable {\n    string memory entityName = entities[entityIndex].name;\n    addRole(RoleType.Award, title, entityIndex, description, 0, 0, endDate, '');\n    emit RoleListed(RoleType.Award, title, entityName);\n  }\n\n  function addRole(RoleType typeIndex, string memory title, uint entityIndex, string memory description, uint locationIndex, uint startDate, uint endDate, string memory skills) public onlyBy(owner) whenEntityExists(entityIndex) {\n    uint atIndex = experience.length;\n    // Construct role item\n    Role memory roleItem = Role(atIndex, typeIndex, title, entityIndex, description, locationIndex, startDate, endDate, skills);\n    // List role item\n    experience.push(roleItem);\n  }\n\n  function updateRole(uint atIndex) public whenRoleExists(atIndex) payable onlyBy(owner) {\n    // Fetch the existing occupation at index\n    // Set fields which have changed\n      // Capture change field name\n    // Update the occupation at index\n    // Notify of field changes\n  }\n\n  function getRole(uint atIndex) public whenRoleExists(atIndex) view returns (RoleType, string memory, string memory, string memory, string memory, string memory, uint, uint, string memory) {\n    // Fetch the occupation matching at the specified index\n    // Fetch the occupations location\n      // Stringify location into the format \"CITY, COUNTRY\"\n    // Search and replace skill identifiers to skill names\n      // Stringify skills with delimiter\n    // Return tuple of occupation data\n      // (title, employer, thumb, description, locationString, startDate, endDate, skillCollection);\n    Role memory roleItem = experience[atIndex];\n    //Entity memory org = Entities[roleItem.employer_index];\n    //Location memory geo = locations[roleItem.location_index];\n    string memory entityName = entities[roleItem.employer_index].name;\n    string memory orgThumb = entities[roleItem.employer_index].thumb;\n    string memory roleLocation = getLocationAtIndex(roleItem.location_index);\n    return (roleItem.role, roleItem.title, entityName, orgThumb, roleItem.description, roleLocation, roleItem.start_date, roleItem.end_date, roleItem.skills);\n  }\n\n  function countRoles() public view returns (uint) {\n    return experience.length;\n  }\n\n  function removeRole(uint atIndex) public whenRoleExists(atIndex) payable onlyBy(owner) {\n    // Remove the role at the specified index\n    // Reallocate array to fill empty slot or use an index pointer\n  }\n\n  function addEntity(string memory entityName, string memory thumb) public payable onlyBy(owner)  {\n    // Capture the next available index\n    uint index = entities.length;\n    // Initialize a new Entity\n    Entity memory org = Entity(index, entityName, thumb);\n    // Store Entity and notify\n    entities.push(org);\n    emit EntityCreated(index, org.name);\n  }\n\n  function updateEntity(uint withID) public whenRoleExists(withID) payable onlyBy(owner) {\n\n  }\n\n  function removeEntity(uint withID) public whenEntityExists(withID) payable onlyBy(owner) {\n\n  }\n\n  function getEntity(uint atIndex) public whenEntityExists(atIndex) view returns (string memory, string memory) {\n    Entity memory result = entities[atIndex];\n    return (result.name, result.thumb);\n  }\n\n  function countEntities() public view returns (uint) {\n    return entities.length;\n  }\n\n  function addLink(string memory label, string memory url) public payable onlyBy(owner) {\n    uint atIndex = links.length;\n    Link memory ref = Link(label, url);\n    links.push(ref);\n    emit LinkCreated(atIndex, label, url);\n  }\n\n  function countLinks() public view returns (uint) {\n    return links.length;\n  }\n\n  function getLink(uint atIndex) public whenLinkExists(atIndex) view returns (string memory, string memory) {\n    Link memory ref = links[atIndex];\n    return (ref.label, ref.url);\n  }\n}",
  "sourcePath": "/Users/mitchpierias/Developer/dapp-academy/contracts/Resume.sol",
  "compiler": {
    "name": "solc",
    "version": "0.5.8+commit.23d335f2.Emscripten.clang"
  },
  "schemaVersion": "3.0.16",
  "updatedAt": "2020-02-19T10:01:27.440Z",
  "devdoc": {
    "methods": {}
  },
  "userdoc": {
    "methods": {}
  }
}