{
  "contractName": "Resume",
  "abi": [
    {
      "constant": true,
      "inputs": [],
      "name": "status",
      "outputs": [
        {
          "name": "",
          "type": "uint8"
        }
      ],
      "payable": false,
      "stateMutability": "view",
      "type": "function"
    },
    {
      "constant": true,
      "inputs": [
        {
          "name": "",
          "type": "uint256"
        }
      ],
      "name": "skills",
      "outputs": [
        {
          "name": "",
          "type": "string"
        }
      ],
      "payable": false,
      "stateMutability": "view",
      "type": "function"
    },
    {
      "constant": true,
      "inputs": [],
      "name": "profession",
      "outputs": [
        {
          "name": "index",
          "type": "uint256"
        },
        {
          "name": "role",
          "type": "string"
        },
        {
          "name": "employer_id",
          "type": "uint256"
        },
        {
          "name": "description",
          "type": "string"
        },
        {
          "name": "link",
          "type": "string"
        },
        {
          "name": "location_id",
          "type": "uint256"
        },
        {
          "name": "start_date",
          "type": "uint256"
        },
        {
          "name": "end_date",
          "type": "uint256"
        }
      ],
      "payable": false,
      "stateMutability": "view",
      "type": "function"
    },
    {
      "constant": true,
      "inputs": [],
      "name": "locale",
      "outputs": [
        {
          "name": "city",
          "type": "string"
        },
        {
          "name": "country",
          "type": "string"
        }
      ],
      "payable": false,
      "stateMutability": "view",
      "type": "function"
    },
    {
      "anonymous": false,
      "inputs": [
        {
          "indexed": false,
          "name": "atIndex",
          "type": "uint256"
        },
        {
          "indexed": false,
          "name": "title",
          "type": "string"
        },
        {
          "indexed": false,
          "name": "organisation",
          "type": "string"
        }
      ],
      "name": "OccupationListed",
      "type": "event"
    },
    {
      "anonymous": false,
      "inputs": [
        {
          "indexed": false,
          "name": "atIndex",
          "type": "uint256"
        },
        {
          "indexed": false,
          "name": "fields",
          "type": "string"
        }
      ],
      "name": "OccupationChanged",
      "type": "event"
    },
    {
      "anonymous": false,
      "inputs": [
        {
          "indexed": false,
          "name": "title",
          "type": "string"
        }
      ],
      "name": "OccupationRemoved",
      "type": "event"
    },
    {
      "anonymous": false,
      "inputs": [
        {
          "indexed": false,
          "name": "id",
          "type": "uint256"
        },
        {
          "indexed": false,
          "name": "role",
          "type": "string"
        }
      ],
      "name": "OccupationSet",
      "type": "event"
    },
    {
      "constant": false,
      "inputs": [
        {
          "name": "newOwner",
          "type": "address"
        }
      ],
      "name": "setOwner",
      "outputs": [],
      "payable": false,
      "stateMutability": "nonpayable",
      "type": "function"
    },
    {
      "constant": true,
      "inputs": [],
      "name": "getOwner",
      "outputs": [
        {
          "name": "",
          "type": "address"
        }
      ],
      "payable": false,
      "stateMutability": "view",
      "type": "function"
    },
    {
      "constant": false,
      "inputs": [
        {
          "name": "newName",
          "type": "string"
        }
      ],
      "name": "setName",
      "outputs": [],
      "payable": true,
      "stateMutability": "payable",
      "type": "function"
    },
    {
      "constant": true,
      "inputs": [],
      "name": "getName",
      "outputs": [
        {
          "name": "",
          "type": "string"
        }
      ],
      "payable": false,
      "stateMutability": "view",
      "type": "function"
    },
    {
      "constant": false,
      "inputs": [
        {
          "name": "city",
          "type": "string"
        },
        {
          "name": "country",
          "type": "string"
        }
      ],
      "name": "setLocation",
      "outputs": [],
      "payable": true,
      "stateMutability": "payable",
      "type": "function"
    },
    {
      "constant": true,
      "inputs": [],
      "name": "getLocation",
      "outputs": [
        {
          "name": "",
          "type": "string"
        }
      ],
      "payable": false,
      "stateMutability": "view",
      "type": "function"
    },
    {
      "constant": false,
      "inputs": [
        {
          "name": "role",
          "type": "string"
        },
        {
          "name": "employerIndex",
          "type": "uint256"
        },
        {
          "name": "description",
          "type": "string"
        },
        {
          "name": "link",
          "type": "string"
        },
        {
          "name": "locationIndex",
          "type": "uint256"
        },
        {
          "name": "startDate",
          "type": "uint256"
        },
        {
          "name": "endDate",
          "type": "uint256"
        }
      ],
      "name": "addOccupation",
      "outputs": [],
      "payable": true,
      "stateMutability": "payable",
      "type": "function"
    },
    {
      "constant": false,
      "inputs": [
        {
          "name": "withIndex",
          "type": "uint256"
        }
      ],
      "name": "setOccupation",
      "outputs": [],
      "payable": true,
      "stateMutability": "payable",
      "type": "function"
    },
    {
      "constant": false,
      "inputs": [
        {
          "name": "atIndex",
          "type": "uint256"
        }
      ],
      "name": "updateOccupation",
      "outputs": [],
      "payable": true,
      "stateMutability": "payable",
      "type": "function"
    },
    {
      "constant": true,
      "inputs": [
        {
          "name": "atIndex",
          "type": "uint256"
        }
      ],
      "name": "getOccupation",
      "outputs": [
        {
          "name": "",
          "type": "string"
        },
        {
          "name": "",
          "type": "string"
        },
        {
          "name": "",
          "type": "string"
        },
        {
          "name": "",
          "type": "string"
        },
        {
          "name": "",
          "type": "string"
        },
        {
          "name": "",
          "type": "uint256"
        },
        {
          "name": "",
          "type": "uint256"
        }
      ],
      "payable": false,
      "stateMutability": "view",
      "type": "function"
    },
    {
      "constant": true,
      "inputs": [],
      "name": "countOccupations",
      "outputs": [
        {
          "name": "",
          "type": "uint256"
        }
      ],
      "payable": false,
      "stateMutability": "view",
      "type": "function"
    },
    {
      "constant": false,
      "inputs": [
        {
          "name": "atIndex",
          "type": "uint256"
        }
      ],
      "name": "removeOccupation",
      "outputs": [],
      "payable": true,
      "stateMutability": "payable",
      "type": "function"
    },
    {
      "constant": false,
      "inputs": [
        {
          "name": "orgName",
          "type": "string"
        }
      ],
      "name": "addOrganization",
      "outputs": [],
      "payable": true,
      "stateMutability": "payable",
      "type": "function"
    },
    {
      "constant": false,
      "inputs": [
        {
          "name": "withID",
          "type": "uint256"
        }
      ],
      "name": "updateOrganization",
      "outputs": [],
      "payable": true,
      "stateMutability": "payable",
      "type": "function"
    },
    {
      "constant": false,
      "inputs": [
        {
          "name": "withID",
          "type": "uint256"
        }
      ],
      "name": "removeOrganization",
      "outputs": [],
      "payable": true,
      "stateMutability": "payable",
      "type": "function"
    },
    {
      "constant": false,
      "inputs": [
        {
          "name": "atIndex",
          "type": "uint256"
        },
        {
          "name": "startDate",
          "type": "uint256"
        },
        {
          "name": "endDate",
          "type": "uint256"
        }
      ],
      "name": "updateOccupationTimeline",
      "outputs": [],
      "payable": true,
      "stateMutability": "payable",
      "type": "function"
    }
  ],
  "bytecode": "0x6080604052336000806101000a81548173ffffffffffffffffffffffffffffffffffffffff021916908373ffffffffffffffffffffffffffffffffffffffff16021790555034801561005057600080fd5b50612b7b806100606000396000f3fe60806040526004361061011f5760003560e01c8063a35eab0d116100a0578063ce2ce3fc11610064578063ce2ce3fc14610bb0578063ec7bb03b14610c40578063ee3ee48014610d3c578063fe586c9a14610d7e578063ff618b5314610ed05761011f565b8063a35eab0d14610700578063b26086291461072e578063bd037c931461093f578063c47f002714610aca578063cdd7a49614610b855761011f565b80633a88c109116100e75780633a88c109146104de57806350d15fbe1461050c578063710de504146105c05780637a3aa9501461067b578063893d20e8146106a95761011f565b806313af40351461012457806315b2d0f614610175578063178c801a146103e757806317d7de7c14610415578063200d2ed2146104a5575b600080fd5b34801561013057600080fd5b506101736004803603602081101561014757600080fd5b81019080803573ffffffffffffffffffffffffffffffffffffffff169060200190929190505050610efe565b005b34801561018157600080fd5b506101ae6004803603602081101561019857600080fd5b8101908080359060200190929190505050610ff6565b60405180806020018060200180602001806020018060200188815260200187815260200186810386528d818151815260200191508051906020019080838360005b8381101561020a5780820151818401526020810190506101ef565b50505050905090810190601f1680156102375780820380516001836020036101000a031916815260200191505b5086810385528c818151815260200191508051906020019080838360005b83811015610270578082015181840152602081019050610255565b50505050905090810190601f16801561029d5780820380516001836020036101000a031916815260200191505b5086810384528b818151815260200191508051906020019080838360005b838110156102d65780820151818401526020810190506102bb565b50505050905090810190601f1680156103035780820380516001836020036101000a031916815260200191505b5086810383528a818151815260200191508051906020019080838360005b8381101561033c578082015181840152602081019050610321565b50505050905090810190601f1680156103695780820380516001836020036101000a031916815260200191505b50868103825289818151815260200191508051906020019080838360005b838110156103a2578082015181840152602081019050610387565b50505050905090810190601f1680156103cf5780820380516001836020036101000a031916815260200191505b509c5050505050505050505050505060405180910390f35b610413600480360360208110156103fd57600080fd5b8101908080359060200190929190505050611972565b005b34801561042157600080fd5b5061042a6119f0565b6040518080602001828103825283818151815260200191508051906020019080838360005b8381101561046a57808201518184015260208101905061044f565b50505050905090810190601f1680156104975780820380516001836020036101000a031916815260200191505b509250505060405180910390f35b3480156104b157600080fd5b506104ba611a92565b604051808260038111156104ca57fe5b60ff16815260200191505060405180910390f35b61050a600480360360208110156104f457600080fd5b8101908080359060200190929190505050611aa5565b005b34801561051857600080fd5b506105456004803603602081101561052f57600080fd5b8101908080359060200190929190505050611b23565b6040518080602001828103825283818151815260200191508051906020019080838360005b8381101561058557808201518184015260208101905061056a565b50505050905090810190601f1680156105b25780820380516001836020036101000a031916815260200191505b509250505060405180910390f35b610679600480360360208110156105d657600080fd5b81019080803590602001906401000000008111156105f357600080fd5b82018360208201111561060557600080fd5b8035906020019184600183028401116401000000008311171561062757600080fd5b91908080601f016020809104026020016040519081016040528093929190818152602001838380828437600081840152601f19601f820116905080830192505050505050509192919290505050611bdc565b005b6106a76004803603602081101561069157600080fd5b8101908080359060200190929190505050611c3c565b005b3480156106b557600080fd5b506106be611cba565b604051808273ffffffffffffffffffffffffffffffffffffffff1673ffffffffffffffffffffffffffffffffffffffff16815260200191505060405180910390f35b61072c6004803603602081101561071657600080fd5b8101908080359060200190929190505050611ce3565b005b61093d600480360360e081101561074457600080fd5b810190808035906020019064010000000081111561076157600080fd5b82018360208201111561077357600080fd5b8035906020019184600183028401116401000000008311171561079557600080fd5b91908080601f016020809104026020016040519081016040528093929190818152602001838380828437600081840152601f19601f820116905080830192505050505050509192919290803590602001909291908035906020019064010000000081111561080257600080fd5b82018360208201111561081457600080fd5b8035906020019184600183028401116401000000008311171561083657600080fd5b91908080601f016020809104026020016040519081016040528093929190818152602001838380828437600081840152601f19601f8201169050808301925050505050505091929192908035906020019064010000000081111561089957600080fd5b8201836020820111156108ab57600080fd5b803590602001918460018302840111640100000000831117156108cd57600080fd5b91908080601f016020809104026020016040519081016040528093929190818152602001838380828437600081840152601f19601f820116905080830192505050505050509192919290803590602001909291908035906020019092919080359060200190929190505050611d43565b005b34801561094b57600080fd5b50610954611fb7565b6040518089815260200180602001888152602001806020018060200187815260200186815260200185815260200184810384528b818151815260200191508051906020019080838360005b838110156109ba57808201518184015260208101905061099f565b50505050905090810190601f1680156109e75780820380516001836020036101000a031916815260200191505b50848103835289818151815260200191508051906020019080838360005b83811015610a20578082015181840152602081019050610a05565b50505050905090810190601f168015610a4d5780820380516001836020036101000a031916815260200191505b50848103825288818151815260200191508051906020019080838360005b83811015610a86578082015181840152602081019050610a6b565b50505050905090810190601f168015610ab35780820380516001836020036101000a031916815260200191505b509b50505050505050505050505060405180910390f35b610b8360048036036020811015610ae057600080fd5b8101908080359060200190640100000000811115610afd57600080fd5b820183602082011115610b0f57600080fd5b80359060200191846001830284011164010000000083111715610b3157600080fd5b91908080601f016020809104026020016040519081016040528093929190818152602001838380828437600081840152601f19601f8201169050808301925050505050505091929192905050506121b5565b005b348015610b9157600080fd5b50610b9a612238565b6040518082815260200191505060405180910390f35b348015610bbc57600080fd5b50610bc5612245565b6040518080602001828103825283818151815260200191508051906020019080838360005b83811015610c05578082015181840152602081019050610bea565b50505050905090810190601f168015610c325780820380516001836020036101000a031916815260200191505b509250505060405180910390f35b348015610c4c57600080fd5b50610c5561256b565b604051808060200180602001838103835285818151815260200191508051906020019080838360005b83811015610c99578082015181840152602081019050610c7e565b50505050905090810190601f168015610cc65780820380516001836020036101000a031916815260200191505b50838103825284818151815260200191508051906020019080838360005b83811015610cff578082015181840152602081019050610ce4565b50505050905090810190601f168015610d2c5780820380516001836020036101000a031916815260200191505b5094505050505060405180910390f35b610d7c60048036036060811015610d5257600080fd5b810190808035906020019092919080359060200190929190803590602001909291905050506126ad565b005b610ece60048036036040811015610d9457600080fd5b8101908080359060200190640100000000811115610db157600080fd5b820183602082011115610dc357600080fd5b80359060200191846001830284011164010000000083111715610de557600080fd5b91908080601f016020809104026020016040519081016040528093929190818152602001838380828437600081840152601f19601f82011690508083019250505050505050919291929080359060200190640100000000811115610e4857600080fd5b820183602082011115610e5a57600080fd5b80359060200191846001830284011164010000000083111715610e7c57600080fd5b91908080601f016020809104026020016040519081016040528093929190818152602001838380828437600081840152601f19601f82011690508083019250505050505050919291929050505061272d565b005b610efc60048036036020811015610ee657600080fd5b81019080803590602001909291905050506127fb565b005b6000809054906101000a900473ffffffffffffffffffffffffffffffffffffffff168073ffffffffffffffffffffffffffffffffffffffff163373ffffffffffffffffffffffffffffffffffffffff1614610f5857600080fd5b6000809054906101000a900473ffffffffffffffffffffffffffffffffffffffff1673ffffffffffffffffffffffffffffffffffffffff168273ffffffffffffffffffffffffffffffffffffffff161415610fb257600080fd5b816000806101000a81548173ffffffffffffffffffffffffffffffffffffffff021916908373ffffffffffffffffffffffffffffffffffffffff1602179055505050565b606080606080606060008087600081101580156110175750600f8054905081105b61102057600080fd5b611028612879565b600f8a8154811061103557fe5b90600052602060002090600902016040518061012001604052908160008201548152602001600182018054600181600116156101000203166002900480601f0160208091040260200160405190810160405280929190818152602001828054600181600116156101000203166002900480156110f25780601f106110c7576101008083540402835291602001916110f2565b820191906000526020600020905b8154815290600101906020018083116110d557829003601f168201915b5050505050815260200160028201548152602001600382018054600181600116156101000203166002900480601f01602080910402602001604051908101604052809291908181526020018280546001816001161561010002031660029004801561119e5780601f106111735761010080835404028352916020019161119e565b820191906000526020600020905b81548152906001019060200180831161118157829003601f168201915b50505050508152602001600482018054600181600116156101000203166002900480601f0160208091040260200160405190810160405280929190818152602001828054600181600116156101000203166002900480156112405780601f1061121557610100808354040283529160200191611240565b820191906000526020600020905b81548152906001019060200180831161122357829003601f168201915b5050505050815260200160058201548152602001600682015481526020016007820154815260200160088201805480602002602001604051908101604052809291908181526020016000905b82821015611348578382906000526020600020018054600181600116156101000203166002900480601f0160208091040260200160405190810160405280929190818152602001828054600181600116156101000203166002900480156113345780601f1061130957610100808354040283529160200191611334565b820191906000526020600020905b81548152906001019060200180831161131757829003601f168201915b50505050508152602001906001019061128c565b5050505081525050905061135a6128c5565b60126000836040015181526020019081526020016000206040518060c001604052908160008201548152602001600182018054600181600116156101000203166002900480601f01602080910402602001604051908101604052809291908181526020018280546001816001161561010002031660029004801561141f5780601f106113f45761010080835404028352916020019161141f565b820191906000526020600020905b81548152906001019060200180831161140257829003601f168201915b50505050508152602001600282018054600181600116156101000203166002900480601f0160208091040260200160405190810160405280929190818152602001828054600181600116156101000203166002900480156114c15780601f10611496576101008083540402835291602001916114c1565b820191906000526020600020905b8154815290600101906020018083116114a457829003601f168201915b50505050508152602001600382018054600181600116156101000203166002900480601f0160208091040260200160405190810160405280929190818152602001828054600181600116156101000203166002900480156115635780601f1061153857610100808354040283529160200191611563565b820191906000526020600020905b81548152906001019060200180831161154657829003601f168201915b50505050508152602001600482018054600181600116156101000203166002900480601f0160208091040260200160405190810160405280929190818152602001828054600181600116156101000203166002900480156116055780601f106115da57610100808354040283529160200191611605565b820191906000526020600020905b8154815290600101906020018083116115e857829003601f168201915b5050505050815260200160058201604051806040016040529081600082018054600181600116156101000203166002900480601f0160208091040260200160405190810160405280929190818152602001828054600181600116156101000203166002900480156116b75780601f1061168c576101008083540402835291602001916116b7565b820191906000526020600020905b81548152906001019060200180831161169a57829003601f168201915b50505050508152602001600182018054600181600116156101000203166002900480601f0160208091040260200160405190810160405280929190818152602001828054600181600116156101000203166002900480156117595780601f1061172e57610100808354040283529160200191611759565b820191906000526020600020905b81548152906001019060200180831161173c57829003601f168201915b505050505081525050815250509050611770612901565b601160008460a001518152602001908152602001600020604051806040016040529081600082018054600181600116156101000203166002900480601f01602080910402602001604051908101604052809291908181526020018280546001816001161561010002031660029004801561182b5780601f106118005761010080835404028352916020019161182b565b820191906000526020600020905b81548152906001019060200180831161180e57829003601f168201915b50505050508152602001600182018054600181600116156101000203166002900480601f0160208091040260200160405190810160405280929190818152602001828054600181600116156101000203166002900480156118cd5780601f106118a2576101008083540402835291602001916118cd565b820191906000526020600020905b8154815290600101906020018083116118b057829003601f168201915b50505050508152505090506060604051806060016040528060218152602001612b2f60219139905060606040518060400160405280601381526020017f4272697362616e652c204175737472616c696100000000000000000000000000815250905084602001518286606001518760800151848960c001518a60e001518696508494508393509c509c509c509c509c509c509c50505050505050919395979092949650565b80600081101580156119885750600f8054905081105b61199157600080fd5b6000809054906101000a900473ffffffffffffffffffffffffffffffffffffffff168073ffffffffffffffffffffffffffffffffffffffff163373ffffffffffffffffffffffffffffffffffffffff16146119eb57600080fd5b505050565b606060018054600181600116156101000203166002900480601f016020809104026020016040519081016040528092919081815260200182805460018160011615610100020316600290048015611a885780601f10611a5d57610100808354040283529160200191611a88565b820191906000526020600020905b815481529060010190602001808311611a6b57829003601f168201915b5050505050905090565b600d60009054906101000a900460ff1681565b8060008110158015611abb5750600f8054905081105b611ac457600080fd5b6000809054906101000a900473ffffffffffffffffffffffffffffffffffffffff168073ffffffffffffffffffffffffffffffffffffffff163373ffffffffffffffffffffffffffffffffffffffff1614611b1e57600080fd5b505050565b600e8181548110611b3057fe5b906000526020600020016000915090508054600181600116156101000203166002900480601f016020809104026020016040519081016040528092919081815260200182805460018160011615610100020316600290048015611bd45780601f10611ba957610100808354040283529160200191611bd4565b820191906000526020600020905b815481529060010190602001808311611bb757829003601f168201915b505050505081565b806000809054906101000a900473ffffffffffffffffffffffffffffffffffffffff168073ffffffffffffffffffffffffffffffffffffffff163373ffffffffffffffffffffffffffffffffffffffff1614611c3757600080fd5b505050565b8060008110158015611c525750600f8054905081105b611c5b57600080fd5b6000809054906101000a900473ffffffffffffffffffffffffffffffffffffffff168073ffffffffffffffffffffffffffffffffffffffff163373ffffffffffffffffffffffffffffffffffffffff1614611cb557600080fd5b505050565b60008060009054906101000a900473ffffffffffffffffffffffffffffffffffffffff16905090565b806000809054906101000a900473ffffffffffffffffffffffffffffffffffffffff168073ffffffffffffffffffffffffffffffffffffffff163373ffffffffffffffffffffffffffffffffffffffff1614611d3e57600080fd5b505050565b6000809054906101000a900473ffffffffffffffffffffffffffffffffffffffff168073ffffffffffffffffffffffffffffffffffffffff163373ffffffffffffffffffffffffffffffffffffffff1614611d9d57600080fd5b6060611da7612879565b604051806101200160405280600f8054905081526020018b81526020018a8152602001898152602001888152602001878152602001868152602001858152602001838152509050600f8190806001815401808255809150509060018203906000526020600020906009020160009091929091909150600082015181600001556020820151816001019080519060200190611e4292919061291b565b50604082015181600201556060820151816003019080519060200190611e6992919061291b565b506080820151816004019080519060200190611e8692919061291b565b5060a0820151816005015560c0820151816006015560e08201518160070155610100820151816008019080519060200190611ec292919061299b565b505050507fe18d80f65fc8bc8a5ce44fb290ddff552e5f51d0120c567d37f1118f1f2dfe8d81600001518260200151604051808381526020018060200180602001838103835284818151815260200191508051906020019080838360005b83811015611f3b578082015181840152602081019050611f20565b50505050905090810190601f168015611f685780820380516001836020036101000a031916815260200191505b50838103825260078152602001807f446f6d696e6f730000000000000000000000000000000000000000000000000081525060200194505050505060405180910390a150505050505050505050565b6004806000015490806001018054600181600116156101000203166002900480601f0160208091040260200160405190810160405280929190818152602001828054600181600116156101000203166002900480156120575780601f1061202c57610100808354040283529160200191612057565b820191906000526020600020905b81548152906001019060200180831161203a57829003601f168201915b505050505090806002015490806003018054600181600116156101000203166002900480601f0160208091040260200160405190810160405280929190818152602001828054600181600116156101000203166002900480156120fb5780601f106120d0576101008083540402835291602001916120fb565b820191906000526020600020905b8154815290600101906020018083116120de57829003601f168201915b505050505090806004018054600181600116156101000203166002900480601f0160208091040260200160405190810160405280929190818152602001828054600181600116156101000203166002900480156121995780601f1061216e57610100808354040283529160200191612199565b820191906000526020600020905b81548152906001019060200180831161217c57829003601f168201915b5050505050908060050154908060060154908060070154905088565b6000809054906101000a900473ffffffffffffffffffffffffffffffffffffffff168073ffffffffffffffffffffffffffffffffffffffff163373ffffffffffffffffffffffffffffffffffffffff161461220f57600080fd5b600082511161221d57600080fd5b81600190805190602001906122339291906129fb565b505050565b6000600f80549050905090565b60608060026000018054600181600116156101000203166002900480601f0160208091040260200160405190810160405280929190818152602001828054600181600116156101000203166002900480156122e15780601f106122b6576101008083540402835291602001916122e1565b820191906000526020600020905b8154815290600101906020018083116122c457829003601f168201915b5050505050905060606040518060400160405280600281526020017f2c200000000000000000000000000000000000000000000000000000000000008152509050606060026001018054600181600116156101000203166002900480601f0160208091040260200160405190810160405280929190818152602001828054600181600116156101000203166002900480156123bd5780601f10612392576101008083540402835291602001916123bd565b820191906000526020600020905b8154815290600101906020018083116123a057829003601f168201915b50505050509050606081518351855101016040519080825280601f01601f1916602001820160405280156124005781602001600182028038833980820191505090505b509050600080600090505b85518110156124795785818151811061242057fe5b602001015160f81c60f81b83838060010194508151811061243d57fe5b60200101907effffffffffffffffffffffffffffffffffffffffffffffffffffffffffffff1916908160001a905350808060010191505061240b565b600090505b84518110156124ec5784818151811061249357fe5b602001015160f81c60f81b8383806001019450815181106124b057fe5b60200101907effffffffffffffffffffffffffffffffffffffffffffffffffffffffffffff1916908160001a905350808060010191505061247e565b600090505b835181101561255f5783818151811061250657fe5b602001015160f81c60f81b83838060010194508151811061252357fe5b60200101907effffffffffffffffffffffffffffffffffffffffffffffffffffffffffffff1916908160001a90535080806001019150506124f1565b82965050505050505090565b6002806000018054600181600116156101000203166002900480601f0160208091040260200160405190810160405280929190818152602001828054600181600116156101000203166002900480156126055780601f106125da57610100808354040283529160200191612605565b820191906000526020600020905b8154815290600101906020018083116125e857829003601f168201915b505050505090806001018054600181600116156101000203166002900480601f0160208091040260200160405190810160405280929190818152602001828054600181600116156101000203166002900480156126a35780601f10612678576101008083540402835291602001916126a3565b820191906000526020600020905b81548152906001019060200180831161268657829003601f168201915b5050505050905082565b82600081101580156126c35750600f8054905081105b6126cc57600080fd5b6000809054906101000a900473ffffffffffffffffffffffffffffffffffffffff168073ffffffffffffffffffffffffffffffffffffffff163373ffffffffffffffffffffffffffffffffffffffff161461272657600080fd5b5050505050565b6000809054906101000a900473ffffffffffffffffffffffffffffffffffffffff168073ffffffffffffffffffffffffffffffffffffffff163373ffffffffffffffffffffffffffffffffffffffff161461278757600080fd5b60008351118015612799575060008251115b6127a257600080fd5b604051806040016040528084815260200183815250600260008201518160000190805190602001906127d592919061291b565b5060208201518160010190805190602001906127f292919061291b565b50905050505050565b80600081101580156128115750600f8054905081105b61281a57600080fd5b6000809054906101000a900473ffffffffffffffffffffffffffffffffffffffff168073ffffffffffffffffffffffffffffffffffffffff163373ffffffffffffffffffffffffffffffffffffffff161461287457600080fd5b505050565b6040518061012001604052806000815260200160608152602001600081526020016060815260200160608152602001600081526020016000815260200160008152602001606081525090565b6040518060e0016040528060008152602001606081526020016060815260200160608152602001606081526020016128fb612a7b565b81525090565b604051806040016040528060608152602001606081525090565b828054600181600116156101000203166002900490600052602060002090601f016020900481019282601f1061295c57805160ff191683800117855561298a565b8280016001018555821561298a579182015b8281111561298957825182559160200191906001019061296e565b5b5090506129979190612a95565b5090565b8280548282559060005260206000209081019282156129ea579160200282015b828111156129e95782518290805190602001906129d992919061291b565b50916020019190600101906129bb565b5b5090506129f79190612aba565b5090565b828054600181600116156101000203166002900490600052602060002090601f016020900481019282601f10612a3c57805160ff1916838001178555612a6a565b82800160010185558215612a6a579182015b82811115612a69578251825591602001919060010190612a4e565b5b509050612a779190612a95565b5090565b604051806040016040528060608152602001606081525090565b612ab791905b80821115612ab3576000816000905550600101612a9b565b5090565b90565b612ae391905b80821115612adf5760008181612ad69190612ae6565b50600101612ac0565b5090565b90565b50805460018160011615610100020316600290046000825580601f10612b0c5750612b2b565b601f016020900490600052602060002090810190612b2a9190612a95565b5b5056fe446f6d696e6f732050697a7a6120456e746572707269736573204c696d69746564a165627a7a723058200bd971295ad20e691aaed6b3228f2cccc00cecc4849a137426e8769c965ec6020029",
  "source": "pragma solidity >=0.4.0 <0.7.0;\n\ncontract Resume {\n\n  address private owner = msg.sender;\n  string private name;\n  Location public locale;\n  Occupation public profession;\n  string constant seperator = \", \";\n  Availability public status;\n  string[] public skills;\n  Occupation[] experience;\n  \n  mapping(string => string) availableSkills;\n  mapping(uint => Location) locations;\n  mapping(uint => Organization) organizations;\n\n  enum Availability {\n    Unavilable,\n    Unemployed,\n    Seeking,\n    Employed\n  }\n\n  enum Level {\n    Attendee,\n    Participant,\n    Certified,\n    License,\n    Diploma,\n    Bachelors,\n    Masters,\n    Doctorates\n  }\n\n  struct Occupation {\n    uint index;\n    string role;\n    uint employer_id;\n    string description;\n    string link;\n    uint location_id;\n    uint start_date;\n    uint end_date;\n    string[] skills;\n  }\n\n  struct Organization {\n    uint id;\n    string name;\n    string nickname;\n    string link;\n    string thumb;\n    Location location;\n  }\n\n  struct Location {\n    string city;\n    string country;\n  }\n\n  struct Link {\n    uint id;\n    string url;\n  }\n\n  event OccupationListed(uint atIndex, string title, string organisation);\n  event OccupationChanged(uint atIndex, string fields);\n  event OccupationRemoved(string title);\n  event OccupationSet(uint id, string role);\n\n  modifier onlyBy(address account) {\n    // Check if caller address matches owner address\n    require(msg.sender == account);\n    _;\n  }\n\n  modifier whenUniqueOrganisation(string memory orgName) {\n    // Check the organisation has already been stored\n    _;\n  }\n\n  modifier whenOccupationExists(uint atIndex) {\n    // Check if the occupation exists at the specified index\n    require(atIndex >= 0 && atIndex < experience.length);\n    _;\n  }\n\n  modifier whenOrganizationExists(uint withID) {\n    // Check if the organization exists withe the specified id\n    _;\n  }\n\n  function setOwner(address newOwner) public onlyBy(owner) {\n    require(newOwner != owner);\n    owner = newOwner;\n  }\n\n  function getOwner() public view returns (address) {\n    return owner;\n  }\n\n  function setName(string memory newName) public onlyBy(owner) payable {\n    require(bytes(newName).length > 0);\n    name = newName;\n  }\n\n  function getName() public view returns (string memory) {\n    return name;\n  }\n\n  function setLocation(string memory city, string memory country) public onlyBy(owner) payable {\n    require(bytes(city).length > 0 && bytes(country).length > 0);\n    locale = Location(city, country);\n  }\n\n  function getLocation() public view returns (string memory) {\n    bytes memory city = bytes(locale.city);\n    bytes memory divider = bytes(seperator);\n    bytes memory country = bytes(locale.country);\n    bytes memory temp = new bytes(city.length + divider.length + country.length);\n\n    uint counter;\n    uint index;\n    for (index = 0; index < city.length; index++) {\n      temp[counter++] = city[index];\n    }\n    for (index = 0; index < divider.length; index++) {\n      temp[counter++] = divider[index];\n    }\n    for (index = 0; index < country.length; index++) {\n      temp[counter++] = country[index];\n    }\n\n    return string(temp);\n  }\n\n  function addOccupation(string memory role, uint employerIndex, string memory description, string memory link, uint locationIndex, uint startDate, uint endDate) public onlyBy(owner) payable {\n    // Validate occupation data\n    // Create skill list\n    string[] memory skillList;\n    // Construct occupation object\n    Occupation memory job = Occupation(experience.length, role, employerIndex, description, link, locationIndex, startDate, endDate, skillList);\n    // List occupation object\n    experience.push(job);\n    // Notify occupation listing\n    emit OccupationListed(job.index, job.role, \"Dominos\");\n  }\n\n  function setOccupation(uint withIndex) public whenOccupationExists(withIndex) payable onlyBy(owner) {\n    // Set the position to the occupation index\n  }\n\n  function updateOccupation(uint atIndex) public whenOccupationExists(atIndex) payable onlyBy(owner) {\n    // Fetch the existing occupation at index\n    // Set fields which have changed\n      // Capture change field name\n    // Update the occupation at index\n    // Notify of field changes\n  }\n\n  function getOccupation(uint atIndex) public whenOccupationExists(atIndex) view returns (string memory, string memory, string memory, string memory, string memory, uint, uint) {\n    // Fetch the occupation matching at the specified index\n    // Fetch the occupations location\n      // Stringify location into the format \"CITY, COUNTRY\"\n    // Search and replace skill identifiers to skill names\n      // Stringify skills with delimiter\n    // Return tuple of occupation data\n      // (role, employer, description, link, locationString, startDate, endDate, skillCollection);\n    Occupation memory job = experience[atIndex];\n    Organization memory org = organizations[job.employer_id];\n    Location memory geo = locations[job.location_id];\n    string memory orgName = \"Dominos Pizza Enterprises Limited\";\n    string memory roleLocation = \"Brisbane, Australia\";\n    return (job.role, orgName, job.description, job.link, roleLocation, job.start_date, job.end_date);\n  }\n\n  function countOccupations() public view returns (uint) {\n    return experience.length;\n  }\n\n  function removeOccupation(uint atIndex) public whenOccupationExists(atIndex) payable onlyBy(owner) {\n    // Removes the occupation at index\n    // Sets position to previous index when removed occupation is current\n  }\n\n  function addOrganization(string memory orgName) public whenUniqueOrganisation(orgName) payable onlyBy(owner)  {\n\n  }\n\n  function updateOrganization(uint withID) public whenOccupationExists(withID) payable onlyBy(owner) {\n\n  }\n\n  function removeOrganization(uint withID) public whenOrganizationExists(withID) payable onlyBy(owner) {\n\n  }\n\n  function updateOccupationTimeline(uint atIndex, uint startDate, uint endDate) public whenOccupationExists(atIndex) payable onlyBy(owner) {\n    // Validate startDate exists\n    // Ensure the endDate is greater than startDate\n    // If no endDate, cast to null or undefined\n    // Update state\n  }\n}",
  "sourcePath": "/Users/mitch/Developer/dapp-academy/contracts/Resume.sol",
  "compiler": {
    "name": "solc",
    "version": "0.5.8+commit.23d335f2.Emscripten.clang"
  },
  "schemaVersion": "3.0.16",
  "updatedAt": "2019-10-27T06:06:51.843Z",
  "devdoc": {
    "methods": {}
  },
  "userdoc": {
    "methods": {}
  }
}