{
  "contractName": "Resume",
  "abi": [
    {
      "constant": true,
      "inputs": [],
      "name": "status",
      "outputs": [
        {
          "name": "",
          "type": "uint8"
        }
      ],
      "payable": false,
      "stateMutability": "view",
      "type": "function"
    },
    {
      "constant": true,
      "inputs": [
        {
          "name": "",
          "type": "uint256"
        }
      ],
      "name": "skills",
      "outputs": [
        {
          "name": "",
          "type": "string"
        }
      ],
      "payable": false,
      "stateMutability": "view",
      "type": "function"
    },
    {
      "constant": true,
      "inputs": [],
      "name": "profession",
      "outputs": [
        {
          "name": "index",
          "type": "uint256"
        },
        {
          "name": "role",
          "type": "string"
        },
        {
          "name": "employer_index",
          "type": "uint256"
        },
        {
          "name": "description",
          "type": "string"
        },
        {
          "name": "location_index",
          "type": "uint256"
        },
        {
          "name": "start_date",
          "type": "uint256"
        },
        {
          "name": "end_date",
          "type": "uint256"
        }
      ],
      "payable": false,
      "stateMutability": "view",
      "type": "function"
    },
    {
      "constant": true,
      "inputs": [],
      "name": "locale",
      "outputs": [
        {
          "name": "city",
          "type": "string"
        },
        {
          "name": "country",
          "type": "string"
        }
      ],
      "payable": false,
      "stateMutability": "view",
      "type": "function"
    },
    {
      "anonymous": false,
      "inputs": [
        {
          "indexed": false,
          "name": "atIndex",
          "type": "uint256"
        },
        {
          "indexed": false,
          "name": "title",
          "type": "string"
        },
        {
          "indexed": false,
          "name": "organisation",
          "type": "string"
        }
      ],
      "name": "OccupationListed",
      "type": "event"
    },
    {
      "anonymous": false,
      "inputs": [
        {
          "indexed": false,
          "name": "atIndex",
          "type": "uint256"
        },
        {
          "indexed": false,
          "name": "fields",
          "type": "string"
        }
      ],
      "name": "OccupationChanged",
      "type": "event"
    },
    {
      "anonymous": false,
      "inputs": [
        {
          "indexed": false,
          "name": "title",
          "type": "string"
        }
      ],
      "name": "OccupationRemoved",
      "type": "event"
    },
    {
      "anonymous": false,
      "inputs": [
        {
          "indexed": false,
          "name": "id",
          "type": "uint256"
        },
        {
          "indexed": false,
          "name": "role",
          "type": "string"
        }
      ],
      "name": "OccupationSet",
      "type": "event"
    },
    {
      "anonymous": false,
      "inputs": [
        {
          "indexed": false,
          "name": "atIndex",
          "type": "uint256"
        },
        {
          "indexed": false,
          "name": "name",
          "type": "string"
        }
      ],
      "name": "OrganizationCreated",
      "type": "event"
    },
    {
      "anonymous": false,
      "inputs": [
        {
          "indexed": false,
          "name": "skill",
          "type": "string"
        },
        {
          "indexed": false,
          "name": "index",
          "type": "uint256"
        }
      ],
      "name": "ListedSkill",
      "type": "event"
    },
    {
      "constant": false,
      "inputs": [
        {
          "name": "newOwner",
          "type": "address"
        }
      ],
      "name": "setOwner",
      "outputs": [],
      "payable": false,
      "stateMutability": "nonpayable",
      "type": "function"
    },
    {
      "constant": true,
      "inputs": [],
      "name": "getOwner",
      "outputs": [
        {
          "name": "",
          "type": "address"
        }
      ],
      "payable": false,
      "stateMutability": "view",
      "type": "function"
    },
    {
      "constant": false,
      "inputs": [
        {
          "name": "newName",
          "type": "string"
        }
      ],
      "name": "setName",
      "outputs": [],
      "payable": true,
      "stateMutability": "payable",
      "type": "function"
    },
    {
      "constant": true,
      "inputs": [],
      "name": "getName",
      "outputs": [
        {
          "name": "",
          "type": "string"
        }
      ],
      "payable": false,
      "stateMutability": "view",
      "type": "function"
    },
    {
      "constant": false,
      "inputs": [
        {
          "name": "city",
          "type": "string"
        },
        {
          "name": "country",
          "type": "string"
        }
      ],
      "name": "setLocation",
      "outputs": [],
      "payable": true,
      "stateMutability": "payable",
      "type": "function"
    },
    {
      "constant": true,
      "inputs": [],
      "name": "getLocation",
      "outputs": [
        {
          "name": "",
          "type": "string"
        }
      ],
      "payable": false,
      "stateMutability": "view",
      "type": "function"
    },
    {
      "constant": false,
      "inputs": [
        {
          "name": "role",
          "type": "string"
        },
        {
          "name": "employerIndex",
          "type": "uint256"
        },
        {
          "name": "description",
          "type": "string"
        },
        {
          "name": "locationIndex",
          "type": "uint256"
        },
        {
          "name": "startDate",
          "type": "uint256"
        },
        {
          "name": "endDate",
          "type": "uint256"
        }
      ],
      "name": "addOccupation",
      "outputs": [],
      "payable": true,
      "stateMutability": "payable",
      "type": "function"
    },
    {
      "constant": false,
      "inputs": [
        {
          "name": "withIndex",
          "type": "uint256"
        }
      ],
      "name": "setOccupation",
      "outputs": [],
      "payable": true,
      "stateMutability": "payable",
      "type": "function"
    },
    {
      "constant": false,
      "inputs": [
        {
          "name": "atIndex",
          "type": "uint256"
        }
      ],
      "name": "updateOccupation",
      "outputs": [],
      "payable": true,
      "stateMutability": "payable",
      "type": "function"
    },
    {
      "constant": true,
      "inputs": [
        {
          "name": "atIndex",
          "type": "uint256"
        }
      ],
      "name": "getOccupation",
      "outputs": [
        {
          "name": "",
          "type": "string"
        },
        {
          "name": "",
          "type": "string"
        },
        {
          "name": "",
          "type": "string"
        },
        {
          "name": "",
          "type": "string"
        },
        {
          "name": "",
          "type": "string"
        },
        {
          "name": "",
          "type": "uint256"
        },
        {
          "name": "",
          "type": "uint256"
        }
      ],
      "payable": false,
      "stateMutability": "view",
      "type": "function"
    },
    {
      "constant": true,
      "inputs": [],
      "name": "countOccupations",
      "outputs": [
        {
          "name": "",
          "type": "uint256"
        }
      ],
      "payable": false,
      "stateMutability": "view",
      "type": "function"
    },
    {
      "constant": false,
      "inputs": [
        {
          "name": "atIndex",
          "type": "uint256"
        }
      ],
      "name": "removeOccupation",
      "outputs": [],
      "payable": true,
      "stateMutability": "payable",
      "type": "function"
    },
    {
      "constant": false,
      "inputs": [
        {
          "name": "orgName",
          "type": "string"
        },
        {
          "name": "thumb",
          "type": "string"
        }
      ],
      "name": "addOrganization",
      "outputs": [],
      "payable": true,
      "stateMutability": "payable",
      "type": "function"
    },
    {
      "constant": false,
      "inputs": [
        {
          "name": "withID",
          "type": "uint256"
        }
      ],
      "name": "updateOrganization",
      "outputs": [],
      "payable": true,
      "stateMutability": "payable",
      "type": "function"
    },
    {
      "constant": false,
      "inputs": [
        {
          "name": "withID",
          "type": "uint256"
        }
      ],
      "name": "removeOrganization",
      "outputs": [],
      "payable": true,
      "stateMutability": "payable",
      "type": "function"
    },
    {
      "constant": true,
      "inputs": [
        {
          "name": "atIndex",
          "type": "uint256"
        }
      ],
      "name": "getOrganization",
      "outputs": [
        {
          "name": "",
          "type": "string"
        },
        {
          "name": "",
          "type": "string"
        }
      ],
      "payable": false,
      "stateMutability": "view",
      "type": "function"
    },
    {
      "constant": true,
      "inputs": [],
      "name": "countOrganizations",
      "outputs": [
        {
          "name": "",
          "type": "uint256"
        }
      ],
      "payable": false,
      "stateMutability": "view",
      "type": "function"
    },
    {
      "constant": false,
      "inputs": [
        {
          "name": "atIndex",
          "type": "uint256"
        },
        {
          "name": "startDate",
          "type": "uint256"
        },
        {
          "name": "endDate",
          "type": "uint256"
        }
      ],
      "name": "updateOccupationTimeline",
      "outputs": [],
      "payable": true,
      "stateMutability": "payable",
      "type": "function"
    },
    {
      "constant": false,
      "inputs": [
        {
          "name": "skill",
          "type": "string"
        }
      ],
      "name": "addSkill",
      "outputs": [],
      "payable": true,
      "stateMutability": "payable",
      "type": "function"
    },
    {
      "constant": true,
      "inputs": [
        {
          "name": "atIndex",
          "type": "uint256"
        }
      ],
      "name": "getSkill",
      "outputs": [
        {
          "name": "",
          "type": "string"
        }
      ],
      "payable": false,
      "stateMutability": "view",
      "type": "function"
    },
    {
      "constant": false,
      "inputs": [
        {
          "name": "skill",
          "type": "string"
        }
      ],
      "name": "removeSkill",
      "outputs": [],
      "payable": true,
      "stateMutability": "payable",
      "type": "function"
    }
  ],
  "bytecode": "0x6080604052336000806101000a81548173ffffffffffffffffffffffffffffffffffffffff021916908373ffffffffffffffffffffffffffffffffffffffff16021790555034801561005057600080fd5b506131dc806100606000396000f3fe6080604052600436106101665760003560e01c8063893d20e8116100d1578063c47f00271161008a578063ec7bb03b11610064578063ec7bb03b14610f90578063ee3ee4801461108c578063fe586c9a146110ce578063ff618b531461122057610166565b8063c47f002714610e1a578063cdd7a49614610ed5578063ce2ce3fc14610f0057610166565b8063893d20e8146108f6578063a35eab0d1461094d578063a9ed36421461097b578063aa9646f214610acd578063bd037c9314610c47578063bd880fae14610d6657610166565b8063379c31bf11610123578063379c31bf146105e05780633a88c1091461060b5780634526f6901461063957806350d15fbe146107595780636042ab1c1461080d5780637a3aa950146108c857610166565b806313af40351461016b57806315b2d0f6146101bc578063178c801a1461042e57806317d7de7c1461045c5780631e324990146104ec578063200d2ed2146105a7575b600080fd5b34801561017757600080fd5b506101ba6004803603602081101561018e57600080fd5b81019080803573ffffffffffffffffffffffffffffffffffffffff16906020019092919050505061124e565b005b3480156101c857600080fd5b506101f5600480360360208110156101df57600080fd5b8101908080359060200190929190505050611346565b60405180806020018060200180602001806020018060200188815260200187815260200186810386528d818151815260200191508051906020019080838360005b83811015610251578082015181840152602081019050610236565b50505050905090810190601f16801561027e5780820380516001836020036101000a031916815260200191505b5086810385528c818151815260200191508051906020019080838360005b838110156102b757808201518184015260208101905061029c565b50505050905090810190601f1680156102e45780820380516001836020036101000a031916815260200191505b5086810384528b818151815260200191508051906020019080838360005b8381101561031d578082015181840152602081019050610302565b50505050905090810190601f16801561034a5780820380516001836020036101000a031916815260200191505b5086810383528a818151815260200191508051906020019080838360005b83811015610383578082015181840152602081019050610368565b50505050905090810190601f1680156103b05780820380516001836020036101000a031916815260200191505b50868103825289818151815260200191508051906020019080838360005b838110156103e95780820151818401526020810190506103ce565b50505050905090810190601f1680156104165780820380516001836020036101000a031916815260200191505b509c5050505050505050505050505060405180910390f35b61045a6004803603602081101561044457600080fd5b81019080803590602001909291905050506117f3565b005b34801561046857600080fd5b50610471611871565b6040518080602001828103825283818151815260200191508051906020019080838360005b838110156104b1578082015181840152602081019050610496565b50505050905090810190601f1680156104de5780820380516001836020036101000a031916815260200191505b509250505060405180910390f35b6105a56004803603602081101561050257600080fd5b810190808035906020019064010000000081111561051f57600080fd5b82018360208201111561053157600080fd5b8035906020019184600183028401116401000000008311171561055357600080fd5b91908080601f016020809104026020016040519081016040528093929190818152602001838380828437600081840152601f19601f820116905080830192505050505050509192919290505050611913565b005b3480156105b357600080fd5b506105bc611ba8565b604051808260038111156105cc57fe5b60ff16815260200191505060405180910390f35b3480156105ec57600080fd5b506105f5611bbb565b6040518082815260200191505060405180910390f35b6106376004803603602081101561062157600080fd5b8101908080359060200190929190505050611bc8565b005b34801561064557600080fd5b506106726004803603602081101561065c57600080fd5b8101908080359060200190929190505050611c46565b604051808060200180602001838103835285818151815260200191508051906020019080838360005b838110156106b657808201518184015260208101905061069b565b50505050905090810190601f1680156106e35780820380516001836020036101000a031916815260200191505b50838103825284818151815260200191508051906020019080838360005b8381101561071c578082015181840152602081019050610701565b50505050905090810190601f1680156107495780820380516001836020036101000a031916815260200191505b5094505050505060405180910390f35b34801561076557600080fd5b506107926004803603602081101561077c57600080fd5b8101908080359060200190929190505050611e01565b6040518080602001828103825283818151815260200191508051906020019080838360005b838110156107d25780820151818401526020810190506107b7565b50505050905090810190601f1680156107ff5780820380516001836020036101000a031916815260200191505b509250505060405180910390f35b6108c66004803603602081101561082357600080fd5b810190808035906020019064010000000081111561084057600080fd5b82018360208201111561085257600080fd5b8035906020019184600183028401116401000000008311171561087457600080fd5b91908080601f016020809104026020016040519081016040528093929190818152602001838380828437600081840152601f19601f820116905080830192505050505050509192919290505050611eba565b005b6108f4600480360360208110156108de57600080fd5b8101908080359060200190929190505050612021565b005b34801561090257600080fd5b5061090b61209f565b604051808273ffffffffffffffffffffffffffffffffffffffff1673ffffffffffffffffffffffffffffffffffffffff16815260200191505060405180910390f35b6109796004803603602081101561096357600080fd5b81019080803590602001909291905050506120c8565b005b610acb6004803603604081101561099157600080fd5b81019080803590602001906401000000008111156109ae57600080fd5b8201836020820111156109c057600080fd5b803590602001918460018302840111640100000000831117156109e257600080fd5b91908080601f016020809104026020016040519081016040528093929190818152602001838380828437600081840152601f19601f82011690508083019250505050505050919291929080359060200190640100000000811115610a4557600080fd5b820183602082011115610a5757600080fd5b80359060200191846001830284011164010000000083111715610a7957600080fd5b91908080601f016020809104026020016040519081016040528093929190818152602001838380828437600081840152601f19601f820116905080830192505050505050509192919290505050612146565b005b610c45600480360360c0811015610ae357600080fd5b8101908080359060200190640100000000811115610b0057600080fd5b820183602082011115610b1257600080fd5b80359060200191846001830284011164010000000083111715610b3457600080fd5b91908080601f016020809104026020016040519081016040528093929190818152602001838380828437600081840152601f19601f8201169050808301925050505050505091929192908035906020019092919080359060200190640100000000811115610ba157600080fd5b820183602082011115610bb357600080fd5b80359060200191846001830284011164010000000083111715610bd557600080fd5b91908080601f016020809104026020016040519081016040528093929190818152602001838380828437600081840152601f19601f8201169050808301925050505050505091929192908035906020019092919080359060200190929190803590602001909291905050506122f3565b005b348015610c5357600080fd5b50610c5c612654565b604051808881526020018060200187815260200180602001868152602001858152602001848152602001838103835289818151815260200191508051906020019080838360005b83811015610cbe578082015181840152602081019050610ca3565b50505050905090810190601f168015610ceb5780820380516001836020036101000a031916815260200191505b50838103825287818151815260200191508051906020019080838360005b83811015610d24578082015181840152602081019050610d09565b50505050905090810190601f168015610d515780820380516001836020036101000a031916815260200191505b50995050505050505050505060405180910390f35b348015610d7257600080fd5b50610d9f60048036036020811015610d8957600080fd5b81019080803590602001909291905050506127b4565b6040518080602001828103825283818151815260200191508051906020019080838360005b83811015610ddf578082015181840152602081019050610dc4565b50505050905090810190601f168015610e0c5780820380516001836020036101000a031916815260200191505b509250505060405180910390f35b610ed360048036036020811015610e3057600080fd5b8101908080359060200190640100000000811115610e4d57600080fd5b820183602082011115610e5f57600080fd5b80359060200191846001830284011164010000000083111715610e8157600080fd5b91908080601f016020809104026020016040519081016040528093929190818152602001838380828437600081840152601f19601f82011690508083019250505050505050919291929050505061288d565b005b348015610ee157600080fd5b50610eea612910565b6040518082815260200191505060405180910390f35b348015610f0c57600080fd5b50610f1561291d565b6040518080602001828103825283818151815260200191508051906020019080838360005b83811015610f55578082015181840152602081019050610f3a565b50505050905090810190601f168015610f825780820380516001836020036101000a031916815260200191505b509250505060405180910390f35b348015610f9c57600080fd5b50610fa5612c43565b604051808060200180602001838103835285818151815260200191508051906020019080838360005b83811015610fe9578082015181840152602081019050610fce565b50505050905090810190601f1680156110165780820380516001836020036101000a031916815260200191505b50838103825284818151815260200191508051906020019080838360005b8381101561104f578082015181840152602081019050611034565b50505050905090810190601f16801561107c5780820380516001836020036101000a031916815260200191505b5094505050505060405180910390f35b6110cc600480360360608110156110a257600080fd5b81019080803590602001909291908035906020019092919080359060200190929190505050612d85565b005b61121e600480360360408110156110e457600080fd5b810190808035906020019064010000000081111561110157600080fd5b82018360208201111561111357600080fd5b8035906020019184600183028401116401000000008311171561113557600080fd5b91908080601f016020809104026020016040519081016040528093929190818152602001838380828437600081840152601f19601f8201169050808301925050505050505091929192908035906020019064010000000081111561119857600080fd5b8201836020820111156111aa57600080fd5b803590602001918460018302840111640100000000831117156111cc57600080fd5b91908080601f016020809104026020016040519081016040528093929190818152602001838380828437600081840152601f19601f820116905080830192505050505050509192919290505050612e05565b005b61124c6004803603602081101561123657600080fd5b8101908080359060200190929190505050612ed3565b005b6000809054906101000a900473ffffffffffffffffffffffffffffffffffffffff168073ffffffffffffffffffffffffffffffffffffffff163373ffffffffffffffffffffffffffffffffffffffff16146112a857600080fd5b6000809054906101000a900473ffffffffffffffffffffffffffffffffffffffff1673ffffffffffffffffffffffffffffffffffffffff168273ffffffffffffffffffffffffffffffffffffffff16141561130257600080fd5b816000806101000a81548173ffffffffffffffffffffffffffffffffffffffff021916908373ffffffffffffffffffffffffffffffffffffffff1602179055505050565b606080606080606060008087600081101580156113675750600e8054905081105b61137057600080fd5b611378612f51565b600e8a8154811061138557fe5b90600052602060002090600802016040518061010001604052908160008201548152602001600182018054600181600116156101000203166002900480601f0160208091040260200160405190810160405280929190818152602001828054600181600116156101000203166002900480156114425780601f1061141757610100808354040283529160200191611442565b820191906000526020600020905b81548152906001019060200180831161142557829003601f168201915b5050505050815260200160028201548152602001600382018054600181600116156101000203166002900480601f0160208091040260200160405190810160405280929190818152602001828054600181600116156101000203166002900480156114ee5780601f106114c3576101008083540402835291602001916114ee565b820191906000526020600020905b8154815290600101906020018083116114d157829003601f168201915b5050505050815260200160048201548152602001600582015481526020016006820154815260200160078201805480602002602001604051908101604052809291908181526020016000905b828210156115f6578382906000526020600020018054600181600116156101000203166002900480601f0160208091040260200160405190810160405280929190818152602001828054600181600116156101000203166002900480156115e25780601f106115b7576101008083540402835291602001916115e2565b820191906000526020600020905b8154815290600101906020018083116115c557829003601f168201915b50505050508152602001906001019061153a565b505050508152505090506060600f82604001518154811061161357fe5b90600052602060002090600302016001018054600181600116156101000203166002900480601f0160208091040260200160405190810160405280929190818152602001828054600181600116156101000203166002900480156116b85780601f1061168d576101008083540402835291602001916116b8565b820191906000526020600020905b81548152906001019060200180831161169b57829003601f168201915b505050505090506060600f8360400151815481106116d257fe5b90600052602060002090600302016002018054600181600116156101000203166002900480601f0160208091040260200160405190810160405280929190818152602001828054600181600116156101000203166002900480156117775780601f1061174c57610100808354040283529160200191611777565b820191906000526020600020905b81548152906001019060200180831161175a57829003601f168201915b5050505050905060606040518060400160405280601381526020017f4272697362616e652c204175737472616c6961000000000000000000000000008152509050836020015183838660600151848860a001518960c001518696508393509b509b509b509b509b509b509b505050505050919395979092949650565b80600081101580156118095750600e8054905081105b61181257600080fd5b6000809054906101000a900473ffffffffffffffffffffffffffffffffffffffff168073ffffffffffffffffffffffffffffffffffffffff163373ffffffffffffffffffffffffffffffffffffffff161461186c57600080fd5b505050565b606060018054600181600116156101000203166002900480601f0160208091040260200160405190810160405280929190818152602001828054600181600116156101000203166002900480156119095780601f106118de57610100808354040283529160200191611909565b820191906000526020600020905b8154815290600101906020018083116118ec57829003601f168201915b5050505050905090565b8060006011826040518082805190602001908083835b6020831061194c5780518252602082019150602081019050602083039250611929565b6001836020036101000a0380198251168184511680821785525050505050509050019150509081526020016040518091039020541461198a57600080fd5b6000809054906101000a900473ffffffffffffffffffffffffffffffffffffffff168073ffffffffffffffffffffffffffffffffffffffff163373ffffffffffffffffffffffffffffffffffffffff16146119e457600080fd5b600d839080600181540180825580915050906001820390600052602060002001600090919290919091509080519060200190611a21929190612f96565b5050600d805490506011846040518082805190602001908083835b60208310611a5f5780518252602082019150602081019050602083039250611a3c565b6001836020036101000a0380198251168184511680821785525050505050509050019150509081526020016040518091039020819055507f2fbad007a1eb94ba3b709eecb3b46c43d13a9f3e19e1231b631be78fc369c827836011856040518082805190602001908083835b60208310611aee5780518252602082019150602081019050602083039250611acb565b6001836020036101000a0380198251168184511680821785525050505050509050019150509081526020016040518091039020546040518080602001838152602001828103825284818151815260200191508051906020019080838360005b83811015611b68578082015181840152602081019050611b4d565b50505050905090810190601f168015611b955780820380516001836020036101000a031916815260200191505b50935050505060405180910390a1505050565b600c60009054906101000a900460ff1681565b6000600f80549050905090565b8060008110158015611bde5750600e8054905081105b611be757600080fd5b6000809054906101000a900473ffffffffffffffffffffffffffffffffffffffff168073ffffffffffffffffffffffffffffffffffffffff163373ffffffffffffffffffffffffffffffffffffffff1614611c4157600080fd5b505050565b6060808260008110158015611c5f5750600f8054905081105b611c6857600080fd5b611c70613016565b600f8581548110611c7d57fe5b906000526020600020906003020160405180606001604052908160008201548152602001600182018054600181600116156101000203166002900480601f016020809104026020016040519081016040528092919081815260200182805460018160011615610100020316600290048015611d395780601f10611d0e57610100808354040283529160200191611d39565b820191906000526020600020905b815481529060010190602001808311611d1c57829003601f168201915b50505050508152602001600282018054600181600116156101000203166002900480601f016020809104026020016040519081016040528092919081815260200182805460018160011615610100020316600290048015611ddb5780601f10611db057610100808354040283529160200191611ddb565b820191906000526020600020905b815481529060010190602001808311611dbe57829003601f168201915b505050505081525050905080602001518160400151819150809050935093505050915091565b600d8181548110611e0e57fe5b906000526020600020016000915090508054600181600116156101000203166002900480601f016020809104026020016040519081016040528092919081815260200182805460018160011615610100020316600290048015611eb25780601f10611e8757610100808354040283529160200191611eb2565b820191906000526020600020905b815481529060010190602001808311611e9557829003601f168201915b505050505081565b6000809054906101000a900473ffffffffffffffffffffffffffffffffffffffff168073ffffffffffffffffffffffffffffffffffffffff163373ffffffffffffffffffffffffffffffffffffffff1614611f1457600080fd5b60006011836040518082805190602001908083835b60208310611f4c5780518252602082019150602081019050602083039250611f29565b6001836020036101000a038019825116818451168082178552505050505050905001915050908152602001604051809103902054905060008114611f8c57fe5b600d8181548110611f9957fe5b906000526020600020016000611faf9190613037565b6011836040518082805190602001908083835b60208310611fe55780518252602082019150602081019050602083039250611fc2565b6001836020036101000a038019825116818451168082178552505050505050905001915050908152602001604051809103902060009055505050565b80600081101580156120375750600e8054905081105b61204057600080fd5b6000809054906101000a900473ffffffffffffffffffffffffffffffffffffffff168073ffffffffffffffffffffffffffffffffffffffff163373ffffffffffffffffffffffffffffffffffffffff161461209a57600080fd5b505050565b60008060009054906101000a900473ffffffffffffffffffffffffffffffffffffffff16905090565b80600081101580156120de5750600f8054905081105b6120e757600080fd5b6000809054906101000a900473ffffffffffffffffffffffffffffffffffffffff168073ffffffffffffffffffffffffffffffffffffffff163373ffffffffffffffffffffffffffffffffffffffff161461214157600080fd5b505050565b6000809054906101000a900473ffffffffffffffffffffffffffffffffffffffff168073ffffffffffffffffffffffffffffffffffffffff163373ffffffffffffffffffffffffffffffffffffffff16146121a057600080fd5b6000600f8054905090506121b2613016565b6040518060600160405280838152602001868152602001858152509050600f819080600181540180825580915050906001820390600052602060002090600302016000909192909190915060008201518160000155602082015181600101908051906020019061222392919061307f565b50604082015181600201908051906020019061224092919061307f565b505050507fc80c020e707dc135a0cfab12e04e26a3ec7ed662ecaa0b12fd49d1dc05fc58538282602001516040518083815260200180602001828103825283818151815260200191508051906020019080838360005b838110156122b1578082015181840152602081019050612296565b50505050905090810190601f1680156122de5780820380516001836020036101000a031916815260200191505b50935050505060405180910390a15050505050565b6000809054906101000a900473ffffffffffffffffffffffffffffffffffffffff168073ffffffffffffffffffffffffffffffffffffffff163373ffffffffffffffffffffffffffffffffffffffff161461234d57600080fd5b85600081101580156123635750600f8054905081105b61236c57600080fd5b60606000600e8054905090506060600f8a8154811061238757fe5b90600052602060002090600302016001018054600181600116156101000203166002900480601f01602080910402602001604051908101604052809291908181526020018280546001816001161561010002031660029004801561242c5780601f106124015761010080835404028352916020019161242c565b820191906000526020600020905b81548152906001019060200180831161240f57829003601f168201915b5050505050905061243b612f51565b6040518061010001604052808481526020018d81526020018c81526020018b81526020018a8152602001898152602001888152602001858152509050600e81908060018154018082558091505090600182039060005260206000209060080201600090919290919091506000820151816000015560208201518160010190805190602001906124cb92919061307f565b506040820151816002015560608201518160030190805190602001906124f292919061307f565b506080820151816004015560a0820151816005015560c0820151816006015560e082015181600701908051906020019061252d9291906130ff565b505050507fe18d80f65fc8bc8a5ce44fb290ddff552e5f51d0120c567d37f1118f1f2dfe8d83826020015184604051808481526020018060200180602001838103835285818151815260200191508051906020019080838360005b838110156125a3578082015181840152602081019050612588565b50505050905090810190601f1680156125d05780820380516001836020036101000a031916815260200191505b50838103825284818151815260200191508051906020019080838360005b838110156126095780820151818401526020810190506125ee565b50505050905090810190601f1680156126365780820380516001836020036101000a031916815260200191505b509550505050505060405180910390a1505050505050505050505050565b6004806000015490806001018054600181600116156101000203166002900480601f0160208091040260200160405190810160405280929190818152602001828054600181600116156101000203166002900480156126f45780601f106126c9576101008083540402835291602001916126f4565b820191906000526020600020905b8154815290600101906020018083116126d757829003601f168201915b505050505090806002015490806003018054600181600116156101000203166002900480601f0160208091040260200160405190810160405280929190818152602001828054600181600116156101000203166002900480156127985780601f1061276d57610100808354040283529160200191612798565b820191906000526020600020905b81548152906001019060200180831161277b57829003601f168201915b5050505050908060040154908060050154908060060154905087565b606081600081101580156127cc5750600d8054905081105b6127d557600080fd5b600d83815481106127e257fe5b906000526020600020018054600181600116156101000203166002900480601f0160208091040260200160405190810160405280929190818152602001828054600181600116156101000203166002900480156128805780601f1061285557610100808354040283529160200191612880565b820191906000526020600020905b81548152906001019060200180831161286357829003601f168201915b5050505050915050919050565b6000809054906101000a900473ffffffffffffffffffffffffffffffffffffffff168073ffffffffffffffffffffffffffffffffffffffff163373ffffffffffffffffffffffffffffffffffffffff16146128e757600080fd5b60008251116128f557600080fd5b816001908051906020019061290b929190612f96565b505050565b6000600e80549050905090565b60608060026000018054600181600116156101000203166002900480601f0160208091040260200160405190810160405280929190818152602001828054600181600116156101000203166002900480156129b95780601f1061298e576101008083540402835291602001916129b9565b820191906000526020600020905b81548152906001019060200180831161299c57829003601f168201915b5050505050905060606040518060400160405280600281526020017f2c200000000000000000000000000000000000000000000000000000000000008152509050606060026001018054600181600116156101000203166002900480601f016020809104026020016040519081016040528092919081815260200182805460018160011615610100020316600290048015612a955780601f10612a6a57610100808354040283529160200191612a95565b820191906000526020600020905b815481529060010190602001808311612a7857829003601f168201915b50505050509050606081518351855101016040519080825280601f01601f191660200182016040528015612ad85781602001600182028038833980820191505090505b509050600080600090505b8551811015612b5157858181518110612af857fe5b602001015160f81c60f81b838380600101945081518110612b1557fe5b60200101907effffffffffffffffffffffffffffffffffffffffffffffffffffffffffffff1916908160001a9053508080600101915050612ae3565b600090505b8451811015612bc457848181518110612b6b57fe5b602001015160f81c60f81b838380600101945081518110612b8857fe5b60200101907effffffffffffffffffffffffffffffffffffffffffffffffffffffffffffff1916908160001a9053508080600101915050612b56565b600090505b8351811015612c3757838181518110612bde57fe5b602001015160f81c60f81b838380600101945081518110612bfb57fe5b60200101907effffffffffffffffffffffffffffffffffffffffffffffffffffffffffffff1916908160001a9053508080600101915050612bc9565b82965050505050505090565b6002806000018054600181600116156101000203166002900480601f016020809104026020016040519081016040528092919081815260200182805460018160011615610100020316600290048015612cdd5780601f10612cb257610100808354040283529160200191612cdd565b820191906000526020600020905b815481529060010190602001808311612cc057829003601f168201915b505050505090806001018054600181600116156101000203166002900480601f016020809104026020016040519081016040528092919081815260200182805460018160011615610100020316600290048015612d7b5780601f10612d5057610100808354040283529160200191612d7b565b820191906000526020600020905b815481529060010190602001808311612d5e57829003601f168201915b5050505050905082565b8260008110158015612d9b5750600e8054905081105b612da457600080fd5b6000809054906101000a900473ffffffffffffffffffffffffffffffffffffffff168073ffffffffffffffffffffffffffffffffffffffff163373ffffffffffffffffffffffffffffffffffffffff1614612dfe57600080fd5b5050505050565b6000809054906101000a900473ffffffffffffffffffffffffffffffffffffffff168073ffffffffffffffffffffffffffffffffffffffff163373ffffffffffffffffffffffffffffffffffffffff1614612e5f57600080fd5b60008351118015612e71575060008251115b612e7a57600080fd5b60405180604001604052808481526020018381525060026000820151816000019080519060200190612ead92919061307f565b506020820151816001019080519060200190612eca92919061307f565b50905050505050565b8060008110158015612ee95750600e8054905081105b612ef257600080fd5b6000809054906101000a900473ffffffffffffffffffffffffffffffffffffffff168073ffffffffffffffffffffffffffffffffffffffff163373ffffffffffffffffffffffffffffffffffffffff1614612f4c57600080fd5b505050565b60405180610100016040528060008152602001606081526020016000815260200160608152602001600081526020016000815260200160008152602001606081525090565b828054600181600116156101000203166002900490600052602060002090601f016020900481019282601f10612fd757805160ff1916838001178555613005565b82800160010185558215613005579182015b82811115613004578251825591602001919060010190612fe9565b5b509050613012919061315f565b5090565b60405180606001604052806000815260200160608152602001606081525090565b50805460018160011615610100020316600290046000825580601f1061305d575061307c565b601f01602090049060005260206000209081019061307b919061315f565b5b50565b828054600181600116156101000203166002900490600052602060002090601f016020900481019282601f106130c057805160ff19168380011785556130ee565b828001600101855582156130ee579182015b828111156130ed5782518255916020019190600101906130d2565b5b5090506130fb919061315f565b5090565b82805482825590600052602060002090810192821561314e579160200282015b8281111561314d57825182908051906020019061313d92919061307f565b509160200191906001019061311f565b5b50905061315b9190613184565b5090565b61318191905b8082111561317d576000816000905550600101613165565b5090565b90565b6131ad91905b808211156131a957600081816131a09190613037565b5060010161318a565b5090565b9056fea165627a7a72305820557158bb0a52ebe2efa795d0ad64553545b96e9dada66a5f237d857f19ce4c9b0029",
  "source": "pragma solidity >=0.4.0 <0.7.0;\n\ncontract Resume {\n\n  address private owner = msg.sender;\n  string private name;\n  Location public locale;\n  Occupation public profession;\n  string constant seperator = \", \";\n  Availability public status;\n  string[] public skills;\n  Occupation[] experience;\n  Organization[] organizations;\n  Location[] locations;\n  \n  mapping(string => uint) availableSkills;\n\n  enum Availability {\n    Unavilable,\n    Unemployed,\n    Seeking,\n    Employed\n  }\n\n  enum Level {\n    Attendee,\n    Participant,\n    Certified,\n    License,\n    Diploma,\n    Bachelors,\n    Masters,\n    Doctorates\n  }\n\n  struct Occupation {\n    uint index;\n    string role;\n    uint employer_index;\n    string description;\n    uint location_index;\n    uint start_date;\n    uint end_date;\n    string[] skills;\n  }\n\n  struct Organization {\n    uint index;\n    string name;\n    string thumb;\n  }\n\n  struct Location {\n    string city;\n    string country;\n  }\n\n  event OccupationListed(uint atIndex, string title, string organisation);\n  event OccupationChanged(uint atIndex, string fields);\n  event OccupationRemoved(string title);\n  event OccupationSet(uint id, string role);\n  event OrganizationCreated(uint atIndex, string name);\n  event ListedSkill(string skill, uint index);\n\n  modifier onlyBy(address account) {\n    // Check if caller address matches owner address\n    require(msg.sender == account);\n    _;\n  }\n\n  modifier whenOccupationExists(uint atIndex) {\n    // Check if the occupation exists at the specified index\n    require(atIndex >= 0 && atIndex < experience.length);\n    _;\n  }\n\n  modifier whenOrganizationExists(uint atIndex) {\n    // Check if the organization exists within the range\n    require(atIndex >= 0 && atIndex < organizations.length);\n    _;\n  }\n\n  modifier whenSkillExists(uint atIndex) {\n    // Check skill index is within bounds\n    require(atIndex >= 0 && atIndex < skills.length);\n    _;\n  }\n\n  modifier whenUniqueSkill(string memory skill) {\n    // Check if the skill already listed\n    require(availableSkills[skill] == 0x0);\n    _;\n  }\n\n  function setOwner(address newOwner) public onlyBy(owner) {\n    require(newOwner != owner);\n    owner = newOwner;\n  }\n\n  function getOwner() public view returns (address) {\n    return owner;\n  }\n\n  function setName(string memory newName) public onlyBy(owner) payable {\n    require(bytes(newName).length > 0);\n    name = newName;\n  }\n\n  function getName() public view returns (string memory) {\n    return name;\n  }\n\n  function setLocation(string memory city, string memory country) public onlyBy(owner) payable {\n    require(bytes(city).length > 0 && bytes(country).length > 0);\n    locale = Location(city, country);\n  }\n\n  function getLocation() public view returns (string memory) {\n    bytes memory city = bytes(locale.city);\n    bytes memory divider = bytes(seperator);\n    bytes memory country = bytes(locale.country);\n    bytes memory temp = new bytes(city.length + divider.length + country.length);\n\n    uint counter;\n    uint index;\n    for (index = 0; index < city.length; index++) {\n      temp[counter++] = city[index];\n    }\n    for (index = 0; index < divider.length; index++) {\n      temp[counter++] = divider[index];\n    }\n    for (index = 0; index < country.length; index++) {\n      temp[counter++] = country[index];\n    }\n\n    return string(temp);\n  }\n\n  function addOccupation(string memory role, uint employerIndex, string memory description,  uint locationIndex, uint startDate, uint endDate) public onlyBy(owner) whenOrganizationExists(employerIndex) payable {\n    // Validate occupation data\n    // Create skill list\n    string[] memory skillList;\n    uint atIndex = experience.length;\n    string memory orgName = organizations[employerIndex].name;\n    // Construct occupation object\n    Occupation memory job = Occupation(atIndex, role, employerIndex, description, locationIndex, startDate, endDate, skillList);\n    // List occupation object\n    experience.push(job);\n    // Notify occupation listing\n    emit OccupationListed(atIndex, job.role, orgName);\n  }\n\n  function setOccupation(uint withIndex) public whenOccupationExists(withIndex) payable onlyBy(owner) {\n    // Set the position to the occupation index\n  }\n\n  function updateOccupation(uint atIndex) public whenOccupationExists(atIndex) payable onlyBy(owner) {\n    // Fetch the existing occupation at index\n    // Set fields which have changed\n      // Capture change field name\n    // Update the occupation at index\n    // Notify of field changes\n  }\n\n  function getOccupation(uint atIndex) public whenOccupationExists(atIndex) view returns (string memory, string memory, string memory, string memory, string memory, uint, uint) {\n    // Fetch the occupation matching at the specified index\n    // Fetch the occupations location\n      // Stringify location into the format \"CITY, COUNTRY\"\n    // Search and replace skill identifiers to skill names\n      // Stringify skills with delimiter\n    // Return tuple of occupation data\n      // (role, employer, thumb, description, locationString, startDate, endDate, skillCollection);\n    Occupation memory job = experience[atIndex];\n    //Organization memory org = organizations[job.employer_index];\n    //Location memory geo = locations[job.location_index];\n    string memory orgName = organizations[job.employer_index].name;\n    string memory orgThumb = organizations[job.employer_index].thumb;\n    string memory roleLocation = \"Brisbane, Australia\";\n    return (job.role, orgName, orgThumb, job.description, roleLocation, job.start_date, job.end_date);\n  }\n\n  function countOccupations() public view returns (uint) {\n    return experience.length;\n  }\n\n  function removeOccupation(uint atIndex) public whenOccupationExists(atIndex) payable onlyBy(owner) {\n    // Removes the occupation at index\n    // Sets position to previous index when removed occupation is current\n  }\n\n  function addOrganization(string memory orgName, string memory thumb) public payable onlyBy(owner)  {\n    // Capture the next available index\n    uint index = organizations.length;\n    // Initialize a new organization\n    Organization memory org = Organization(index, orgName, thumb);\n    // Store organization and notify\n    organizations.push(org);\n    emit OrganizationCreated(index, org.name);\n  }\n\n  function updateOrganization(uint withID) public whenOccupationExists(withID) payable onlyBy(owner) {\n\n  }\n\n  function removeOrganization(uint withID) public whenOrganizationExists(withID) payable onlyBy(owner) {\n\n  }\n\n  function getOrganization(uint atIndex) public whenOrganizationExists(atIndex) view returns (string memory, string memory) {\n    Organization memory org = organizations[atIndex];\n    return (org.name, org.thumb);\n  }\n\n  function countOrganizations() public view returns (uint) {\n    return organizations.length;\n  }\n\n  function updateOccupationTimeline(uint atIndex, uint startDate, uint endDate) public whenOccupationExists(atIndex) payable onlyBy(owner) {\n    // Validate startDate exists\n    // Ensure the endDate is greater than startDate\n    // If no endDate, cast to null or undefined\n    // Update state\n  }\n\n  function addSkill(string memory skill) public whenUniqueSkill(skill) payable onlyBy(owner) {\n    // Store skill and reference\n    skills.push(skill);\n    availableSkills[skill] = skills.length;\n    // Broadcast listing\n    emit ListedSkill(skill, availableSkills[skill]);\n  }\n\n  function getSkill(uint atIndex) public whenSkillExists(atIndex) view returns (string memory) {\n    // Fetch skill at index\n    return skills[atIndex];\n  }\n\n  function removeSkill(string memory skill) public payable onlyBy(owner) {\n    uint atIndex = availableSkills[skill];\n    assert(atIndex == 0x0);\n    // Clear the skill and reference\n    delete skills[atIndex];\n    delete availableSkills[skill];\n  }\n}",
  "sourcePath": "/Users/mitch/Developer/dapp-academy/contracts/Resume.sol",
  "compiler": {
    "name": "solc",
    "version": "0.5.8+commit.23d335f2.Emscripten.clang"
  },
  "schemaVersion": "3.0.16",
  "updatedAt": "2019-12-06T13:02:44.808Z",
  "devdoc": {
    "methods": {}
  },
  "userdoc": {
    "methods": {}
  }
}