{
  "contractName": "StringTools",
  "abi": [
    {
      "constant": true,
      "inputs": [
        {
          "name": "a",
          "type": "string"
        },
        {
          "name": "b",
          "type": "string"
        }
      ],
      "name": "concat",
      "outputs": [
        {
          "name": "",
          "type": "string"
        }
      ],
      "payable": false,
      "stateMutability": "pure",
      "type": "function"
    }
  ],
  "bytecode": "0x61036c610026600b82828239805160001a60731461001957fe5b30600052607381538281f3fe73000000000000000000000000000000000000000030146080604052600436106100355760003560e01c806389c19ddb1461003a575b600080fd5b61018a6004803603604081101561005057600080fd5b810190808035906020019064010000000081111561006d57600080fd5b82018360208201111561007f57600080fd5b803590602001918460018302840111640100000000831117156100a157600080fd5b91908080601f016020809104026020016040519081016040528093929190818152602001838380828437600081840152601f19601f8201169050808301925050505050505091929192908035906020019064010000000081111561010457600080fd5b82018360208201111561011657600080fd5b8035906020019184600183028401116401000000008311171561013857600080fd5b91908080601f016020809104026020016040519081016040528093929190818152602001838380828437600081840152601f19601f820116905080830192505050505050509192919290505050610205565b6040518080602001828103825283818151815260200191508051906020019080838360005b838110156101ca5780820151818401526020810190506101af565b50505050905090810190601f1680156101f75780820380516001836020036101000a031916815260200191505b509250505060405180910390f35b6060808390506060839050606081518351016040519080825280601f01601f1916602001820160405280156102495781602001600182028038833980820191505090505b509050600080600090505b84518110156102c25784818151811061026957fe5b602001015160f81c60f81b83838060010194508151811061028657fe5b60200101907effffffffffffffffffffffffffffffffffffffffffffffffffffffffffffff1916908160001a9053508080600101915050610254565b600090505b8351811015610335578381815181106102dc57fe5b602001015160f81c60f81b8383806001019450815181106102f957fe5b60200101907effffffffffffffffffffffffffffffffffffffffffffffffffffffffffffff1916908160001a90535080806001019150506102c7565b50505050509291505056fea165627a7a7230582027956c1b7a4ec7fa036746ac1f1ff75a5071e8226072e7c4d8ceb6398dbaa2490029",
  "source": "pragma solidity >=0.4.0 <0.7.0;\n\nlibrary StringTools {\n\n  function concat(string memory a, string memory b) public pure returns (string memory) {\n    bytes memory tmpA = bytes(a);\n    bytes memory tmpB = bytes(b);\n    bytes memory temp = new bytes(tmpA.length + tmpB.length);\n\n    uint counter;\n    uint index;\n    for (index = 0; index < tmpA.length; index++) {\n      temp[counter++] = tmpA[index];\n    }\n    for (index = 0; index < tmpB.length; index++) {\n      temp[counter++] = tmpB[index];\n    }\n  }\n}",
  "sourcePath": "/Users/mitchpierias/Developer/dapp-academy/contracts/Strings.sol",
  "compiler": {
    "name": "solc",
    "version": "0.5.8+commit.23d335f2.Emscripten.clang"
  },
  "schemaVersion": "3.0.16",
  "updatedAt": "2019-12-28T13:07:47.975Z",
  "devdoc": {
    "methods": {}
  },
  "userdoc": {
    "methods": {}
  }
}